{
  "contractName": "PancakePredictionV2",
  "abi": [
    {
      "inputs": [
        {
          "internalType": "address",
          "name": "_oracleAddress",
          "type": "address"
        },
        {
          "internalType": "address",
          "name": "_adminAddress",
          "type": "address"
        },
        {
          "internalType": "address",
          "name": "_operatorAddress",
          "type": "address"
        },
        {
          "internalType": "uint256",
          "name": "_intervalSeconds",
          "type": "uint256"
        },
        {
          "internalType": "uint256",
          "name": "_bufferSeconds",
          "type": "uint256"
        },
        {
          "internalType": "uint256",
          "name": "_minBetAmount",
          "type": "uint256"
        },
        {
          "internalType": "uint256",
          "name": "_oracleUpdateAllowance",
          "type": "uint256"
        },
        {
          "internalType": "uint256",
          "name": "_treasuryFee",
          "type": "uint256"
        }
      ],
      "stateMutability": "nonpayable",
      "type": "constructor"
    },
    {
      "anonymous": false,
      "inputs": [
        {
          "indexed": true,
          "internalType": "address",
          "name": "sender",
          "type": "address"
        },
        {
          "indexed": true,
          "internalType": "uint256",
          "name": "epoch",
          "type": "uint256"
        },
        {
          "indexed": false,
          "internalType": "uint256",
          "name": "amount",
          "type": "uint256"
        }
      ],
      "name": "BetBear",
      "type": "event"
    },
    {
      "anonymous": false,
      "inputs": [
        {
          "indexed": true,
          "internalType": "address",
          "name": "sender",
          "type": "address"
        },
        {
          "indexed": true,
          "internalType": "uint256",
          "name": "epoch",
          "type": "uint256"
        },
        {
          "indexed": false,
          "internalType": "uint256",
          "name": "amount",
          "type": "uint256"
        }
      ],
      "name": "BetBull",
      "type": "event"
    },
    {
      "anonymous": false,
      "inputs": [
        {
          "indexed": true,
          "internalType": "address",
          "name": "sender",
          "type": "address"
        },
        {
          "indexed": true,
          "internalType": "uint256",
          "name": "epoch",
          "type": "uint256"
        },
        {
          "indexed": false,
          "internalType": "uint256",
          "name": "amount",
          "type": "uint256"
        }
      ],
      "name": "Claim",
      "type": "event"
    },
    {
      "anonymous": false,
      "inputs": [
        {
          "indexed": true,
          "internalType": "uint256",
          "name": "epoch",
          "type": "uint256"
        },
        {
          "indexed": true,
          "internalType": "uint256",
          "name": "roundId",
          "type": "uint256"
        },
        {
          "indexed": false,
          "internalType": "int256",
          "name": "price",
          "type": "int256"
        }
      ],
      "name": "EndRound",
      "type": "event"
    },
    {
      "anonymous": false,
      "inputs": [
        {
          "indexed": true,
          "internalType": "uint256",
          "name": "epoch",
          "type": "uint256"
        },
        {
          "indexed": true,
          "internalType": "uint256",
          "name": "roundId",
          "type": "uint256"
        },
        {
          "indexed": false,
          "internalType": "int256",
          "name": "price",
          "type": "int256"
        }
      ],
      "name": "LockRound",
      "type": "event"
    },
    {
      "anonymous": false,
      "inputs": [
        {
          "indexed": false,
          "internalType": "address",
          "name": "admin",
          "type": "address"
        }
      ],
      "name": "NewAdminAddress",
      "type": "event"
    },
    {
      "anonymous": false,
      "inputs": [
        {
          "indexed": false,
          "internalType": "uint256",
          "name": "bufferSeconds",
          "type": "uint256"
        },
        {
          "indexed": false,
          "internalType": "uint256",
          "name": "intervalSeconds",
          "type": "uint256"
        }
      ],
      "name": "NewBufferAndIntervalSeconds",
      "type": "event"
    },
    {
      "anonymous": false,
      "inputs": [
        {
          "indexed": true,
          "internalType": "uint256",
          "name": "epoch",
          "type": "uint256"
        },
        {
          "indexed": false,
          "internalType": "uint256",
          "name": "minBetAmount",
          "type": "uint256"
        }
      ],
      "name": "NewMinBetAmount",
      "type": "event"
    },
    {
      "anonymous": false,
      "inputs": [
        {
          "indexed": false,
          "internalType": "address",
          "name": "operator",
          "type": "address"
        }
      ],
      "name": "NewOperatorAddress",
      "type": "event"
    },
    {
      "anonymous": false,
      "inputs": [
        {
          "indexed": false,
          "internalType": "address",
          "name": "oracle",
          "type": "address"
        }
      ],
      "name": "NewOracle",
      "type": "event"
    },
    {
      "anonymous": false,
      "inputs": [
        {
          "indexed": false,
          "internalType": "uint256",
          "name": "oracleUpdateAllowance",
          "type": "uint256"
        }
      ],
      "name": "NewOracleUpdateAllowance",
      "type": "event"
    },
    {
      "anonymous": false,
      "inputs": [
        {
          "indexed": true,
          "internalType": "uint256",
          "name": "epoch",
          "type": "uint256"
        },
        {
          "indexed": false,
          "internalType": "uint256",
          "name": "treasuryFee",
          "type": "uint256"
        }
      ],
      "name": "NewTreasuryFee",
      "type": "event"
    },
    {
      "anonymous": false,
      "inputs": [
        {
          "indexed": true,
          "internalType": "address",
          "name": "previousOwner",
          "type": "address"
        },
        {
          "indexed": true,
          "internalType": "address",
          "name": "newOwner",
          "type": "address"
        }
      ],
      "name": "OwnershipTransferred",
      "type": "event"
    },
    {
      "anonymous": false,
      "inputs": [
        {
          "indexed": true,
          "internalType": "uint256",
          "name": "epoch",
          "type": "uint256"
        }
      ],
      "name": "Pause",
      "type": "event"
    },
    {
      "anonymous": false,
      "inputs": [
        {
          "indexed": false,
          "internalType": "address",
          "name": "account",
          "type": "address"
        }
      ],
      "name": "Paused",
      "type": "event"
    },
    {
      "anonymous": false,
      "inputs": [
        {
          "indexed": true,
          "internalType": "uint256",
          "name": "epoch",
          "type": "uint256"
        },
        {
          "indexed": false,
          "internalType": "uint256",
          "name": "rewardBaseCalAmount",
          "type": "uint256"
        },
        {
          "indexed": false,
          "internalType": "uint256",
          "name": "rewardAmount",
          "type": "uint256"
        },
        {
          "indexed": false,
          "internalType": "uint256",
          "name": "treasuryAmount",
          "type": "uint256"
        }
      ],
      "name": "RewardsCalculated",
      "type": "event"
    },
    {
      "anonymous": false,
      "inputs": [
        {
          "indexed": true,
          "internalType": "uint256",
          "name": "epoch",
          "type": "uint256"
        }
      ],
      "name": "StartRound",
      "type": "event"
    },
    {
      "anonymous": false,
      "inputs": [
        {
          "indexed": true,
          "internalType": "address",
          "name": "token",
          "type": "address"
        },
        {
          "indexed": false,
          "internalType": "uint256",
          "name": "amount",
          "type": "uint256"
        }
      ],
      "name": "TokenRecovery",
      "type": "event"
    },
    {
      "anonymous": false,
      "inputs": [
        {
          "indexed": false,
          "internalType": "uint256",
          "name": "amount",
          "type": "uint256"
        }
      ],
      "name": "TreasuryClaim",
      "type": "event"
    },
    {
      "anonymous": false,
      "inputs": [
        {
          "indexed": true,
          "internalType": "uint256",
          "name": "epoch",
          "type": "uint256"
        }
      ],
      "name": "Unpause",
      "type": "event"
    },
    {
      "anonymous": false,
      "inputs": [
        {
          "indexed": false,
          "internalType": "address",
          "name": "account",
          "type": "address"
        }
      ],
      "name": "Unpaused",
      "type": "event"
    },
    {
      "inputs": [],
      "name": "MAX_TREASURY_FEE",
      "outputs": [
        {
          "internalType": "uint256",
          "name": "",
          "type": "uint256"
        }
      ],
      "stateMutability": "view",
      "type": "function"
    },
    {
      "inputs": [],
      "name": "adminAddress",
      "outputs": [
        {
          "internalType": "address",
          "name": "",
          "type": "address"
        }
      ],
      "stateMutability": "view",
      "type": "function"
    },
    {
      "inputs": [],
      "name": "bufferSeconds",
      "outputs": [
        {
          "internalType": "uint256",
          "name": "",
          "type": "uint256"
        }
      ],
      "stateMutability": "view",
      "type": "function"
    },
    {
      "inputs": [],
      "name": "currentEpoch",
      "outputs": [
        {
          "internalType": "uint256",
          "name": "",
          "type": "uint256"
        }
      ],
      "stateMutability": "view",
      "type": "function"
    },
    {
      "inputs": [],
      "name": "genesisLockOnce",
      "outputs": [
        {
          "internalType": "bool",
          "name": "",
          "type": "bool"
        }
      ],
      "stateMutability": "view",
      "type": "function"
    },
    {
      "inputs": [],
      "name": "genesisStartOnce",
      "outputs": [
        {
          "internalType": "bool",
          "name": "",
          "type": "bool"
        }
      ],
      "stateMutability": "view",
      "type": "function"
    },
    {
      "inputs": [],
      "name": "intervalSeconds",
      "outputs": [
        {
          "internalType": "uint256",
          "name": "",
          "type": "uint256"
        }
      ],
      "stateMutability": "view",
      "type": "function"
    },
    {
      "inputs": [
        {
          "internalType": "uint256",
          "name": "",
          "type": "uint256"
        },
        {
          "internalType": "address",
          "name": "",
          "type": "address"
        }
      ],
      "name": "ledger",
      "outputs": [
        {
          "internalType": "enum PancakePredictionV2.Position",
          "name": "position",
          "type": "uint8"
        },
        {
          "internalType": "uint256",
          "name": "amount",
          "type": "uint256"
        },
        {
          "internalType": "bool",
          "name": "claimed",
          "type": "bool"
        }
      ],
      "stateMutability": "view",
      "type": "function"
    },
    {
      "inputs": [],
      "name": "minBetAmount",
      "outputs": [
        {
          "internalType": "uint256",
          "name": "",
          "type": "uint256"
        }
      ],
      "stateMutability": "view",
      "type": "function"
    },
    {
      "inputs": [],
      "name": "operatorAddress",
      "outputs": [
        {
          "internalType": "address",
          "name": "",
          "type": "address"
        }
      ],
      "stateMutability": "view",
      "type": "function"
    },
    {
      "inputs": [],
      "name": "oracle",
      "outputs": [
        {
          "internalType": "contract AggregatorV3Interface",
          "name": "",
          "type": "address"
        }
      ],
      "stateMutability": "view",
      "type": "function"
    },
    {
      "inputs": [],
      "name": "oracleLatestRoundId",
      "outputs": [
        {
          "internalType": "uint256",
          "name": "",
          "type": "uint256"
        }
      ],
      "stateMutability": "view",
      "type": "function"
    },
    {
      "inputs": [],
      "name": "oracleUpdateAllowance",
      "outputs": [
        {
          "internalType": "uint256",
          "name": "",
          "type": "uint256"
        }
      ],
      "stateMutability": "view",
      "type": "function"
    },
    {
      "inputs": [],
      "name": "owner",
      "outputs": [
        {
          "internalType": "address",
          "name": "",
          "type": "address"
        }
      ],
      "stateMutability": "view",
      "type": "function"
    },
    {
      "inputs": [],
      "name": "paused",
      "outputs": [
        {
          "internalType": "bool",
          "name": "",
          "type": "bool"
        }
      ],
      "stateMutability": "view",
      "type": "function"
    },
    {
      "inputs": [],
      "name": "renounceOwnership",
      "outputs": [],
      "stateMutability": "nonpayable",
      "type": "function"
    },
    {
      "inputs": [
        {
          "internalType": "uint256",
          "name": "",
          "type": "uint256"
        }
      ],
      "name": "rounds",
      "outputs": [
        {
          "internalType": "uint256",
          "name": "epoch",
          "type": "uint256"
        },
        {
          "internalType": "uint256",
          "name": "startTimestamp",
          "type": "uint256"
        },
        {
          "internalType": "uint256",
          "name": "lockTimestamp",
          "type": "uint256"
        },
        {
          "internalType": "uint256",
          "name": "closeTimestamp",
          "type": "uint256"
        },
        {
          "internalType": "int256",
          "name": "lockPrice",
          "type": "int256"
        },
        {
          "internalType": "int256",
          "name": "closePrice",
          "type": "int256"
        },
        {
          "internalType": "uint256",
          "name": "lockOracleId",
          "type": "uint256"
        },
        {
          "internalType": "uint256",
          "name": "closeOracleId",
          "type": "uint256"
        },
        {
          "internalType": "uint256",
          "name": "totalAmount",
          "type": "uint256"
        },
        {
          "internalType": "uint256",
          "name": "bullAmount",
          "type": "uint256"
        },
        {
          "internalType": "uint256",
          "name": "bearAmount",
          "type": "uint256"
        },
        {
          "internalType": "uint256",
          "name": "rewardBaseCalAmount",
          "type": "uint256"
        },
        {
          "internalType": "uint256",
          "name": "rewardAmount",
          "type": "uint256"
        },
        {
          "internalType": "bool",
          "name": "oracleCalled",
          "type": "bool"
        }
      ],
      "stateMutability": "view",
      "type": "function"
    },
    {
      "inputs": [
        {
          "internalType": "address",
          "name": "newOwner",
          "type": "address"
        }
      ],
      "name": "transferOwnership",
      "outputs": [],
      "stateMutability": "nonpayable",
      "type": "function"
    },
    {
      "inputs": [],
      "name": "treasuryAmount",
      "outputs": [
        {
          "internalType": "uint256",
          "name": "",
          "type": "uint256"
        }
      ],
      "stateMutability": "view",
      "type": "function"
    },
    {
      "inputs": [],
      "name": "treasuryFee",
      "outputs": [
        {
          "internalType": "uint256",
          "name": "",
          "type": "uint256"
        }
      ],
      "stateMutability": "view",
      "type": "function"
    },
    {
      "inputs": [
        {
          "internalType": "address",
          "name": "",
          "type": "address"
        },
        {
          "internalType": "uint256",
          "name": "",
          "type": "uint256"
        }
      ],
      "name": "userRounds",
      "outputs": [
        {
          "internalType": "uint256",
          "name": "",
          "type": "uint256"
        }
      ],
      "stateMutability": "view",
      "type": "function"
    },
    {
      "inputs": [
        {
          "internalType": "uint256",
          "name": "epoch",
          "type": "uint256"
        }
      ],
      "name": "betBear",
      "outputs": [],
      "stateMutability": "payable",
      "type": "function"
    },
    {
      "inputs": [
        {
          "internalType": "uint256",
          "name": "epoch",
          "type": "uint256"
        }
      ],
      "name": "betBull",
      "outputs": [],
      "stateMutability": "payable",
      "type": "function"
    },
    {
      "inputs": [
        {
          "internalType": "uint256[]",
          "name": "epochs",
          "type": "uint256[]"
        }
      ],
      "name": "claim",
      "outputs": [],
      "stateMutability": "nonpayable",
      "type": "function"
    },
    {
      "inputs": [],
      "name": "executeRound",
      "outputs": [],
      "stateMutability": "nonpayable",
      "type": "function"
    },
    {
      "inputs": [],
      "name": "genesisLockRound",
      "outputs": [],
      "stateMutability": "nonpayable",
      "type": "function"
    },
    {
      "inputs": [],
      "name": "genesisStartRound",
      "outputs": [],
      "stateMutability": "nonpayable",
      "type": "function"
    },
    {
      "inputs": [],
      "name": "pause",
      "outputs": [],
      "stateMutability": "nonpayable",
      "type": "function"
    },
    {
      "inputs": [],
      "name": "claimTreasury",
      "outputs": [],
      "stateMutability": "nonpayable",
      "type": "function"
    },
    {
      "inputs": [],
      "name": "unpause",
      "outputs": [],
      "stateMutability": "nonpayable",
      "type": "function"
    },
    {
      "inputs": [
        {
          "internalType": "uint256",
          "name": "_bufferSeconds",
          "type": "uint256"
        },
        {
          "internalType": "uint256",
          "name": "_intervalSeconds",
          "type": "uint256"
        }
      ],
      "name": "setBufferAndIntervalSeconds",
      "outputs": [],
      "stateMutability": "nonpayable",
      "type": "function"
    },
    {
      "inputs": [
        {
          "internalType": "uint256",
          "name": "_minBetAmount",
          "type": "uint256"
        }
      ],
      "name": "setMinBetAmount",
      "outputs": [],
      "stateMutability": "nonpayable",
      "type": "function"
    },
    {
      "inputs": [
        {
          "internalType": "address",
          "name": "_operatorAddress",
          "type": "address"
        }
      ],
      "name": "setOperator",
      "outputs": [],
      "stateMutability": "nonpayable",
      "type": "function"
    },
    {
      "inputs": [
        {
          "internalType": "address",
          "name": "_oracle",
          "type": "address"
        }
      ],
      "name": "setOracle",
      "outputs": [],
      "stateMutability": "nonpayable",
      "type": "function"
    },
    {
      "inputs": [
        {
          "internalType": "uint256",
          "name": "_oracleUpdateAllowance",
          "type": "uint256"
        }
      ],
      "name": "setOracleUpdateAllowance",
      "outputs": [],
      "stateMutability": "nonpayable",
      "type": "function"
    },
    {
      "inputs": [
        {
          "internalType": "uint256",
          "name": "_treasuryFee",
          "type": "uint256"
        }
      ],
      "name": "setTreasuryFee",
      "outputs": [],
      "stateMutability": "nonpayable",
      "type": "function"
    },
    {
      "inputs": [
        {
          "internalType": "address",
          "name": "_token",
          "type": "address"
        },
        {
          "internalType": "uint256",
          "name": "_amount",
          "type": "uint256"
        }
      ],
      "name": "recoverToken",
      "outputs": [],
      "stateMutability": "nonpayable",
      "type": "function"
    },
    {
      "inputs": [
        {
          "internalType": "address",
          "name": "_adminAddress",
          "type": "address"
        }
      ],
      "name": "setAdmin",
      "outputs": [],
      "stateMutability": "nonpayable",
      "type": "function"
    },
    {
      "inputs": [
        {
          "internalType": "address",
          "name": "user",
          "type": "address"
        },
        {
          "internalType": "uint256",
          "name": "cursor",
          "type": "uint256"
        },
        {
          "internalType": "uint256",
          "name": "size",
          "type": "uint256"
        }
      ],
      "name": "getUserRounds",
      "outputs": [
        {
          "internalType": "uint256[]",
          "name": "",
          "type": "uint256[]"
        },
        {
          "components": [
            {
              "internalType": "enum PancakePredictionV2.Position",
              "name": "position",
              "type": "uint8"
            },
            {
              "internalType": "uint256",
              "name": "amount",
              "type": "uint256"
            },
            {
              "internalType": "bool",
              "name": "claimed",
              "type": "bool"
            }
          ],
          "internalType": "struct PancakePredictionV2.BetInfo[]",
          "name": "",
          "type": "tuple[]"
        },
        {
          "internalType": "uint256",
          "name": "",
          "type": "uint256"
        }
      ],
      "stateMutability": "view",
      "type": "function"
    },
    {
      "inputs": [
        {
          "internalType": "address",
          "name": "user",
          "type": "address"
        }
      ],
      "name": "getUserRoundsLength",
      "outputs": [
        {
          "internalType": "uint256",
          "name": "",
          "type": "uint256"
        }
      ],
      "stateMutability": "view",
      "type": "function"
    },
    {
      "inputs": [
        {
          "internalType": "uint256",
          "name": "epoch",
          "type": "uint256"
        },
        {
          "internalType": "address",
          "name": "user",
          "type": "address"
        }
      ],
      "name": "claimable",
      "outputs": [
        {
          "internalType": "bool",
          "name": "",
          "type": "bool"
        }
      ],
      "stateMutability": "view",
      "type": "function"
    },
    {
      "inputs": [
        {
          "internalType": "uint256",
          "name": "epoch",
          "type": "uint256"
        },
        {
          "internalType": "address",
          "name": "user",
          "type": "address"
        }
      ],
      "name": "refundable",
      "outputs": [
        {
          "internalType": "bool",
          "name": "",
          "type": "bool"
        }
      ],
      "stateMutability": "view",
      "type": "function"
    },
    {
      "inputs": [],
      "name": "_getPriceFromOracleView",
      "outputs": [
        {
          "internalType": "uint256",
          "name": "",
          "type": "uint256"
        }
      ],
      "stateMutability": "view",
      "type": "function"
    }
  ],
  "bytecode": "0x60806040526002805461ffff60a01b191690553480156200001f57600080fd5b5060405162003b6938038062003b6983398101604081905262000042916200017e565b6200004d3362000111565b6000805460ff60a01b19169055600180556103e8811115620000b55760405162461bcd60e51b815260206004820152601560248201527f54726561737572792066656520746f6f20686967680000000000000000000000604482015260640160405180910390fd5b600280546001600160a01b03199081166001600160a01b039a8b1617909155600380548216988a1698909817909755600480549097169590971694909417909455600691909155600555600791909155600c55600855620001f9565b600080546001600160a01b038381166001600160a01b0319831681178455604051919092169283917f8be0079c531659141344cd1fd0a4f28419497f9722a3daafe3b4186f6b6457e09190a35050565b80516001600160a01b03811681146200017957600080fd5b919050565b600080600080600080600080610100898b0312156200019c57600080fd5b620001a78962000161565b9750620001b760208a0162000161565b9650620001c760408a0162000161565b9550606089015194506080890151935060a0890151925060c0890151915060e089015190509295985092959890939650565b61396080620002096000396000f3fe60806040526004361061025b5760003560e01c80637d1cd04f11610144578063cc32d176116100b6578063ec3247031161007a578063ec324703146107c2578063f2b3c809146107d8578063f2fde38b146107ee578063f7fdec281461080e578063fa968eea1461082f578063fc6f94681461084557600080fd5b8063cc32d17614610741578063cf2f503914610757578063d9d55eac14610777578063dd1f75961461078c578063eaba2361146107ac57600080fd5b80638da5cb5b116101085780638da5cb5b14610681578063951fd6001461069f578063a0c7f71c146106ce578063aa6b873a146106ee578063b29a814014610701578063b3ab15fb1461072157600080fd5b80637d1cd04f146105215780637dc0d1d0146105375780638456cb5914610557578063890dc7661461056c5780638c65c81f1461058c57600080fd5b806360554011116101dd5780637285c58b116101a15780637285c58b1461043b578063766718081461049657806377e741c7146104ac5780637adbf973146104cc5780637b3205f5146104ec5780637bf412541461050157600080fd5b806360554011146103b05780636ba4c138146103c65780636c188593146103e6578063704b6c0214610406578063715018a61461042657600080fd5b80633f4ba83a116102245780633f4ba83a1461033f57806344901ee614610354578063452fd75a1461036957806357fb096f1461037e5780635c975abb1461039157600080fd5b80623bdc74146102605780630f74174f14610277578063127effb2146102ad578063273867d4146102e5578063368acb0914610329575b600080fd5b34801561026c57600080fd5b50610275610865565b005b34801561028357600080fd5b5060025461029890600160a01b900460ff1681565b60405190151581526020015b60405180910390f35b3480156102b957600080fd5b506004546102cd906001600160a01b031681565b6040516001600160a01b0390911681526020016102a4565b3480156102f157600080fd5b5061031b6103003660046132bd565b6001600160a01b03166000908152600f602052604090205490565b6040519081526020016102a4565b34801561033557600080fd5b5061031b60095481565b34801561034b57600080fd5b50610275610919565b34801561036057600080fd5b5061031b6109b0565b34801561037557600080fd5b50610275610a3f565b61027561038c3660046132d8565b610b3f565b34801561039d57600080fd5b50600054600160a01b900460ff16610298565b3480156103bc57600080fd5b5061031b600c5481565b3480156103d257600080fd5b506102756103e13660046132f1565b610dab565b3480156103f257600080fd5b506102756104013660046132d8565b6112a5565b34801561041257600080fd5b506102756104213660046132bd565b61137c565b34801561043257600080fd5b50610275611421565b34801561044757600080fd5b50610487610456366004613366565b600d60209081526000928352604080842090915290825290208054600182015460029092015460ff91821692911683565b6040516102a4939291906133ca565b3480156104a257600080fd5b5061031b600a5481565b3480156104b857600080fd5b506102756104c73660046132d8565b611457565b3480156104d857600080fd5b506102756104e73660046132bd565b61152c565b3480156104f857600080fd5b50610275611667565b34801561050d57600080fd5b5061029861051c366004613366565b611801565b34801561052d57600080fd5b5061031b60065481565b34801561054357600080fd5b506002546102cd906001600160a01b031681565b34801561056357600080fd5b50610275611971565b34801561057857600080fd5b506102756105873660046133ee565b611a10565b34801561059857600080fd5b506106176105a73660046132d8565b600e60205260009081526040902080546001820154600283015460038401546004850154600586015460068701546007880154600889015460098a0154600a8b0154600b8c0154600c8d0154600d909d01549b9c9a9b999a98999798969795969495939492939192909160ff168e565b604080519e8f5260208f019d909d529b8d019a909a5260608c019890985260808b019690965260a08a019490945260c089019290925260e088015261010087015261012086015261014085015261016084015261018083015215156101a08201526101c0016102a4565b34801561068d57600080fd5b506000546001600160a01b03166102cd565b3480156106ab57600080fd5b506106bf6106ba366004613410565b611b13565b6040516102a493929190613443565b3480156106da57600080fd5b506102986106e9366004613366565b611d6a565b6102756106fc3660046132d8565b611f32565b34801561070d57600080fd5b5061027561071c3660046134e6565b612193565b34801561072d57600080fd5b5061027561073c3660046132bd565b612218565b34801561074d57600080fd5b5061031b60085481565b34801561076357600080fd5b506102756107723660046132d8565b6122b6565b34801561078357600080fd5b5061027561233e565b34801561079857600080fd5b5061031b6107a73660046134e6565b61249d565b3480156107b857600080fd5b5061031b60055481565b3480156107ce57600080fd5b5061031b600b5481565b3480156107e457600080fd5b5061031b6103e881565b3480156107fa57600080fd5b506102756108093660046132bd565b6124ce565b34801561081a57600080fd5b5060025461029890600160a81b900460ff1681565b34801561083b57600080fd5b5061031b60075481565b34801561085157600080fd5b506003546102cd906001600160a01b031681565b600260015414156108915760405162461bcd60e51b815260040161088890613510565b60405180910390fd5b60026001556003546001600160a01b031633146108c05760405162461bcd60e51b815260040161088890613547565b6009805460009091556003546108df906001600160a01b031682612569565b6040518181527fb9197c6b8e21274bd1e2d9c956a88af5cfee510f630fab3f046300f88b4223619060200160405180910390a15060018055565b600054600160a01b900460ff166109425760405162461bcd60e51b81526004016108889061356a565b6003546001600160a01b0316331461096c5760405162461bcd60e51b815260040161088890613547565b6002805461ffff60a01b1916905561098261261d565b600a546040517faaa520fdd7d2c83061d632fa017b0432407e798818af63ea908589fceda39ab790600090a2565b600080600260009054906101000a90046001600160a01b03166001600160a01b031663feaf968c6040518163ffffffff1660e01b815260040160a060405180830381865afa158015610a06573d6000803e3d6000fd5b505050506040513d601f19601f82011682018060405250810190610a2a91906135af565b50506001600160501b03909216949350505050565b600054600160a01b900460ff1615610a695760405162461bcd60e51b8152600401610888906135ff565b6003546001600160a01b0316331480610a8c57506004546001600160a01b031633145b610aa85760405162461bcd60e51b815260040161088890613629565b600254600160a81b900460ff1615610b0e5760405162461bcd60e51b815260206004820152602360248201527f43616e206f6e6c792072756e2067656e657369735374617274526f756e64206f6044820152626e636560e81b6064820152608401610888565b600a54610b1c90600161366b565b600a819055610b2a90612693565b6002805460ff60a81b1916600160a81b179055565b600054600160a01b900460ff1615610b695760405162461bcd60e51b8152600401610888906135ff565b60026001541415610b8c5760405162461bcd60e51b815260040161088890613510565b6002600155333b15610bb05760405162461bcd60e51b815260040161088890613683565b333214610bcf5760405162461bcd60e51b8152600401610888906136b1565b600a548114610c185760405162461bcd60e51b815260206004820152601560248201527442657420697320746f6f206561726c792f6c61746560581b6044820152606401610888565b610c2181612711565b610c625760405162461bcd60e51b8152602060048201526012602482015271526f756e64206e6f74206265747461626c6560701b6044820152606401610888565b600754341015610c845760405162461bcd60e51b8152600401610888906136e8565b6000818152600d6020908152604080832033845290915290206001015415610cee5760405162461bcd60e51b815260206004820152601b60248201527f43616e206f6e6c7920626574206f6e63652070657220726f756e6400000000006044820152606401610888565b6000818152600e602052604090206008810154349190610d0f90839061366b565b60088201556009810154610d2490839061366b565b60098201556000838152600d6020908152604080832033808552908352818420805460ff191681556001808201889055600f855283862080549182018155865294849020909401879055905185815286927f438122d8cff518d18388099a5181f0d17a12b4f1b55faedf6e4a6acee0060c1291015b60405180910390a35050600180555050565b60026001541415610dce5760405162461bcd60e51b815260040161088890613510565b6002600155333b15610df25760405162461bcd60e51b815260040161088890613683565b333214610e115760405162461bcd60e51b8152600401610888906136b1565b6000805b8281101561128b57600e6000858584818110610e3357610e33613734565b9050602002013581526020019081526020016000206001015460001415610e945760405162461bcd60e51b8152602060048201526015602482015274149bdd5b99081a185cc81b9bdd081cdd185c9d1959605a1b6044820152606401610888565b600e6000858584818110610eaa57610eaa613734565b905060200201358152602001908152602001600020600301544211610f075760405162461bcd60e51b8152602060048201526013602482015272149bdd5b99081a185cc81b9bdd08195b991959606a1b6044820152606401610888565b6000600e6000868685818110610f1f57610f1f613734565b60209081029290920135835250810191909152604001600020600d015460ff16156110fd57610f66858584818110610f5957610f59613734565b9050602002013533611d6a565b610fab5760405162461bcd60e51b81526020600482015260166024820152754e6f7420656c696769626c6520666f7220636c61696d60501b6044820152606401610888565b6000600e6000878786818110610fc357610fc3613734565b905060200201358152602001908152602001600020604051806101c001604052908160008201548152602001600182015481526020016002820154815260200160038201548152602001600482015481526020016005820154815260200160068201548152602001600782015481526020016008820154815260200160098201548152602001600a8201548152602001600b8201548152602001600c8201548152602001600d820160009054906101000a900460ff1615151515815250509050806101600151816101800151600d60008989888181106110a5576110a5613734565b9050602002013581526020019081526020016000206000336001600160a01b03166001600160a01b03168152602001908152602001600020600101546110eb919061374a565b6110f59190613769565b9150506111c0565b61111f85858481811061111257611112613734565b9050602002013533611801565b61116b5760405162461bcd60e51b815260206004820152601760248201527f4e6f7420656c696769626c6520666f7220726566756e640000000000000000006044820152606401610888565b600d600086868581811061118157611181613734565b9050602002013581526020019081526020016000206000336001600160a01b03166001600160a01b031681526020019081526020016000206001015490505b6001600d60008787868181106111d8576111d8613734565b6020908102929092013583525081810192909252604090810160009081203382529092529020600201805460ff191691151591909117905561121a818461366b565b925084848381811061122e5761122e613734565b90506020020135336001600160a01b03167f34fcbac0073d7c3d388e51312faf357774904998eeb8fca628b9e6f65ee1cbf78360405161127091815260200190565b60405180910390a350806112838161378b565b915050610e15565b50801561129c5761129c3382612569565b50506001805550565b600054600160a01b900460ff166112ce5760405162461bcd60e51b81526004016108889061356a565b6003546001600160a01b031633146112f85760405162461bcd60e51b815260040161088890613547565b8061133d5760405162461bcd60e51b815260206004820152601560248201527404d757374206265207375706572696f7220746f203605c1b6044820152606401610888565b6007819055600a546040518281527f90eb87c560a0213754ceb3a7fa3012f01acab0a35602c1e1995adf69dabc9d50906020015b60405180910390a250565b6000546001600160a01b031633146113a65760405162461bcd60e51b8152600401610888906137a6565b6001600160a01b0381166113cc5760405162461bcd60e51b8152600401610888906137db565b600380546001600160a01b0319166001600160a01b0383169081179091556040519081527f137b621413925496477d46e5055ac0d56178bdd724ba8bf843afceef18268ba3906020015b60405180910390a150565b6000546001600160a01b0316331461144b5760405162461bcd60e51b8152600401610888906137a6565b611455600061277c565b565b600054600160a01b900460ff166114805760405162461bcd60e51b81526004016108889061356a565b6003546001600160a01b031633146114aa5760405162461bcd60e51b815260040161088890613547565b6103e88111156114f45760405162461bcd60e51b81526020600482015260156024820152740a8e4cac2e6eae4f240cccaca40e8dede40d0d2ced605b1b6044820152606401610888565b6008819055600a546040518281527fb1c4ee38d35556741133da7ff9b6f7ab0fa88d0406133126ff128f635490a85790602001611371565b600054600160a01b900460ff166115555760405162461bcd60e51b81526004016108889061356a565b6003546001600160a01b0316331461157f5760405162461bcd60e51b815260040161088890613547565b6001600160a01b0381166115a55760405162461bcd60e51b8152600401610888906137db565b6000600b55600280546001600160a01b0319166001600160a01b03831690811790915560408051633fabe5a360e21b8152905163feaf968c9160048082019260a0929091908290030181865afa158015611603573d6000803e3d6000fd5b505050506040513d601f19601f8201168201806040525081019061162791906135af565b50506040516001600160a01b03851681527fb3eacd0e351fafdfefdec84e1cd19679b38dbcd63ea7c2c24da17fd2bc3b3c0e935060200191506114169050565b600054600160a01b900460ff16156116915760405162461bcd60e51b8152600401610888906135ff565b6003546001600160a01b03163314806116b457506004546001600160a01b031633145b6116d05760405162461bcd60e51b815260040161088890613629565b600254600160a81b900460ff1680156116f25750600254600160a01b900460ff165b6117735760405162461bcd60e51b815260206004820152604660248201527f43616e206f6e6c792072756e2061667465722067656e6573697353746172745260448201527f6f756e6420616e642067656e657369734c6f636b526f756e642069732074726960648201526519d9d95c995960d21b608482015260a401610888565b60008061177e6127cc565b91509150816001600160501b0316600b819055506117a8600a54836001600160501b031683612958565b6117ca6001600a546117ba919061380b565b836001600160501b031683612b26565b6117e16001600a546117dc919061380b565b612ce7565b600a546117ef90600161366b565b600a8190556117fd90612e65565b5050565b6000828152600d602090815260408083206001600160a01b0385168452909152808220815160608101909252805483929190829060ff16600181111561184957611849613392565b600181111561185a5761185a613392565b815260018281015460208084019190915260029384015460ff908116151560409485015260008a8152600e835284902084516101c08101865281548152938101549284019290925293810154928201929092526003820154606082015260048201546080820152600582015460a0820152600682015460c0820152600782015460e082015260088201546101008201526009820154610120820152600a820154610140820152600b820154610160820152600c820154610180820152600d909101549091161580156101a08301819052929350909161193b57508160400151155b801561195757506005548160600151611954919061366b565b42115b80156119665750602082015115155b925050505b92915050565b600054600160a01b900460ff161561199b5760405162461bcd60e51b8152600401610888906135ff565b6003546001600160a01b03163314806119be57506004546001600160a01b031633145b6119da5760405162461bcd60e51b815260040161088890613629565b6119e2612fb5565b600a546040517f68b095021b1f40fe513109f513c66692f0b3219aee674a69f4efc57badb8201d90600090a2565b600054600160a01b900460ff16611a395760405162461bcd60e51b81526004016108889061356a565b6003546001600160a01b03163314611a635760405162461bcd60e51b815260040161088890613547565b808210611acc5760405162461bcd60e51b815260206004820152603160248201527f6275666665725365636f6e6473206d75737420626520696e666572696f7220746044820152706f20696e74657276616c5365636f6e647360781b6064820152608401610888565b6005829055600681905560408051838152602081018390527fe60149e0431fec12df63dfab5fce2a9cefe9a4d3df5f41cb626f579ae1f2b91a910160405180910390a15050565b6001600160a01b0383166000908152600f602052604081205460609182918490611b3e90879061380b565b811115611b6c576001600160a01b0387166000908152600f6020526040902054611b6990879061380b565b90505b60008167ffffffffffffffff811115611b8757611b87613822565b604051908082528060200260200182016040528015611bb0578160200160208202803683370190505b50905060008267ffffffffffffffff811115611bce57611bce613822565b604051908082528060200260200182016040528015611c1957816020015b6040805160608101825260008082526020808301829052928201528252600019909201910181611bec5790505b50905060005b83811015611d4b576001600160a01b038a166000908152600f60205260409020611c49828b61366b565b81548110611c5957611c59613734565b9060005260206000200154838281518110611c7657611c76613734565b602002602001018181525050600d6000848381518110611c9857611c98613734565b602090810291909101810151825281810192909252604090810160009081206001600160a01b038e168252909252908190208151606081019092528054829060ff166001811115611ceb57611ceb613392565b6001811115611cfc57611cfc613392565b81526001820154602082015260029091015460ff1615156040909101528251839083908110611d2d57611d2d613734565b60200260200101819052508080611d439061378b565b915050611c1f565b508181611d58858b61366b565b95509550955050505093509350939050565b6000828152600d602090815260408083206001600160a01b0385168452909152808220815160608101909252805483929190829060ff166001811115611db257611db2613392565b6001811115611dc357611dc3613392565b815260018281015460208084019190915260029384015460ff908116151560409485015260008a8152600e835284902084516101c081018652815481529381015492840192909252938101549282019290925260038201546060820152600482015460808201819052600583015460a08301819052600684015460c0840152600784015460e084015260088401546101008401526009840154610120840152600a840154610140840152600b840154610160840152600c840154610180840152600d9093015490931615156101a08201529293501415611ea85760009250505061196b565b806101a001518015611ebd5750602082015115155b8015611ecb57508160400151155b8015611966575080608001518160a00151138015611efb5750600082516001811115611ef957611ef9613392565b145b80611966575080608001518160a001511280156119665750600182516001811115611f2857611f28613392565b1495945050505050565b600054600160a01b900460ff1615611f5c5760405162461bcd60e51b8152600401610888906135ff565b60026001541415611f7f5760405162461bcd60e51b815260040161088890613510565b6002600155333b15611fa35760405162461bcd60e51b815260040161088890613683565b333214611fc25760405162461bcd60e51b8152600401610888906136b1565b600a54811461200b5760405162461bcd60e51b815260206004820152601560248201527442657420697320746f6f206561726c792f6c61746560581b6044820152606401610888565b61201481612711565b6120555760405162461bcd60e51b8152602060048201526012602482015271526f756e64206e6f74206265747461626c6560701b6044820152606401610888565b6007543410156120775760405162461bcd60e51b8152600401610888906136e8565b6000818152600d60209081526040808320338452909152902060010154156120e15760405162461bcd60e51b815260206004820152601b60248201527f43616e206f6e6c7920626574206f6e63652070657220726f756e6400000000006044820152606401610888565b6000818152600e60205260409020600881015434919061210290839061366b565b6008820155600a81015461211790839061366b565b600a8201556000838152600d6020908152604080832033808552908352818420805460ff191660019081178255808201889055600f855283862080549182018155865294849020909401879055905185815286927f0d8c1fe3e67ab767116a81f122b83c2557a8c2564019cb7c4f83de1aeb1f1f0d9101610d99565b6000546001600160a01b031633146121bd5760405162461bcd60e51b8152600401610888906137a6565b6121d16001600160a01b038316338361301a565b816001600160a01b03167f14f11966a996e0629572e51064726d2057a80fbd34efc066682c06a71dbb6e988260405161220c91815260200190565b60405180910390a25050565b6003546001600160a01b031633146122425760405162461bcd60e51b815260040161088890613547565b6001600160a01b0381166122685760405162461bcd60e51b8152600401610888906137db565b600480546001600160a01b0319166001600160a01b0383169081179091556040519081527fc47d127c07bdd56c5ccba00463ce3bd3c1bca71b4670eea6e5d0c02e4aa156e290602001611416565b600054600160a01b900460ff166122df5760405162461bcd60e51b81526004016108889061356a565b6003546001600160a01b031633146123095760405162461bcd60e51b815260040161088890613547565b600c8190556040518181527f93ccaceac092ffb842c46b8718667a13a80e9058dcd0bd403d0b47215b30da0790602001611416565b600054600160a01b900460ff16156123685760405162461bcd60e51b8152600401610888906135ff565b6003546001600160a01b031633148061238b57506004546001600160a01b031633145b6123a75760405162461bcd60e51b815260040161088890613629565b600254600160a81b900460ff166123d05760405162461bcd60e51b815260040161088890613838565b600254600160a01b900460ff16156124355760405162461bcd60e51b815260206004820152602260248201527f43616e206f6e6c792072756e2067656e657369734c6f636b526f756e64206f6e604482015261636560f01b6064820152608401610888565b6000806124406127cc565b91509150816001600160501b0316600b8190555061246a600a54836001600160501b031683612958565b600a5461247890600161366b565b600a81905561248690612693565b50506002805460ff60a01b1916600160a01b179055565b600f60205281600052604060002081815481106124b957600080fd5b90600052602060002001600091509150505481565b6000546001600160a01b031633146124f85760405162461bcd60e51b8152600401610888906137a6565b6001600160a01b03811661255d5760405162461bcd60e51b815260206004820152602660248201527f4f776e61626c653a206e6577206f776e657220697320746865207a65726f206160448201526564647265737360d01b6064820152608401610888565b6125668161277c565b50565b6000826001600160a01b03168260405160006040518083038185875af1925050503d80600081146125b6576040519150601f19603f3d011682016040523d82523d6000602084013e6125bb565b606091505b50509050806126185760405162461bcd60e51b815260206004820152602360248201527f5472616e7366657248656c7065723a20424e425f5452414e534645525f46414960448201526213115160ea1b6064820152608401610888565b505050565b600054600160a01b900460ff166126465760405162461bcd60e51b81526004016108889061356a565b6000805460ff60a01b191690557f5db9ee0a495bf2e6ff9c91a7834c1ba4fdd244a5e8aa4e537bd38aeae4b073aa335b6040516001600160a01b03909116815260200160405180910390a1565b6000818152600e6020526040902042600182018190556006546126b59161366b565b6002808301919091556006546126ca9161374a565b6126d4904261366b565b600382015581815560006008820181905560405183917f939f42374aa9bf1d8d8cd56d8a9110cb040cd8dfeae44080c6fcf2645e51b45291a25050565b6000818152600e60205260408120600101541580159061274157506000828152600e602052604090206002015415155b801561275d57506000828152600e602052604090206001015442115b801561196b5750506000908152600e6020526040902060020154421090565b600080546001600160a01b038381166001600160a01b0319831681178455604051919092169283917f8be0079c531659141344cd1fd0a4f28419497f9722a3daafe3b4186f6b6457e09190a35050565b6000806000600c54426127df919061366b565b90506000806000600260009054906101000a90046001600160a01b03166001600160a01b031663feaf968c6040518163ffffffff1660e01b815260040160a060405180830381865afa158015612839573d6000803e3d6000fd5b505050506040513d601f19601f8201168201806040525081019061285d91906135af565b5093505092509250838111156128cc5760405162461bcd60e51b815260206004820152602e60248201527f4f7261636c6520757064617465206578636565646564206d61782074696d657360448201526d74616d7020616c6c6f77616e636560901b6064820152608401610888565b600b54836001600160501b0316101561294d5760405162461bcd60e51b815260206004820152603d60248201527f4f7261636c652075706461746520726f756e644964206d757374206265206c6160448201527f72676572207468616e206f7261636c654c6174657374526f756e6449640000006064820152608401610888565b509094909350915050565b6000838152600e60205260409020600101546129ca5760405162461bcd60e51b815260206004820152602b60248201527f43616e206f6e6c79206c6f636b20726f756e6420616674657220726f756e642060448201526a1a185cc81cdd185c9d195960aa1b6064820152608401610888565b6000838152600e6020526040902060020154421015612a3b5760405162461bcd60e51b815260206004820152602760248201527f43616e206f6e6c79206c6f636b20726f756e64206166746572206c6f636b546960448201526606d657374616d760cc1b6064820152608401610888565b6005546000848152600e6020526040902060020154612a5a919061366b565b421115612aba5760405162461bcd60e51b815260206004820152602860248201527f43616e206f6e6c79206c6f636b20726f756e642077697468696e206275666665604482015267725365636f6e647360c01b6064820152608401610888565b6000838152600e60205260409020600654612ad5904261366b565b60038201556004810182905560068101839055604051828152839085907f482e76a65b448a42deef26e99e58fb20c85e26f075defff8df6aa80459b39006906020015b60405180910390a350505050565b6000838152600e6020526040902060020154612b965760405162461bcd60e51b815260206004820152602960248201527f43616e206f6e6c7920656e6420726f756e6420616674657220726f756e642068604482015268185cc81b1bd8dad95960ba1b6064820152608401610888565b6000838152600e6020526040902060030154421015612c075760405162461bcd60e51b815260206004820152602760248201527f43616e206f6e6c7920656e6420726f756e6420616674657220636c6f7365546960448201526606d657374616d760cc1b6064820152608401610888565b6005546000848152600e6020526040902060030154612c26919061366b565b421115612c855760405162461bcd60e51b815260206004820152602760248201527f43616e206f6e6c7920656e6420726f756e642077697468696e206275666665726044820152665365636f6e647360c81b6064820152608401610888565b6000838152600e6020526040908190206005810183905560078101849055600d8101805460ff191660011790559051839085907fb6ff1fe915db84788cbbbc017f0d2bef9485fad9fd0bd8ce9340fde0d8410dd890612b189086815260200190565b6000818152600e60205260409020600b0154158015612d1557506000818152600e60205260409020600c0154155b612d565760405162461bcd60e51b815260206004820152601260248201527114995dd85c991cc818d85b18dd5b185d195960721b6044820152606401610888565b6000818152600e6020526040812060048101546005820154919291829182911315612dba57836009015492506127106008548560080154612d97919061374a565b612da19190613769565b9150818460080154612db3919061380b565b9050612df3565b836004015484600501541215612de65783600a015492506127106008548560080154612d97919061374a565b5050506008810154600090815b600b8401839055600c840181905560098054839190600090612e1690849061366b565b9091555050604080518481526020810183905290810183905285907f6dfdfcb09c8804d0058826cd2539f1acfbe3cb887c9be03d928035bce0f1a58d9060600160405180910390a25050505050565b600254600160a81b900460ff16612e8e5760405162461bcd60e51b815260040161088890613838565b600e6000612e9d60028461380b565b81526020019081526020016000206003015460001415612f165760405162461bcd60e51b815260206004820152602e60248201527f43616e206f6e6c7920737461727420726f756e6420616674657220726f756e6460448201526d081b8b4c881a185cc8195b99195960921b6064820152608401610888565b600e6000612f2560028461380b565b815260200190815260200160002060030154421015612fac5760405162461bcd60e51b815260206004820152603760248201527f43616e206f6e6c79207374617274206e657720726f756e64206166746572207260448201527f6f756e64206e2d3220636c6f736554696d657374616d700000000000000000006064820152608401610888565b61256681612693565b600054600160a01b900460ff1615612fdf5760405162461bcd60e51b8152600401610888906135ff565b6000805460ff60a01b1916600160a01b1790557f62e78cea01bee320cd4e420270b5ea74000d11b0c9f74754ebdbfc544b05a2586126763390565b604080516001600160a01b03848116602483015260448083018590528351808403909101815260649092018352602080830180516001600160e01b031663a9059cbb60e01b17905283518085019094528084527f5361666545524332303a206c6f772d6c6576656c2063616c6c206661696c656490840152612618928692916000916130aa918516908490613127565b80519091501561261857808060200190518101906130c89190613889565b6126185760405162461bcd60e51b815260206004820152602a60248201527f5361666545524332303a204552433230206f7065726174696f6e20646964206e6044820152691bdd081cdd58d8d9595960b21b6064820152608401610888565b60606131368484600085613140565b90505b9392505050565b6060824710156131a15760405162461bcd60e51b815260206004820152602660248201527f416464726573733a20696e73756666696369656e742062616c616e636520666f6044820152651c8818d85b1b60d21b6064820152608401610888565b843b6131ef5760405162461bcd60e51b815260206004820152601d60248201527f416464726573733a2063616c6c20746f206e6f6e2d636f6e74726163740000006044820152606401610888565b600080866001600160a01b0316858760405161320b91906138db565b60006040518083038185875af1925050503d8060008114613248576040519150601f19603f3d011682016040523d82523d6000602084013e61324d565b606091505b509150915061325d828286613268565b979650505050505050565b60608315613277575081613139565b8251156132875782518084602001fd5b8160405162461bcd60e51b815260040161088891906138f7565b80356001600160a01b03811681146132b857600080fd5b919050565b6000602082840312156132cf57600080fd5b613139826132a1565b6000602082840312156132ea57600080fd5b5035919050565b6000806020838503121561330457600080fd5b823567ffffffffffffffff8082111561331c57600080fd5b818501915085601f83011261333057600080fd5b81358181111561333f57600080fd5b8660208260051b850101111561335457600080fd5b60209290920196919550909350505050565b6000806040838503121561337957600080fd5b82359150613389602084016132a1565b90509250929050565b634e487b7160e01b600052602160045260246000fd5b600281106133c657634e487b7160e01b600052602160045260246000fd5b9052565b606081016133d882866133a8565b8360208301528215156040830152949350505050565b6000806040838503121561340157600080fd5b50508035926020909101359150565b60008060006060848603121561342557600080fd5b61342e846132a1565b95602085013595506040909401359392505050565b60608082528451828201819052600091906020906080850190828901855b8281101561347d57815184529284019290840190600101613461565b5050508481038286015286518082528783019183019060005b818110156134cf5783516134ab8482516133a8565b80860151848701526040908101511515908401529284019291850191600101613496565b505080945050505050826040830152949350505050565b600080604083850312156134f957600080fd5b613502836132a1565b946020939093013593505050565b6020808252601f908201527f5265656e7472616e637947756172643a207265656e7472616e742063616c6c00604082015260600190565b6020808252600990820152682737ba1030b236b4b760b91b604082015260600190565b60208082526014908201527314185d5cd8589b194e881b9bdd081c185d5cd95960621b604082015260600190565b80516001600160501b03811681146132b857600080fd5b600080600080600060a086880312156135c757600080fd5b6135d086613598565b94506020860151935060408601519250606086015191506135f360808701613598565b90509295509295909350565b60208082526010908201526f14185d5cd8589b194e881c185d5cd95960821b604082015260600190565b6020808252601290820152712737ba1037b832b930ba37b917b0b236b4b760711b604082015260600190565b634e487b7160e01b600052601160045260246000fd5b6000821982111561367e5761367e613655565b500190565b60208082526014908201527310dbdb9d1c9858dd081b9bdd08185b1b1bddd95960621b604082015260600190565b6020808252601a908201527f50726f787920636f6e7472616374206e6f7420616c6c6f776564000000000000604082015260600190565b6020808252602c908201527f42657420616d6f756e74206d7573742062652067726561746572207468616e2060408201526b1b5a5b90995d105b5bdd5b9d60a21b606082015260800190565b634e487b7160e01b600052603260045260246000fd5b600081600019048311821515161561376457613764613655565b500290565b60008261378657634e487b7160e01b600052601260045260246000fd5b500490565b600060001982141561379f5761379f613655565b5060010190565b6020808252818101527f4f776e61626c653a2063616c6c6572206973206e6f7420746865206f776e6572604082015260600190565b60208082526016908201527543616e6e6f74206265207a65726f206164647265737360501b604082015260600190565b60008282101561381d5761381d613655565b500390565b634e487b7160e01b600052604160045260246000fd5b60208082526031908201527f43616e206f6e6c792072756e2061667465722067656e657369735374617274526040820152701bdd5b99081a5cc81d1c9a59d9d95c9959607a1b606082015260800190565b60006020828403121561389b57600080fd5b8151801515811461313957600080fd5b60005b838110156138c65781810151838201526020016138ae565b838111156138d5576000848401525b50505050565b600082516138ed8184602087016138ab565b9190910192915050565b60208152600082518060208401526139168160408501602087016138ab565b601f01601f1916919091016040019291505056fea264697066735822122018122faf7c982f5e1337b7d644f0c935d2c1d69357e13b9002c0aa157902468864736f6c634300080a0033",
  "immutableReferences": {},
  "source": "/**\r\n *Submitted for verification at BscScan.com on 2021-08-24\r\n*/\r\n\r\n// SPDX-License-Identifier: MIT\r\n\r\npragma solidity ^0.8.0;\r\n\r\n/*\r\n * @dev Provides information about the current execution context, including the\r\n * sender of the transaction and its data. While these are generally available\r\n * via msg.sender and msg.data, they should not be accessed in such a direct\r\n * manner, since when dealing with meta-transactions the account sending and\r\n * paying for execution may not be the actual sender (as far as an application\r\n * is concerned).\r\n *\r\n * This contract is only required for intermediate, library-like contracts.\r\n */\r\nabstract contract Context {\r\n    function _msgSender() internal view virtual returns (address) {\r\n        return msg.sender;\r\n    }\r\n\r\n    function _msgData() internal view virtual returns (bytes calldata) {\r\n        return msg.data;\r\n    }\r\n}\r\n\r\npragma solidity ^0.8.0;\r\n\r\n/**\r\n * @dev Contract module which provides a basic access control mechanism, where\r\n * there is an account (an owner) that can be granted exclusive access to\r\n * specific functions.\r\n *\r\n * By default, the owner account will be the one that deploys the contract. This\r\n * can later be changed with {transferOwnership}.\r\n *\r\n * This module is used through inheritance. It will make available the modifier\r\n * `onlyOwner`, which can be applied to your functions to restrict their use to\r\n * the owner.\r\n */\r\nabstract contract Ownable is Context {\r\n    address private _owner;\r\n\r\n    event OwnershipTransferred(address indexed previousOwner, address indexed newOwner);\r\n\r\n    /**\r\n     * @dev Initializes the contract setting the deployer as the initial owner.\r\n     */\r\n    constructor() {\r\n        _setOwner(_msgSender());\r\n    }\r\n\r\n    /**\r\n     * @dev Returns the address of the current owner.\r\n     */\r\n    function owner() public view virtual returns (address) {\r\n        return _owner;\r\n    }\r\n\r\n    /**\r\n     * @dev Throws if called by any account other than the owner.\r\n     */\r\n    modifier onlyOwner() {\r\n        require(owner() == _msgSender(), \"Ownable: caller is not the owner\");\r\n        _;\r\n    }\r\n\r\n    /**\r\n     * @dev Leaves the contract without owner. It will not be possible to call\r\n     * `onlyOwner` functions anymore. Can only be called by the current owner.\r\n     *\r\n     * NOTE: Renouncing ownership will leave the contract without an owner,\r\n     * thereby removing any functionality that is only available to the owner.\r\n     */\r\n    function renounceOwnership() public virtual onlyOwner {\r\n        _setOwner(address(0));\r\n    }\r\n\r\n    /**\r\n     * @dev Transfers ownership of the contract to a new account (`newOwner`).\r\n     * Can only be called by the current owner.\r\n     */\r\n    function transferOwnership(address newOwner) public virtual onlyOwner {\r\n        require(newOwner != address(0), \"Ownable: new owner is the zero address\");\r\n        _setOwner(newOwner);\r\n    }\r\n\r\n    function _setOwner(address newOwner) private {\r\n        address oldOwner = _owner;\r\n        _owner = newOwner;\r\n        emit OwnershipTransferred(oldOwner, newOwner);\r\n    }\r\n}\r\n\r\npragma solidity ^0.8.0;\r\n\r\n/**\r\n * @dev Contract module which allows children to implement an emergency stop\r\n * mechanism that can be triggered by an authorized account.\r\n *\r\n * This module is used through inheritance. It will make available the\r\n * modifiers `whenNotPaused` and `whenPaused`, which can be applied to\r\n * the functions of your contract. Note that they will not be pausable by\r\n * simply including this module, only once the modifiers are put in place.\r\n */\r\nabstract contract Pausable is Context {\r\n    /**\r\n     * @dev Emitted when the pause is triggered by `account`.\r\n     */\r\n    event Paused(address account);\r\n\r\n    /**\r\n     * @dev Emitted when the pause is lifted by `account`.\r\n     */\r\n    event Unpaused(address account);\r\n\r\n    bool private _paused;\r\n\r\n    /**\r\n     * @dev Initializes the contract in unpaused state.\r\n     */\r\n    constructor() {\r\n        _paused = false;\r\n    }\r\n\r\n    /**\r\n     * @dev Returns true if the contract is paused, and false otherwise.\r\n     */\r\n    function paused() public view virtual returns (bool) {\r\n        return _paused;\r\n    }\r\n\r\n    /**\r\n     * @dev Modifier to make a function callable only when the contract is not paused.\r\n     *\r\n     * Requirements:\r\n     *\r\n     * - The contract must not be paused.\r\n     */\r\n    modifier whenNotPaused() {\r\n        require(!paused(), \"Pausable: paused\");\r\n        _;\r\n    }\r\n\r\n    /**\r\n     * @dev Modifier to make a function callable only when the contract is paused.\r\n     *\r\n     * Requirements:\r\n     *\r\n     * - The contract must be paused.\r\n     */\r\n    modifier whenPaused() {\r\n        require(paused(), \"Pausable: not paused\");\r\n        _;\r\n    }\r\n\r\n    /**\r\n     * @dev Triggers stopped state.\r\n     *\r\n     * Requirements:\r\n     *\r\n     * - The contract must not be paused.\r\n     */\r\n    function _pause() internal virtual whenNotPaused {\r\n        _paused = true;\r\n        emit Paused(_msgSender());\r\n    }\r\n\r\n    /**\r\n     * @dev Returns to normal state.\r\n     *\r\n     * Requirements:\r\n     *\r\n     * - The contract must be paused.\r\n     */\r\n    function _unpause() internal virtual whenPaused {\r\n        _paused = false;\r\n        emit Unpaused(_msgSender());\r\n    }\r\n}\r\n\r\npragma solidity ^0.8.0;\r\n\r\n/**\r\n * @dev Contract module that helps prevent reentrant calls to a function.\r\n *\r\n * Inheriting from `ReentrancyGuard` will make the {nonReentrant} modifier\r\n * available, which can be applied to functions to make sure there are no nested\r\n * (reentrant) calls to them.\r\n *\r\n * Note that because there is a single `nonReentrant` guard, functions marked as\r\n * `nonReentrant` may not call one another. This can be worked around by making\r\n * those functions `private`, and then adding `external` `nonReentrant` entry\r\n * points to them.\r\n *\r\n * TIP: If you would like to learn more about reentrancy and alternative ways\r\n * to protect against it, check out our blog post\r\n * https://blog.openzeppelin.com/reentrancy-after-istanbul/[Reentrancy After Istanbul].\r\n */\r\nabstract contract ReentrancyGuard {\r\n    // Booleans are more expensive than uint256 or any type that takes up a full\r\n    // word because each write operation emits an extra SLOAD to first read the\r\n    // slot's contents, replace the bits taken up by the boolean, and then write\r\n    // back. This is the compiler's defense against contract upgrades and\r\n    // pointer aliasing, and it cannot be disabled.\r\n\r\n    // The values being non-zero value makes deployment a bit more expensive,\r\n    // but in exchange the refund on every call to nonReentrant will be lower in\r\n    // amount. Since refunds are capped to a percentage of the total\r\n    // transaction's gas, it is best to keep them low in cases like this one, to\r\n    // increase the likelihood of the full refund coming into effect.\r\n    uint256 private constant _NOT_ENTERED = 1;\r\n    uint256 private constant _ENTERED = 2;\r\n\r\n    uint256 private _status;\r\n\r\n    constructor() {\r\n        _status = _NOT_ENTERED;\r\n    }\r\n\r\n    /**\r\n     * @dev Prevents a contract from calling itself, directly or indirectly.\r\n     * Calling a `nonReentrant` function from another `nonReentrant`\r\n     * function is not supported. It is possible to prevent this from happening\r\n     * by making the `nonReentrant` function external, and make it call a\r\n     * `private` function that does the actual work.\r\n     */\r\n    modifier nonReentrant() {\r\n        // On the first call to nonReentrant, _notEntered will be true\r\n        require(_status != _ENTERED, \"ReentrancyGuard: reentrant call\");\r\n\r\n        // Any calls to nonReentrant after this point will fail\r\n        _status = _ENTERED;\r\n\r\n        _;\r\n\r\n        // By storing the original value once again, a refund is triggered (see\r\n        // https://eips.ethereum.org/EIPS/eip-2200)\r\n        _status = _NOT_ENTERED;\r\n    }\r\n}\r\n\r\npragma solidity ^0.8.0;\r\n\r\n/**\r\n * @dev Interface of the ERC20 standard as defined in the EIP.\r\n */\r\ninterface IERC20 {\r\n    /**\r\n     * @dev Returns the amount of tokens in existence.\r\n     */\r\n    function totalSupply() external view returns (uint256);\r\n\r\n    /**\r\n     * @dev Returns the amount of tokens owned by `account`.\r\n     */\r\n    function balanceOf(address account) external view returns (uint256);\r\n\r\n    /**\r\n     * @dev Moves `amount` tokens from the caller's account to `recipient`.\r\n     *\r\n     * Returns a boolean value indicating whether the operation succeeded.\r\n     *\r\n     * Emits a {Transfer} event.\r\n     */\r\n    function transfer(address recipient, uint256 amount) external returns (bool);\r\n\r\n    /**\r\n     * @dev Returns the remaining number of tokens that `spender` will be\r\n     * allowed to spend on behalf of `owner` through {transferFrom}. This is\r\n     * zero by default.\r\n     *\r\n     * This value changes when {approve} or {transferFrom} are called.\r\n     */\r\n    function allowance(address owner, address spender) external view returns (uint256);\r\n\r\n    /**\r\n     * @dev Sets `amount` as the allowance of `spender` over the caller's tokens.\r\n     *\r\n     * Returns a boolean value indicating whether the operation succeeded.\r\n     *\r\n     * IMPORTANT: Beware that changing an allowance with this method brings the risk\r\n     * that someone may use both the old and the new allowance by unfortunate\r\n     * transaction ordering. One possible solution to mitigate this race\r\n     * condition is to first reduce the spender's allowance to 0 and set the\r\n     * desired value afterwards:\r\n     * https://github.com/ethereum/EIPs/issues/20#issuecomment-263524729\r\n     *\r\n     * Emits an {Approval} event.\r\n     */\r\n    function approve(address spender, uint256 amount) external returns (bool);\r\n\r\n    /**\r\n     * @dev Moves `amount` tokens from `sender` to `recipient` using the\r\n     * allowance mechanism. `amount` is then deducted from the caller's\r\n     * allowance.\r\n     *\r\n     * Returns a boolean value indicating whether the operation succeeded.\r\n     *\r\n     * Emits a {Transfer} event.\r\n     */\r\n    function transferFrom(\r\n        address sender,\r\n        address recipient,\r\n        uint256 amount\r\n    ) external returns (bool);\r\n\r\n    /**\r\n     * @dev Emitted when `value` tokens are moved from one account (`from`) to\r\n     * another (`to`).\r\n     *\r\n     * Note that `value` may be zero.\r\n     */\r\n    event Transfer(address indexed from, address indexed to, uint256 value);\r\n\r\n    /**\r\n     * @dev Emitted when the allowance of a `spender` for an `owner` is set by\r\n     * a call to {approve}. `value` is the new allowance.\r\n     */\r\n    event Approval(address indexed owner, address indexed spender, uint256 value);\r\n}\r\n\r\npragma solidity ^0.8.0;\r\n\r\n/**\r\n * @dev Collection of functions related to the address type\r\n */\r\nlibrary Address {\r\n    /**\r\n     * @dev Returns true if `account` is a contract.\r\n     *\r\n     * [IMPORTANT]\r\n     * ====\r\n     * It is unsafe to assume that an address for which this function returns\r\n     * false is an externally-owned account (EOA) and not a contract.\r\n     *\r\n     * Among others, `isContract` will return false for the following\r\n     * types of addresses:\r\n     *\r\n     *  - an externally-owned account\r\n     *  - a contract in construction\r\n     *  - an address where a contract will be created\r\n     *  - an address where a contract lived, but was destroyed\r\n     * ====\r\n     */\r\n    function isContract(address account) internal view returns (bool) {\r\n        // This method relies on extcodesize, which returns 0 for contracts in\r\n        // construction, since the code is only stored at the end of the\r\n        // constructor execution.\r\n\r\n        uint256 size;\r\n        assembly {\r\n            size := extcodesize(account)\r\n        }\r\n        return size > 0;\r\n    }\r\n\r\n    /**\r\n     * @dev Replacement for Solidity's `transfer`: sends `amount` wei to\r\n     * `recipient`, forwarding all available gas and reverting on errors.\r\n     *\r\n     * https://eips.ethereum.org/EIPS/eip-1884[EIP1884] increases the gas cost\r\n     * of certain opcodes, possibly making contracts go over the 2300 gas limit\r\n     * imposed by `transfer`, making them unable to receive funds via\r\n     * `transfer`. {sendValue} removes this limitation.\r\n     *\r\n     * https://diligence.consensys.net/posts/2019/09/stop-using-soliditys-transfer-now/[Learn more].\r\n     *\r\n     * IMPORTANT: because control is transferred to `recipient`, care must be\r\n     * taken to not create reentrancy vulnerabilities. Consider using\r\n     * {ReentrancyGuard} or the\r\n     * https://solidity.readthedocs.io/en/v0.5.11/security-considerations.html#use-the-checks-effects-interactions-pattern[checks-effects-interactions pattern].\r\n     */\r\n    function sendValue(address payable recipient, uint256 amount) internal {\r\n        require(address(this).balance >= amount, \"Address: insufficient balance\");\r\n\r\n        (bool success, ) = recipient.call{value: amount}(\"\");\r\n        require(success, \"Address: unable to send value, recipient may have reverted\");\r\n    }\r\n\r\n    /**\r\n     * @dev Performs a Solidity function call using a low level `call`. A\r\n     * plain `call` is an unsafe replacement for a function call: use this\r\n     * function instead.\r\n     *\r\n     * If `target` reverts with a revert reason, it is bubbled up by this\r\n     * function (like regular Solidity function calls).\r\n     *\r\n     * Returns the raw returned data. To convert to the expected return value,\r\n     * use https://solidity.readthedocs.io/en/latest/units-and-global-variables.html?highlight=abi.decode#abi-encoding-and-decoding-functions[`abi.decode`].\r\n     *\r\n     * Requirements:\r\n     *\r\n     * - `target` must be a contract.\r\n     * - calling `target` with `data` must not revert.\r\n     *\r\n     * _Available since v3.1._\r\n     */\r\n    function functionCall(address target, bytes memory data) internal returns (bytes memory) {\r\n        return functionCall(target, data, \"Address: low-level call failed\");\r\n    }\r\n\r\n    /**\r\n     * @dev Same as {xref-Address-functionCall-address-bytes-}[`functionCall`], but with\r\n     * `errorMessage` as a fallback revert reason when `target` reverts.\r\n     *\r\n     * _Available since v3.1._\r\n     */\r\n    function functionCall(\r\n        address target,\r\n        bytes memory data,\r\n        string memory errorMessage\r\n    ) internal returns (bytes memory) {\r\n        return functionCallWithValue(target, data, 0, errorMessage);\r\n    }\r\n\r\n    /**\r\n     * @dev Same as {xref-Address-functionCall-address-bytes-}[`functionCall`],\r\n     * but also transferring `value` wei to `target`.\r\n     *\r\n     * Requirements:\r\n     *\r\n     * - the calling contract must have an ETH balance of at least `value`.\r\n     * - the called Solidity function must be `payable`.\r\n     *\r\n     * _Available since v3.1._\r\n     */\r\n    function functionCallWithValue(\r\n        address target,\r\n        bytes memory data,\r\n        uint256 value\r\n    ) internal returns (bytes memory) {\r\n        return functionCallWithValue(target, data, value, \"Address: low-level call with value failed\");\r\n    }\r\n\r\n    /**\r\n     * @dev Same as {xref-Address-functionCallWithValue-address-bytes-uint256-}[`functionCallWithValue`], but\r\n     * with `errorMessage` as a fallback revert reason when `target` reverts.\r\n     *\r\n     * _Available since v3.1._\r\n     */\r\n    function functionCallWithValue(\r\n        address target,\r\n        bytes memory data,\r\n        uint256 value,\r\n        string memory errorMessage\r\n    ) internal returns (bytes memory) {\r\n        require(address(this).balance >= value, \"Address: insufficient balance for call\");\r\n        require(isContract(target), \"Address: call to non-contract\");\r\n\r\n        (bool success, bytes memory returndata) = target.call{value: value}(data);\r\n        return _verifyCallResult(success, returndata, errorMessage);\r\n    }\r\n\r\n    /**\r\n     * @dev Same as {xref-Address-functionCall-address-bytes-}[`functionCall`],\r\n     * but performing a static call.\r\n     *\r\n     * _Available since v3.3._\r\n     */\r\n    function functionStaticCall(address target, bytes memory data) internal view returns (bytes memory) {\r\n        return functionStaticCall(target, data, \"Address: low-level static call failed\");\r\n    }\r\n\r\n    /**\r\n     * @dev Same as {xref-Address-functionCall-address-bytes-string-}[`functionCall`],\r\n     * but performing a static call.\r\n     *\r\n     * _Available since v3.3._\r\n     */\r\n    function functionStaticCall(\r\n        address target,\r\n        bytes memory data,\r\n        string memory errorMessage\r\n    ) internal view returns (bytes memory) {\r\n        require(isContract(target), \"Address: static call to non-contract\");\r\n\r\n        (bool success, bytes memory returndata) = target.staticcall(data);\r\n        return _verifyCallResult(success, returndata, errorMessage);\r\n    }\r\n\r\n    /**\r\n     * @dev Same as {xref-Address-functionCall-address-bytes-}[`functionCall`],\r\n     * but performing a delegate call.\r\n     *\r\n     * _Available since v3.4._\r\n     */\r\n    function functionDelegateCall(address target, bytes memory data) internal returns (bytes memory) {\r\n        return functionDelegateCall(target, data, \"Address: low-level delegate call failed\");\r\n    }\r\n\r\n    /**\r\n     * @dev Same as {xref-Address-functionCall-address-bytes-string-}[`functionCall`],\r\n     * but performing a delegate call.\r\n     *\r\n     * _Available since v3.4._\r\n     */\r\n    function functionDelegateCall(\r\n        address target,\r\n        bytes memory data,\r\n        string memory errorMessage\r\n    ) internal returns (bytes memory) {\r\n        require(isContract(target), \"Address: delegate call to non-contract\");\r\n\r\n        (bool success, bytes memory returndata) = target.delegatecall(data);\r\n        return _verifyCallResult(success, returndata, errorMessage);\r\n    }\r\n\r\n    function _verifyCallResult(\r\n        bool success,\r\n        bytes memory returndata,\r\n        string memory errorMessage\r\n    ) private pure returns (bytes memory) {\r\n        if (success) {\r\n            return returndata;\r\n        } else {\r\n            // Look for revert reason and bubble it up if present\r\n            if (returndata.length > 0) {\r\n                // The easiest way to bubble the revert reason is using memory via assembly\r\n\r\n                assembly {\r\n                    let returndata_size := mload(returndata)\r\n                    revert(add(32, returndata), returndata_size)\r\n                }\r\n            } else {\r\n                revert(errorMessage);\r\n            }\r\n        }\r\n    }\r\n}\r\n\r\npragma solidity ^0.8.0;\r\n\r\n\r\n/**\r\n * @title SafeERC20\r\n * @dev Wrappers around ERC20 operations that throw on failure (when the token\r\n * contract returns false). Tokens that return no value (and instead revert or\r\n * throw on failure) are also supported, non-reverting calls are assumed to be\r\n * successful.\r\n * To use this library you can add a `using SafeERC20 for IERC20;` statement to your contract,\r\n * which allows you to call the safe operations as `token.safeTransfer(...)`, etc.\r\n */\r\nlibrary SafeERC20 {\r\n    using Address for address;\r\n\r\n    function safeTransfer(\r\n        IERC20 token,\r\n        address to,\r\n        uint256 value\r\n    ) internal {\r\n        _callOptionalReturn(token, abi.encodeWithSelector(token.transfer.selector, to, value));\r\n    }\r\n\r\n    function safeTransferFrom(\r\n        IERC20 token,\r\n        address from,\r\n        address to,\r\n        uint256 value\r\n    ) internal {\r\n        _callOptionalReturn(token, abi.encodeWithSelector(token.transferFrom.selector, from, to, value));\r\n    }\r\n\r\n    /**\r\n     * @dev Deprecated. This function has issues similar to the ones found in\r\n     * {IERC20-approve}, and its usage is discouraged.\r\n     *\r\n     * Whenever possible, use {safeIncreaseAllowance} and\r\n     * {safeDecreaseAllowance} instead.\r\n     */\r\n    function safeApprove(\r\n        IERC20 token,\r\n        address spender,\r\n        uint256 value\r\n    ) internal {\r\n        // safeApprove should only be called when setting an initial allowance,\r\n        // or when resetting it to zero. To increase and decrease it, use\r\n        // 'safeIncreaseAllowance' and 'safeDecreaseAllowance'\r\n        require(\r\n            (value == 0) || (token.allowance(address(this), spender) == 0),\r\n            \"SafeERC20: approve from non-zero to non-zero allowance\"\r\n        );\r\n        _callOptionalReturn(token, abi.encodeWithSelector(token.approve.selector, spender, value));\r\n    }\r\n\r\n    function safeIncreaseAllowance(\r\n        IERC20 token,\r\n        address spender,\r\n        uint256 value\r\n    ) internal {\r\n        uint256 newAllowance = token.allowance(address(this), spender) + value;\r\n        _callOptionalReturn(token, abi.encodeWithSelector(token.approve.selector, spender, newAllowance));\r\n    }\r\n\r\n    function safeDecreaseAllowance(\r\n        IERC20 token,\r\n        address spender,\r\n        uint256 value\r\n    ) internal {\r\n        unchecked {\r\n            uint256 oldAllowance = token.allowance(address(this), spender);\r\n            require(oldAllowance >= value, \"SafeERC20: decreased allowance below zero\");\r\n            uint256 newAllowance = oldAllowance - value;\r\n            _callOptionalReturn(token, abi.encodeWithSelector(token.approve.selector, spender, newAllowance));\r\n        }\r\n    }\r\n\r\n    /**\r\n     * @dev Imitates a Solidity high-level call (i.e. a regular function call to a contract), relaxing the requirement\r\n     * on the return value: the return value is optional (but if data is returned, it must not be false).\r\n     * @param token The token targeted by the call.\r\n     * @param data The call data (encoded using abi.encode or one of its variants).\r\n     */\r\n    function _callOptionalReturn(IERC20 token, bytes memory data) private {\r\n        // We need to perform a low level call here, to bypass Solidity's return data size checking mechanism, since\r\n        // we're implementing it ourselves. We use {Address.functionCall} to perform this call, which verifies that\r\n        // the target address contains contract code and also asserts for success in the low-level call.\r\n\r\n        bytes memory returndata = address(token).functionCall(data, \"SafeERC20: low-level call failed\");\r\n        if (returndata.length > 0) {\r\n            // Return data is optional\r\n            require(abi.decode(returndata, (bool)), \"SafeERC20: ERC20 operation did not succeed\");\r\n        }\r\n    }\r\n}\r\n\r\npragma solidity ^0.8.0;\r\n\r\ninterface AggregatorV3Interface {\r\n\r\n  function decimals()\r\n    external\r\n    view\r\n    returns (\r\n      uint8\r\n    );\r\n\r\n  function description()\r\n    external\r\n    view\r\n    returns (\r\n      string memory\r\n    );\r\n\r\n  function version()\r\n    external\r\n    view\r\n    returns (\r\n      uint256\r\n    );\r\n\r\n  // getRoundData and latestRoundData should both raise \"No data present\"\r\n  // if they do not have data to report, instead of returning unset values\r\n  // which could be misinterpreted as actual reported values.\r\n  function getRoundData(\r\n    uint80 _roundId\r\n  )\r\n    external\r\n    view\r\n    returns (\r\n      uint80 roundId,\r\n      int256 answer,\r\n      uint256 startedAt,\r\n      uint256 updatedAt,\r\n      uint80 answeredInRound\r\n    );\r\n\r\n  function latestRoundData()\r\n    external\r\n    view\r\n    returns (\r\n      uint80 roundId,\r\n      int256 answer,\r\n      uint256 startedAt,\r\n      uint256 updatedAt,\r\n      uint80 answeredInRound\r\n    );\r\n\r\n}\r\n\r\npragma solidity ^0.8.0;\r\npragma abicoder v2;\r\n\r\n/**\r\n * @title PancakePredictionV2\r\n */\r\ncontract PancakePredictionV2 is Ownable, Pausable, ReentrancyGuard {\r\n    using SafeERC20 for IERC20;\r\n\r\n    AggregatorV3Interface public oracle;\r\n\r\n    bool public genesisLockOnce = false;\r\n    bool public genesisStartOnce = false;\r\n\r\n    address public adminAddress; // address of the admin\r\n    address public operatorAddress; // address of the operator\r\n\r\n    uint256 public bufferSeconds; // number of seconds for valid execution of a prediction round\r\n    uint256 public intervalSeconds; // interval in seconds between two prediction rounds\r\n\r\n    uint256 public minBetAmount; // minimum betting amount (denominated in wei)\r\n    uint256 public treasuryFee; // treasury rate (e.g. 200 = 2%, 150 = 1.50%)\r\n    uint256 public treasuryAmount; // treasury amount that was not claimed\r\n\r\n    uint256 public currentEpoch; // current epoch for prediction round\r\n\r\n    uint256 public oracleLatestRoundId; // converted from uint80 (Chainlink)\r\n    uint256 public oracleUpdateAllowance; // seconds\r\n\r\n    uint256 public constant MAX_TREASURY_FEE = 1000; // 10%\r\n    \r\n    mapping(uint256 => mapping(address => BetInfo)) public ledger;\r\n    mapping(uint256 => Round) public rounds;\r\n    mapping(address => uint256[]) public userRounds;\r\n\r\n    enum Position {\r\n        Bull,\r\n        Bear\r\n    }\r\n\r\n    struct Round {\r\n        uint256 epoch;\r\n        uint256 startTimestamp;\r\n        uint256 lockTimestamp;\r\n        uint256 closeTimestamp;\r\n        int256 lockPrice;\r\n        int256 closePrice;\r\n        uint256 lockOracleId;\r\n        uint256 closeOracleId;\r\n        uint256 totalAmount;\r\n        uint256 bullAmount;\r\n        uint256 bearAmount;\r\n        uint256 rewardBaseCalAmount;\r\n        uint256 rewardAmount;\r\n        bool oracleCalled;\r\n    }\r\n\r\n    struct BetInfo {\r\n        Position position;\r\n        uint256 amount;\r\n        bool claimed; // default false\r\n    }\r\n\r\n    event BetBear(address indexed sender, uint256 indexed epoch, uint256 amount);\r\n    event BetBull(address indexed sender, uint256 indexed epoch, uint256 amount);\r\n    event Claim(address indexed sender, uint256 indexed epoch, uint256 amount);\r\n    event EndRound(uint256 indexed epoch, uint256 indexed roundId, int256 price);\r\n    event LockRound(uint256 indexed epoch, uint256 indexed roundId, int256 price);\r\n\r\n    event NewAdminAddress(address admin);\r\n    event NewBufferAndIntervalSeconds(uint256 bufferSeconds, uint256 intervalSeconds);\r\n    event NewMinBetAmount(uint256 indexed epoch, uint256 minBetAmount);\r\n    event NewTreasuryFee(uint256 indexed epoch, uint256 treasuryFee);\r\n    event NewOperatorAddress(address operator);\r\n    event NewOracle(address oracle);\r\n    event NewOracleUpdateAllowance(uint256 oracleUpdateAllowance);\r\n\r\n    event Pause(uint256 indexed epoch);\r\n    event RewardsCalculated(\r\n        uint256 indexed epoch,\r\n        uint256 rewardBaseCalAmount,\r\n        uint256 rewardAmount,\r\n        uint256 treasuryAmount\r\n    );\r\n\r\n    event StartRound(uint256 indexed epoch);\r\n    event TokenRecovery(address indexed token, uint256 amount);\r\n    event TreasuryClaim(uint256 amount);\r\n    event Unpause(uint256 indexed epoch);\r\n\r\n    modifier onlyAdmin() {\r\n        require(msg.sender == adminAddress, \"Not admin\");\r\n        _;\r\n    }\r\n\r\n    modifier onlyAdminOrOperator() {\r\n        require(msg.sender == adminAddress || msg.sender == operatorAddress, \"Not operator/admin\");\r\n        _;\r\n    }\r\n\r\n    modifier onlyOperator() {\r\n        require(msg.sender == operatorAddress, \"Not operator\");\r\n        _;\r\n    }\r\n\r\n    modifier notContract() {\r\n        require(!_isContract(msg.sender), \"Contract not allowed\");\r\n        require(msg.sender == tx.origin, \"Proxy contract not allowed\");\r\n        _;\r\n    }\r\n\r\n    /**\r\n     * @notice Constructor\r\n     * @param _oracleAddress: oracle address\r\n     * @param _adminAddress: admin address\r\n     * @param _operatorAddress: operator address\r\n     * @param _intervalSeconds: number of time within an interval\r\n     * @param _bufferSeconds: buffer of time for resolution of price\r\n     * @param _minBetAmount: minimum bet amounts (in wei)\r\n     * @param _oracleUpdateAllowance: oracle update allowance\r\n     * @param _treasuryFee: treasury fee (1000 = 10%)\r\n     */\r\n    constructor(\r\n        address _oracleAddress,\r\n        address _adminAddress,\r\n        address _operatorAddress,\r\n        uint256 _intervalSeconds,\r\n        uint256 _bufferSeconds,\r\n        uint256 _minBetAmount,\r\n        uint256 _oracleUpdateAllowance,\r\n        uint256 _treasuryFee\r\n    ) {\r\n        require(_treasuryFee <= MAX_TREASURY_FEE, \"Treasury fee too high\");\r\n\r\n        oracle = AggregatorV3Interface(_oracleAddress);\r\n        adminAddress = _adminAddress;\r\n        operatorAddress = _operatorAddress;\r\n        intervalSeconds = _intervalSeconds;\r\n        bufferSeconds = _bufferSeconds;\r\n        minBetAmount = _minBetAmount;\r\n        oracleUpdateAllowance = _oracleUpdateAllowance;\r\n        treasuryFee = _treasuryFee;\r\n    }\r\n\r\n    /**\r\n     * @notice Bet bear position\r\n     * @param epoch: epoch\r\n     */\r\n    function betBear(uint256 epoch) external payable whenNotPaused nonReentrant notContract {\r\n        require(epoch == currentEpoch, \"Bet is too early/late\");\r\n        require(_bettable(epoch), \"Round not bettable\");\r\n        require(msg.value >= minBetAmount, \"Bet amount must be greater than minBetAmount\");\r\n        require(ledger[epoch][msg.sender].amount == 0, \"Can only bet once per round\");\r\n\r\n        // Update round data\r\n        uint256 amount = msg.value;\r\n        Round storage round = rounds[epoch];\r\n        round.totalAmount = round.totalAmount + amount;\r\n        round.bearAmount = round.bearAmount + amount;\r\n\r\n        // Update user data\r\n        BetInfo storage betInfo = ledger[epoch][msg.sender];\r\n        betInfo.position = Position.Bear;\r\n        betInfo.amount = amount;\r\n        userRounds[msg.sender].push(epoch);\r\n\r\n        emit BetBear(msg.sender, epoch, amount);\r\n    }\r\n\r\n    /**\r\n     * @notice Bet bull position\r\n     * @param epoch: epoch\r\n     */\r\n    function betBull(uint256 epoch) external payable whenNotPaused nonReentrant notContract {\r\n        require(epoch == currentEpoch, \"Bet is too early/late\");\r\n        require(_bettable(epoch), \"Round not bettable\");\r\n        require(msg.value >= minBetAmount, \"Bet amount must be greater than minBetAmount\");\r\n        require(ledger[epoch][msg.sender].amount == 0, \"Can only bet once per round\");\r\n\r\n        // Update round data\r\n        uint256 amount = msg.value;\r\n        Round storage round = rounds[epoch];\r\n        round.totalAmount = round.totalAmount + amount;\r\n        round.bullAmount = round.bullAmount + amount;\r\n\r\n        // Update user data\r\n        BetInfo storage betInfo = ledger[epoch][msg.sender];\r\n        betInfo.position = Position.Bull;\r\n        betInfo.amount = amount;\r\n        userRounds[msg.sender].push(epoch);\r\n\r\n        emit BetBull(msg.sender, epoch, amount);\r\n    }\r\n\r\n    /**\r\n     * @notice Claim reward for an array of epochs\r\n     * @param epochs: array of epochs\r\n     */\r\n    function claim(uint256[] calldata epochs) external nonReentrant notContract {\r\n        uint256 reward; // Initializes reward\r\n\r\n        for (uint256 i = 0; i < epochs.length; i++) {\r\n            require(rounds[epochs[i]].startTimestamp != 0, \"Round has not started\");\r\n            require(block.timestamp > rounds[epochs[i]].closeTimestamp, \"Round has not ended\");\r\n\r\n            uint256 addedReward = 0;\r\n\r\n            // Round valid, claim rewards\r\n            if (rounds[epochs[i]].oracleCalled) {\r\n                require(claimable(epochs[i], msg.sender), \"Not eligible for claim\");\r\n                Round memory round = rounds[epochs[i]];\r\n                addedReward = (ledger[epochs[i]][msg.sender].amount * round.rewardAmount) / round.rewardBaseCalAmount;\r\n            }\r\n            // Round invalid, refund bet amount\r\n            else {\r\n                require(refundable(epochs[i], msg.sender), \"Not eligible for refund\");\r\n                addedReward = ledger[epochs[i]][msg.sender].amount;\r\n            }\r\n\r\n            ledger[epochs[i]][msg.sender].claimed = true;\r\n            reward += addedReward;\r\n\r\n            emit Claim(msg.sender, epochs[i], addedReward);\r\n        }\r\n\r\n        if (reward > 0) {\r\n            _safeTransferBNB(address(msg.sender), reward);\r\n        }\r\n    }\r\n\r\n    /**\r\n     * @notice Start the next round n, lock price for round n-1, end round n-2\r\n     * @dev Callable by operator\r\n     */\r\n    function executeRound() external whenNotPaused onlyAdminOrOperator {\r\n        require(\r\n            genesisStartOnce && genesisLockOnce,\r\n            \"Can only run after genesisStartRound and genesisLockRound is triggered\"\r\n        );\r\n\r\n        (uint80 currentRoundId, int256 currentPrice) = _getPriceFromOracle();\r\n\r\n        oracleLatestRoundId = uint256(currentRoundId);\r\n\r\n        // CurrentEpoch refers to previous round (n-1)\r\n        _safeLockRound(currentEpoch, currentRoundId, currentPrice);\r\n        _safeEndRound(currentEpoch - 1, currentRoundId, currentPrice);\r\n        _calculateRewards(currentEpoch - 1);\r\n\r\n        // Increment currentEpoch to current round (n)\r\n        currentEpoch = currentEpoch + 1;\r\n        _safeStartRound(currentEpoch);\r\n    }\r\n\r\n    /**\r\n     * @notice Lock genesis round\r\n     * @dev Callable by operator\r\n     */\r\n    function genesisLockRound() external whenNotPaused onlyAdminOrOperator {\r\n        require(genesisStartOnce, \"Can only run after genesisStartRound is triggered\");\r\n        require(!genesisLockOnce, \"Can only run genesisLockRound once\");\r\n\r\n        (uint80 currentRoundId, int256 currentPrice) = _getPriceFromOracle();\r\n\r\n        oracleLatestRoundId = uint256(currentRoundId);\r\n\r\n        _safeLockRound(currentEpoch, currentRoundId, currentPrice);\r\n\r\n        currentEpoch = currentEpoch + 1;\r\n        _startRound(currentEpoch);\r\n        genesisLockOnce = true;\r\n    }\r\n\r\n    /**\r\n     * @notice Start genesis round\r\n     * @dev Callable by admin or operator\r\n     */\r\n    function genesisStartRound() external whenNotPaused onlyAdminOrOperator {\r\n        require(!genesisStartOnce, \"Can only run genesisStartRound once\");\r\n\r\n        currentEpoch = currentEpoch + 1;\r\n        _startRound(currentEpoch);\r\n        genesisStartOnce = true;\r\n    }\r\n    /**\r\n     * @notice called by the admin to pause, triggers stopped state\r\n     * @dev Callable by admin or operator\r\n     */\r\n    function pause() external whenNotPaused onlyAdminOrOperator {\r\n        _pause();\r\n\r\n        emit Pause(currentEpoch);\r\n    }\r\n\r\n    /**\r\n     * @notice Claim all rewards in treasury\r\n     * @dev Callable by admin\r\n     */\r\n    function claimTreasury() external nonReentrant onlyAdmin {\r\n        uint256 currentTreasuryAmount = treasuryAmount;\r\n        treasuryAmount = 0;\r\n        _safeTransferBNB(adminAddress, currentTreasuryAmount);\r\n\r\n        emit TreasuryClaim(currentTreasuryAmount);\r\n    }\r\n\r\n    /**\r\n     * @notice called by the admin to unpause, returns to normal state\r\n     * Reset genesis state. Once paused, the rounds would need to be kickstarted by genesis\r\n     */\r\n    function unpause() external whenPaused onlyAdmin {\r\n        genesisStartOnce = false;\r\n        genesisLockOnce = false;\r\n        _unpause();\r\n\r\n        emit Unpause(currentEpoch);\r\n    }\r\n\r\n    /**\r\n     * @notice Set buffer and interval (in seconds)\r\n     * @dev Callable by admin\r\n     */\r\n    function setBufferAndIntervalSeconds(uint256 _bufferSeconds, uint256 _intervalSeconds)\r\n        external\r\n        whenPaused\r\n        onlyAdmin\r\n    {\r\n        require(_bufferSeconds < _intervalSeconds, \"bufferSeconds must be inferior to intervalSeconds\");\r\n        bufferSeconds = _bufferSeconds;\r\n        intervalSeconds = _intervalSeconds;\r\n\r\n        emit NewBufferAndIntervalSeconds(_bufferSeconds, _intervalSeconds);\r\n    }\r\n\r\n    /**\r\n     * @notice Set minBetAmount\r\n     * @dev Callable by admin\r\n     */\r\n    function setMinBetAmount(uint256 _minBetAmount) external whenPaused onlyAdmin {\r\n        require(_minBetAmount != 0, \"Must be superior to 0\");\r\n        minBetAmount = _minBetAmount;\r\n\r\n        emit NewMinBetAmount(currentEpoch, minBetAmount);\r\n    }\r\n\r\n    /**\r\n     * @notice Set operator address\r\n     * @dev Callable by admin\r\n     */\r\n    function setOperator(address _operatorAddress) external onlyAdmin {\r\n        require(_operatorAddress != address(0), \"Cannot be zero address\");\r\n        operatorAddress = _operatorAddress;\r\n\r\n        emit NewOperatorAddress(_operatorAddress);\r\n    }\r\n\r\n    /**\r\n     * @notice Set Oracle address\r\n     * @dev Callable by admin\r\n     */\r\n    function setOracle(address _oracle) external whenPaused onlyAdmin {\r\n        require(_oracle != address(0), \"Cannot be zero address\");\r\n        oracleLatestRoundId = 0;\r\n        oracle = AggregatorV3Interface(_oracle);\r\n\r\n        // Dummy check to make sure the interface implements this function properly\r\n        oracle.latestRoundData();\r\n\r\n        emit NewOracle(_oracle);\r\n    }\r\n\r\n    /**\r\n     * @notice Set oracle update allowance\r\n     * @dev Callable by admin\r\n     */\r\n    function setOracleUpdateAllowance(uint256 _oracleUpdateAllowance) external whenPaused onlyAdmin {\r\n        oracleUpdateAllowance = _oracleUpdateAllowance;\r\n\r\n        emit NewOracleUpdateAllowance(_oracleUpdateAllowance);\r\n    }\r\n\r\n    /**\r\n     * @notice Set treasury fee\r\n     * @dev Callable by admin\r\n     */\r\n    function setTreasuryFee(uint256 _treasuryFee) external whenPaused onlyAdmin {\r\n        require(_treasuryFee <= MAX_TREASURY_FEE, \"Treasury fee too high\");\r\n        treasuryFee = _treasuryFee;\r\n\r\n        emit NewTreasuryFee(currentEpoch, treasuryFee);\r\n    }\r\n\r\n    /**\r\n     * @notice It allows the owner to recover tokens sent to the contract by mistake\r\n     * @param _token: token address\r\n     * @param _amount: token amount\r\n     * @dev Callable by owner\r\n     */\r\n    function recoverToken(address _token, uint256 _amount) external onlyOwner {\r\n        IERC20(_token).safeTransfer(address(msg.sender), _amount);\r\n\r\n        emit TokenRecovery(_token, _amount);\r\n    }\r\n\r\n    /**\r\n     * @notice Set admin address\r\n     * @dev Callable by owner\r\n     */\r\n    function setAdmin(address _adminAddress) external onlyOwner {\r\n        require(_adminAddress != address(0), \"Cannot be zero address\");\r\n        adminAddress = _adminAddress;\r\n\r\n        emit NewAdminAddress(_adminAddress);\r\n    }\r\n\r\n    /**\r\n     * @notice Returns round epochs and bet information for a user that has participated\r\n     * @param user: user address\r\n     * @param cursor: cursor\r\n     * @param size: size\r\n     */\r\n    function getUserRounds(\r\n        address user,\r\n        uint256 cursor,\r\n        uint256 size\r\n    )\r\n        external\r\n        view\r\n        returns (\r\n            uint256[] memory,\r\n            BetInfo[] memory,\r\n            uint256\r\n        )\r\n    {\r\n        uint256 length = size;\r\n\r\n        if (length > userRounds[user].length - cursor) {\r\n            length = userRounds[user].length - cursor;\r\n        }\r\n\r\n        uint256[] memory values = new uint256[](length);\r\n        BetInfo[] memory betInfo = new BetInfo[](length);\r\n\r\n        for (uint256 i = 0; i < length; i++) {\r\n            values[i] = userRounds[user][cursor + i];\r\n            betInfo[i] = ledger[values[i]][user];\r\n        }\r\n\r\n        return (values, betInfo, cursor + length);\r\n    }\r\n\r\n    /**\r\n     * @notice Returns round epochs length\r\n     * @param user: user address\r\n     */\r\n    function getUserRoundsLength(address user) external view returns (uint256) {\r\n        return userRounds[user].length;\r\n    }\r\n\r\n    /**\r\n     * @notice Get the claimable stats of specific epoch and user account\r\n     * @param epoch: epoch\r\n     * @param user: user address\r\n     */\r\n    function claimable(uint256 epoch, address user) public view returns (bool) {\r\n        BetInfo memory betInfo = ledger[epoch][user];\r\n        Round memory round = rounds[epoch];\r\n        if (round.lockPrice == round.closePrice) {\r\n            return false;\r\n        }\r\n        return\r\n            round.oracleCalled &&\r\n            betInfo.amount != 0 &&\r\n            !betInfo.claimed &&\r\n            ((round.closePrice > round.lockPrice && betInfo.position == Position.Bull) ||\r\n                (round.closePrice < round.lockPrice && betInfo.position == Position.Bear));\r\n    }\r\n\r\n    /**\r\n     * @notice Get the refundable stats of specific epoch and user account\r\n     * @param epoch: epoch\r\n     * @param user: user address\r\n     */\r\n    function refundable(uint256 epoch, address user) public view returns (bool) {\r\n        BetInfo memory betInfo = ledger[epoch][user];\r\n        Round memory round = rounds[epoch];\r\n        return\r\n            !round.oracleCalled &&\r\n            !betInfo.claimed &&\r\n            block.timestamp > round.closeTimestamp + bufferSeconds &&\r\n            betInfo.amount != 0;\r\n    }\r\n\r\n    /**\r\n     * @notice Calculate rewards for round\r\n     * @param epoch: epoch\r\n     */\r\n    function _calculateRewards(uint256 epoch) internal {\r\n        require(rounds[epoch].rewardBaseCalAmount == 0 && rounds[epoch].rewardAmount == 0, \"Rewards calculated\");\r\n        Round storage round = rounds[epoch];\r\n        uint256 rewardBaseCalAmount;\r\n        uint256 treasuryAmt;\r\n        uint256 rewardAmount;\r\n\r\n        // Bull wins\r\n        if (round.closePrice > round.lockPrice) {\r\n            rewardBaseCalAmount = round.bullAmount;\r\n            treasuryAmt = (round.totalAmount * treasuryFee) / 10000;\r\n            rewardAmount = round.totalAmount - treasuryAmt;\r\n        }\r\n        // Bear wins\r\n        else if (round.closePrice < round.lockPrice) {\r\n            rewardBaseCalAmount = round.bearAmount;\r\n            treasuryAmt = (round.totalAmount * treasuryFee) / 10000;\r\n            rewardAmount = round.totalAmount - treasuryAmt;\r\n        }\r\n        // House wins\r\n        else {\r\n            rewardBaseCalAmount = 0;\r\n            rewardAmount = 0;\r\n            treasuryAmt = round.totalAmount;\r\n        }\r\n        round.rewardBaseCalAmount = rewardBaseCalAmount;\r\n        round.rewardAmount = rewardAmount;\r\n\r\n        // Add to treasury\r\n        treasuryAmount += treasuryAmt;\r\n\r\n        emit RewardsCalculated(epoch, rewardBaseCalAmount, rewardAmount, treasuryAmt);\r\n    }\r\n\r\n    /**\r\n     * @notice End round\r\n     * @param epoch: epoch\r\n     * @param roundId: roundId\r\n     * @param price: price of the round\r\n     */\r\n    function _safeEndRound(\r\n        uint256 epoch,\r\n        uint256 roundId,\r\n        int256 price\r\n    ) internal {\r\n        require(rounds[epoch].lockTimestamp != 0, \"Can only end round after round has locked\");\r\n        require(block.timestamp >= rounds[epoch].closeTimestamp, \"Can only end round after closeTimestamp\");\r\n        require(\r\n            block.timestamp <= rounds[epoch].closeTimestamp + bufferSeconds,\r\n            \"Can only end round within bufferSeconds\"\r\n        );\r\n        Round storage round = rounds[epoch];\r\n        round.closePrice = price;\r\n        round.closeOracleId = roundId;\r\n        round.oracleCalled = true;\r\n\r\n        emit EndRound(epoch, roundId, round.closePrice);\r\n    }\r\n\r\n    /**\r\n     * @notice Lock round\r\n     * @param epoch: epoch\r\n     * @param roundId: roundId\r\n     * @param price: price of the round\r\n     */\r\n    function _safeLockRound(\r\n        uint256 epoch,\r\n        uint256 roundId,\r\n        int256 price\r\n    ) internal {\r\n        require(rounds[epoch].startTimestamp != 0, \"Can only lock round after round has started\");\r\n        require(block.timestamp >= rounds[epoch].lockTimestamp, \"Can only lock round after lockTimestamp\");\r\n        require(\r\n            block.timestamp <= rounds[epoch].lockTimestamp + bufferSeconds,\r\n            \"Can only lock round within bufferSeconds\"\r\n        );\r\n        Round storage round = rounds[epoch];\r\n        round.closeTimestamp = block.timestamp + intervalSeconds;\r\n        round.lockPrice = price;\r\n        round.lockOracleId = roundId;\r\n\r\n        emit LockRound(epoch, roundId, round.lockPrice);\r\n    }\r\n\r\n    /**\r\n     * @notice Start round\r\n     * Previous round n-2 must end\r\n     * @param epoch: epoch\r\n     */\r\n    function _safeStartRound(uint256 epoch) internal {\r\n        require(genesisStartOnce, \"Can only run after genesisStartRound is triggered\");\r\n        require(rounds[epoch - 2].closeTimestamp != 0, \"Can only start round after round n-2 has ended\");\r\n        require(\r\n            block.timestamp >= rounds[epoch - 2].closeTimestamp,\r\n            \"Can only start new round after round n-2 closeTimestamp\"\r\n        );\r\n        _startRound(epoch);\r\n    }\r\n\r\n    /**\r\n     * @notice Transfer BNB in a safe way\r\n     * @param to: address to transfer BNB to\r\n     * @param value: BNB amount to transfer (in wei)\r\n     */\r\n    function _safeTransferBNB(address to, uint256 value) internal {\r\n        (bool success, ) = to.call{value: value}(\"\");\r\n        require(success, \"TransferHelper: BNB_TRANSFER_FAILED\");\r\n    }\r\n\r\n    /**\r\n     * @notice Start round\r\n     * Previous round n-2 must end\r\n     * @param epoch: epoch\r\n     */\r\n    function _startRound(uint256 epoch) internal {\r\n        Round storage round = rounds[epoch];\r\n        round.startTimestamp = block.timestamp;\r\n        round.lockTimestamp = block.timestamp + intervalSeconds;\r\n        round.closeTimestamp = block.timestamp + (2 * intervalSeconds);\r\n        round.epoch = epoch;\r\n        round.totalAmount = 0;\r\n\r\n        emit StartRound(epoch);\r\n    }\r\n\r\n    /**\r\n     * @notice Determine if a round is valid for receiving bets\r\n     * Round must have started and locked\r\n     * Current timestamp must be within startTimestamp and closeTimestamp\r\n     */\r\n    function _bettable(uint256 epoch) internal view returns (bool) {\r\n        return\r\n            rounds[epoch].startTimestamp != 0 &&\r\n            rounds[epoch].lockTimestamp != 0 &&\r\n            block.timestamp > rounds[epoch].startTimestamp &&\r\n            block.timestamp < rounds[epoch].lockTimestamp;\r\n    }\r\n\r\n    /**\r\n     * @notice Get latest recorded price from oracle\r\n     * If it falls below allowed buffer or has not updated, it would be invalid.\r\n     */\r\n    function _getPriceFromOracleView() external view returns (uint256) {\r\n\r\n        (uint80 roundId, , , , ) = oracle.latestRoundData();\r\n        return (roundId);\r\n    }\r\n         \r\n    function _getPriceFromOracle() internal view returns (uint80, int256) {\r\n        uint256 leastAllowedTimestamp = block.timestamp + oracleUpdateAllowance;\r\n        (uint80 roundId, int256 price, , uint256 timestamp, ) = oracle.latestRoundData();\r\n        require(timestamp <= leastAllowedTimestamp, \"Oracle update exceeded max timestamp allowance\");\r\n        require(\r\n            uint256(roundId) >= oracleLatestRoundId,\r\n            \"Oracle update roundId must be larger than oracleLatestRoundId\"\r\n        );\r\n        return (roundId, price);\r\n    }\r\n\r\n    /**\r\n     * @notice Returns true if `account` is a contract.\r\n     * @param account: account address\r\n     */\r\n    function _isContract(address account) internal view returns (bool) {\r\n        uint256 size;\r\n        assembly {\r\n            size := extcodesize(account)\r\n        }\r\n        return size > 0;\r\n    }\r\n}",
  "sourcePath": "G:\\Node Projects\\Betting-Project\\betting-prediction-fork\\backend\\contracts\\PancakePredictionV2.sol",
  "compiler": {
    "name": "solc",
    "version": "0.8.10+commit.fc410830.Emscripten.clang"
  },
  "schemaVersion": "3.4.4",
  "updatedAt": "2022-02-14T16:03:01.052Z",
  "devdoc": {
    "kind": "dev",
    "methods": {
      "betBear(uint256)": {
        "params": {
          "epoch": ": epoch"
        }
      },
      "betBull(uint256)": {
        "params": {
          "epoch": ": epoch"
        }
      },
      "claim(uint256[])": {
        "params": {
          "epochs": ": array of epochs"
        }
      },
      "claimTreasury()": {
        "details": "Callable by admin"
      },
      "claimable(uint256,address)": {
        "params": {
          "epoch": ": epoch",
          "user": ": user address"
        }
      },
      "constructor": {
        "params": {
          "_adminAddress": ": admin address",
          "_bufferSeconds": ": buffer of time for resolution of price",
          "_intervalSeconds": ": number of time within an interval",
          "_minBetAmount": ": minimum bet amounts (in wei)",
          "_operatorAddress": ": operator address",
          "_oracleAddress": ": oracle address",
          "_oracleUpdateAllowance": ": oracle update allowance",
          "_treasuryFee": ": treasury fee (1000 = 10%)"
        }
      },
      "executeRound()": {
        "details": "Callable by operator"
      },
      "genesisLockRound()": {
        "details": "Callable by operator"
      },
      "genesisStartRound()": {
        "details": "Callable by admin or operator"
      },
      "getUserRounds(address,uint256,uint256)": {
        "params": {
          "cursor": ": cursor",
          "size": ": size",
          "user": ": user address"
        }
      },
      "getUserRoundsLength(address)": {
        "params": {
          "user": ": user address"
        }
      },
      "owner()": {
        "details": "Returns the address of the current owner."
      },
      "pause()": {
        "details": "Callable by admin or operator"
      },
      "paused()": {
        "details": "Returns true if the contract is paused, and false otherwise."
      },
      "recoverToken(address,uint256)": {
        "details": "Callable by owner",
        "params": {
          "_amount": ": token amount",
          "_token": ": token address"
        }
      },
      "refundable(uint256,address)": {
        "params": {
          "epoch": ": epoch",
          "user": ": user address"
        }
      },
      "renounceOwnership()": {
        "details": "Leaves the contract without owner. It will not be possible to call `onlyOwner` functions anymore. Can only be called by the current owner. NOTE: Renouncing ownership will leave the contract without an owner, thereby removing any functionality that is only available to the owner."
      },
      "setAdmin(address)": {
        "details": "Callable by owner"
      },
      "setBufferAndIntervalSeconds(uint256,uint256)": {
        "details": "Callable by admin"
      },
      "setMinBetAmount(uint256)": {
        "details": "Callable by admin"
      },
      "setOperator(address)": {
        "details": "Callable by admin"
      },
      "setOracle(address)": {
        "details": "Callable by admin"
      },
      "setOracleUpdateAllowance(uint256)": {
        "details": "Callable by admin"
      },
      "setTreasuryFee(uint256)": {
        "details": "Callable by admin"
      },
      "transferOwnership(address)": {
        "details": "Transfers ownership of the contract to a new account (`newOwner`). Can only be called by the current owner."
      }
    },
    "title": "PancakePredictionV2",
    "version": 1
  },
  "userdoc": {
    "kind": "user",
    "methods": {
      "_getPriceFromOracleView()": {
        "notice": "Get latest recorded price from oracle If it falls below allowed buffer or has not updated, it would be invalid."
      },
      "betBear(uint256)": {
        "notice": "Bet bear position"
      },
      "betBull(uint256)": {
        "notice": "Bet bull position"
      },
      "claim(uint256[])": {
        "notice": "Claim reward for an array of epochs"
      },
      "claimTreasury()": {
        "notice": "Claim all rewards in treasury"
      },
      "claimable(uint256,address)": {
        "notice": "Get the claimable stats of specific epoch and user account"
      },
      "constructor": {
        "notice": "Constructor"
      },
      "executeRound()": {
        "notice": "Start the next round n, lock price for round n-1, end round n-2"
      },
      "genesisLockRound()": {
        "notice": "Lock genesis round"
      },
      "genesisStartRound()": {
        "notice": "Start genesis round"
      },
      "getUserRounds(address,uint256,uint256)": {
        "notice": "Returns round epochs and bet information for a user that has participated"
      },
      "getUserRoundsLength(address)": {
        "notice": "Returns round epochs length"
      },
      "pause()": {
        "notice": "called by the admin to pause, triggers stopped state"
      },
      "recoverToken(address,uint256)": {
        "notice": "It allows the owner to recover tokens sent to the contract by mistake"
      },
      "refundable(uint256,address)": {
        "notice": "Get the refundable stats of specific epoch and user account"
      },
      "setAdmin(address)": {
        "notice": "Set admin address"
      },
      "setBufferAndIntervalSeconds(uint256,uint256)": {
        "notice": "Set buffer and interval (in seconds)"
      },
      "setMinBetAmount(uint256)": {
        "notice": "Set minBetAmount"
      },
      "setOperator(address)": {
        "notice": "Set operator address"
      },
      "setOracle(address)": {
        "notice": "Set Oracle address"
      },
      "setOracleUpdateAllowance(uint256)": {
        "notice": "Set oracle update allowance"
      },
      "setTreasuryFee(uint256)": {
        "notice": "Set treasury fee"
      },
      "unpause()": {
        "notice": "called by the admin to unpause, returns to normal state Reset genesis state. Once paused, the rounds would need to be kickstarted by genesis"
      }
    },
    "version": 1
  }
}