{
  "contractName": "PancakePredictionV2",
  "abi": [
    {
      "inputs": [
        {
          "internalType": "address",
          "name": "_oracleAddress",
          "type": "address"
        },
        {
          "internalType": "address",
          "name": "_adminAddress",
          "type": "address"
        },
        {
          "internalType": "address",
          "name": "_operatorAddress",
          "type": "address"
        },
        {
          "internalType": "uint256",
          "name": "_intervalSeconds",
          "type": "uint256"
        },
        {
          "internalType": "uint256",
          "name": "_bufferSeconds",
          "type": "uint256"
        },
        {
          "internalType": "uint256",
          "name": "_minBetAmount",
          "type": "uint256"
        },
        {
          "internalType": "uint256",
          "name": "_oracleUpdateAllowance",
          "type": "uint256"
        },
        {
          "internalType": "uint256",
          "name": "_treasuryFee",
          "type": "uint256"
        }
      ],
      "stateMutability": "nonpayable",
      "type": "constructor"
    },
    {
      "anonymous": false,
      "inputs": [
        {
          "indexed": true,
          "internalType": "address",
          "name": "sender",
          "type": "address"
        },
        {
          "indexed": true,
          "internalType": "uint256",
          "name": "epoch",
          "type": "uint256"
        },
        {
          "indexed": false,
          "internalType": "uint256",
          "name": "amount",
          "type": "uint256"
        }
      ],
      "name": "BetBear",
      "type": "event"
    },
    {
      "anonymous": false,
      "inputs": [
        {
          "indexed": true,
          "internalType": "address",
          "name": "sender",
          "type": "address"
        },
        {
          "indexed": true,
          "internalType": "uint256",
          "name": "epoch",
          "type": "uint256"
        },
        {
          "indexed": false,
          "internalType": "uint256",
          "name": "amount",
          "type": "uint256"
        }
      ],
      "name": "BetBull",
      "type": "event"
    },
    {
      "anonymous": false,
      "inputs": [
        {
          "indexed": true,
          "internalType": "address",
          "name": "sender",
          "type": "address"
        },
        {
          "indexed": true,
          "internalType": "uint256",
          "name": "epoch",
          "type": "uint256"
        },
        {
          "indexed": false,
          "internalType": "uint256",
          "name": "amount",
          "type": "uint256"
        }
      ],
      "name": "Claim",
      "type": "event"
    },
    {
      "anonymous": false,
      "inputs": [
        {
          "indexed": true,
          "internalType": "uint256",
          "name": "epoch",
          "type": "uint256"
        },
        {
          "indexed": true,
          "internalType": "uint256",
          "name": "roundId",
          "type": "uint256"
        },
        {
          "indexed": false,
          "internalType": "int256",
          "name": "price",
          "type": "int256"
        }
      ],
      "name": "EndRound",
      "type": "event"
    },
    {
      "anonymous": false,
      "inputs": [
        {
          "indexed": true,
          "internalType": "uint256",
          "name": "epoch",
          "type": "uint256"
        },
        {
          "indexed": true,
          "internalType": "uint256",
          "name": "roundId",
          "type": "uint256"
        },
        {
          "indexed": false,
          "internalType": "int256",
          "name": "price",
          "type": "int256"
        }
      ],
      "name": "LockRound",
      "type": "event"
    },
    {
      "anonymous": false,
      "inputs": [
        {
          "indexed": false,
          "internalType": "address",
          "name": "admin",
          "type": "address"
        }
      ],
      "name": "NewAdminAddress",
      "type": "event"
    },
    {
      "anonymous": false,
      "inputs": [
        {
          "indexed": false,
          "internalType": "uint256",
          "name": "bufferSeconds",
          "type": "uint256"
        },
        {
          "indexed": false,
          "internalType": "uint256",
          "name": "intervalSeconds",
          "type": "uint256"
        }
      ],
      "name": "NewBufferAndIntervalSeconds",
      "type": "event"
    },
    {
      "anonymous": false,
      "inputs": [
        {
          "indexed": true,
          "internalType": "uint256",
          "name": "epoch",
          "type": "uint256"
        },
        {
          "indexed": false,
          "internalType": "uint256",
          "name": "minBetAmount",
          "type": "uint256"
        }
      ],
      "name": "NewMinBetAmount",
      "type": "event"
    },
    {
      "anonymous": false,
      "inputs": [
        {
          "indexed": false,
          "internalType": "address",
          "name": "operator",
          "type": "address"
        }
      ],
      "name": "NewOperatorAddress",
      "type": "event"
    },
    {
      "anonymous": false,
      "inputs": [
        {
          "indexed": false,
          "internalType": "address",
          "name": "oracle",
          "type": "address"
        }
      ],
      "name": "NewOracle",
      "type": "event"
    },
    {
      "anonymous": false,
      "inputs": [
        {
          "indexed": false,
          "internalType": "uint256",
          "name": "oracleUpdateAllowance",
          "type": "uint256"
        }
      ],
      "name": "NewOracleUpdateAllowance",
      "type": "event"
    },
    {
      "anonymous": false,
      "inputs": [
        {
          "indexed": true,
          "internalType": "uint256",
          "name": "epoch",
          "type": "uint256"
        },
        {
          "indexed": false,
          "internalType": "uint256",
          "name": "treasuryFee",
          "type": "uint256"
        }
      ],
      "name": "NewTreasuryFee",
      "type": "event"
    },
    {
      "anonymous": false,
      "inputs": [
        {
          "indexed": true,
          "internalType": "address",
          "name": "previousOwner",
          "type": "address"
        },
        {
          "indexed": true,
          "internalType": "address",
          "name": "newOwner",
          "type": "address"
        }
      ],
      "name": "OwnershipTransferred",
      "type": "event"
    },
    {
      "anonymous": false,
      "inputs": [
        {
          "indexed": true,
          "internalType": "uint256",
          "name": "epoch",
          "type": "uint256"
        }
      ],
      "name": "Pause",
      "type": "event"
    },
    {
      "anonymous": false,
      "inputs": [
        {
          "indexed": false,
          "internalType": "address",
          "name": "account",
          "type": "address"
        }
      ],
      "name": "Paused",
      "type": "event"
    },
    {
      "anonymous": false,
      "inputs": [
        {
          "indexed": true,
          "internalType": "uint256",
          "name": "epoch",
          "type": "uint256"
        },
        {
          "indexed": false,
          "internalType": "uint256",
          "name": "rewardBaseCalAmount",
          "type": "uint256"
        },
        {
          "indexed": false,
          "internalType": "uint256",
          "name": "rewardAmount",
          "type": "uint256"
        },
        {
          "indexed": false,
          "internalType": "uint256",
          "name": "treasuryAmount",
          "type": "uint256"
        }
      ],
      "name": "RewardsCalculated",
      "type": "event"
    },
    {
      "anonymous": false,
      "inputs": [
        {
          "indexed": true,
          "internalType": "uint256",
          "name": "epoch",
          "type": "uint256"
        }
      ],
      "name": "StartRound",
      "type": "event"
    },
    {
      "anonymous": false,
      "inputs": [
        {
          "indexed": true,
          "internalType": "address",
          "name": "token",
          "type": "address"
        },
        {
          "indexed": false,
          "internalType": "uint256",
          "name": "amount",
          "type": "uint256"
        }
      ],
      "name": "TokenRecovery",
      "type": "event"
    },
    {
      "anonymous": false,
      "inputs": [
        {
          "indexed": false,
          "internalType": "uint256",
          "name": "amount",
          "type": "uint256"
        }
      ],
      "name": "TreasuryClaim",
      "type": "event"
    },
    {
      "anonymous": false,
      "inputs": [
        {
          "indexed": true,
          "internalType": "uint256",
          "name": "epoch",
          "type": "uint256"
        }
      ],
      "name": "Unpause",
      "type": "event"
    },
    {
      "anonymous": false,
      "inputs": [
        {
          "indexed": false,
          "internalType": "address",
          "name": "account",
          "type": "address"
        }
      ],
      "name": "Unpaused",
      "type": "event"
    },
    {
      "inputs": [],
      "name": "MAX_TREASURY_FEE",
      "outputs": [
        {
          "internalType": "uint256",
          "name": "",
          "type": "uint256"
        }
      ],
      "stateMutability": "view",
      "type": "function",
      "constant": true
    },
    {
      "inputs": [],
      "name": "adminAddress",
      "outputs": [
        {
          "internalType": "address",
          "name": "",
          "type": "address"
        }
      ],
      "stateMutability": "view",
      "type": "function",
      "constant": true
    },
    {
      "inputs": [],
      "name": "bufferSeconds",
      "outputs": [
        {
          "internalType": "uint256",
          "name": "",
          "type": "uint256"
        }
      ],
      "stateMutability": "view",
      "type": "function",
      "constant": true
    },
    {
      "inputs": [],
      "name": "currentEpoch",
      "outputs": [
        {
          "internalType": "uint256",
          "name": "",
          "type": "uint256"
        }
      ],
      "stateMutability": "view",
      "type": "function",
      "constant": true
    },
    {
      "inputs": [],
      "name": "genesisLockOnce",
      "outputs": [
        {
          "internalType": "bool",
          "name": "",
          "type": "bool"
        }
      ],
      "stateMutability": "view",
      "type": "function",
      "constant": true
    },
    {
      "inputs": [],
      "name": "genesisStartOnce",
      "outputs": [
        {
          "internalType": "bool",
          "name": "",
          "type": "bool"
        }
      ],
      "stateMutability": "view",
      "type": "function",
      "constant": true
    },
    {
      "inputs": [],
      "name": "intervalSeconds",
      "outputs": [
        {
          "internalType": "uint256",
          "name": "",
          "type": "uint256"
        }
      ],
      "stateMutability": "view",
      "type": "function",
      "constant": true
    },
    {
      "inputs": [
        {
          "internalType": "uint256",
          "name": "",
          "type": "uint256"
        },
        {
          "internalType": "address",
          "name": "",
          "type": "address"
        }
      ],
      "name": "ledger",
      "outputs": [
        {
          "internalType": "enum PancakePredictionV2.Position",
          "name": "position",
          "type": "uint8"
        },
        {
          "internalType": "uint256",
          "name": "amount",
          "type": "uint256"
        },
        {
          "internalType": "bool",
          "name": "claimed",
          "type": "bool"
        }
      ],
      "stateMutability": "view",
      "type": "function",
      "constant": true
    },
    {
      "inputs": [],
      "name": "minBetAmount",
      "outputs": [
        {
          "internalType": "uint256",
          "name": "",
          "type": "uint256"
        }
      ],
      "stateMutability": "view",
      "type": "function",
      "constant": true
    },
    {
      "inputs": [],
      "name": "operatorAddress",
      "outputs": [
        {
          "internalType": "address",
          "name": "",
          "type": "address"
        }
      ],
      "stateMutability": "view",
      "type": "function",
      "constant": true
    },
    {
      "inputs": [],
      "name": "oracle",
      "outputs": [
        {
          "internalType": "contract AggregatorV3Interface",
          "name": "",
          "type": "address"
        }
      ],
      "stateMutability": "view",
      "type": "function",
      "constant": true
    },
    {
      "inputs": [],
      "name": "oracleLatestRoundId",
      "outputs": [
        {
          "internalType": "uint256",
          "name": "",
          "type": "uint256"
        }
      ],
      "stateMutability": "view",
      "type": "function",
      "constant": true
    },
    {
      "inputs": [],
      "name": "oracleUpdateAllowance",
      "outputs": [
        {
          "internalType": "uint256",
          "name": "",
          "type": "uint256"
        }
      ],
      "stateMutability": "view",
      "type": "function",
      "constant": true
    },
    {
      "inputs": [],
      "name": "owner",
      "outputs": [
        {
          "internalType": "address",
          "name": "",
          "type": "address"
        }
      ],
      "stateMutability": "view",
      "type": "function",
      "constant": true
    },
    {
      "inputs": [],
      "name": "paused",
      "outputs": [
        {
          "internalType": "bool",
          "name": "",
          "type": "bool"
        }
      ],
      "stateMutability": "view",
      "type": "function",
      "constant": true
    },
    {
      "inputs": [],
      "name": "renounceOwnership",
      "outputs": [],
      "stateMutability": "nonpayable",
      "type": "function"
    },
    {
      "inputs": [
        {
          "internalType": "uint256",
          "name": "",
          "type": "uint256"
        }
      ],
      "name": "rounds",
      "outputs": [
        {
          "internalType": "uint256",
          "name": "epoch",
          "type": "uint256"
        },
        {
          "internalType": "uint256",
          "name": "startTimestamp",
          "type": "uint256"
        },
        {
          "internalType": "uint256",
          "name": "lockTimestamp",
          "type": "uint256"
        },
        {
          "internalType": "uint256",
          "name": "closeTimestamp",
          "type": "uint256"
        },
        {
          "internalType": "int256",
          "name": "lockPrice",
          "type": "int256"
        },
        {
          "internalType": "int256",
          "name": "closePrice",
          "type": "int256"
        },
        {
          "internalType": "uint256",
          "name": "lockOracleId",
          "type": "uint256"
        },
        {
          "internalType": "uint256",
          "name": "closeOracleId",
          "type": "uint256"
        },
        {
          "internalType": "uint256",
          "name": "totalAmount",
          "type": "uint256"
        },
        {
          "internalType": "uint256",
          "name": "bullAmount",
          "type": "uint256"
        },
        {
          "internalType": "uint256",
          "name": "bearAmount",
          "type": "uint256"
        },
        {
          "internalType": "uint256",
          "name": "rewardBaseCalAmount",
          "type": "uint256"
        },
        {
          "internalType": "uint256",
          "name": "rewardAmount",
          "type": "uint256"
        },
        {
          "internalType": "bool",
          "name": "oracleCalled",
          "type": "bool"
        }
      ],
      "stateMutability": "view",
      "type": "function",
      "constant": true
    },
    {
      "inputs": [
        {
          "internalType": "address",
          "name": "newOwner",
          "type": "address"
        }
      ],
      "name": "transferOwnership",
      "outputs": [],
      "stateMutability": "nonpayable",
      "type": "function"
    },
    {
      "inputs": [],
      "name": "treasuryAmount",
      "outputs": [
        {
          "internalType": "uint256",
          "name": "",
          "type": "uint256"
        }
      ],
      "stateMutability": "view",
      "type": "function",
      "constant": true
    },
    {
      "inputs": [],
      "name": "treasuryFee",
      "outputs": [
        {
          "internalType": "uint256",
          "name": "",
          "type": "uint256"
        }
      ],
      "stateMutability": "view",
      "type": "function",
      "constant": true
    },
    {
      "inputs": [
        {
          "internalType": "address",
          "name": "",
          "type": "address"
        },
        {
          "internalType": "uint256",
          "name": "",
          "type": "uint256"
        }
      ],
      "name": "userRounds",
      "outputs": [
        {
          "internalType": "uint256",
          "name": "",
          "type": "uint256"
        }
      ],
      "stateMutability": "view",
      "type": "function",
      "constant": true
    },
    {
      "inputs": [
        {
          "internalType": "uint256",
          "name": "epoch",
          "type": "uint256"
        }
      ],
      "name": "betBear",
      "outputs": [],
      "stateMutability": "payable",
      "type": "function",
      "payable": true
    },
    {
      "inputs": [
        {
          "internalType": "uint256",
          "name": "epoch",
          "type": "uint256"
        }
      ],
      "name": "betBull",
      "outputs": [],
      "stateMutability": "payable",
      "type": "function",
      "payable": true
    },
    {
      "inputs": [],
      "name": "getBalance",
      "outputs": [
        {
          "internalType": "uint256",
          "name": "",
          "type": "uint256"
        }
      ],
      "stateMutability": "view",
      "type": "function",
      "constant": true
    },
    {
      "inputs": [],
      "name": "deposit",
      "outputs": [],
      "stateMutability": "payable",
      "type": "function",
      "payable": true
    },
    {
      "inputs": [
        {
          "internalType": "uint256[]",
          "name": "epochs",
          "type": "uint256[]"
        }
      ],
      "name": "claim",
      "outputs": [],
      "stateMutability": "nonpayable",
      "type": "function"
    },
    {
      "inputs": [],
      "name": "executeRound",
      "outputs": [],
      "stateMutability": "nonpayable",
      "type": "function"
    },
    {
      "inputs": [],
      "name": "genesisLockRound",
      "outputs": [],
      "stateMutability": "nonpayable",
      "type": "function"
    },
    {
      "inputs": [],
      "name": "genesisStartRound",
      "outputs": [],
      "stateMutability": "nonpayable",
      "type": "function"
    },
    {
      "inputs": [],
      "name": "pause",
      "outputs": [],
      "stateMutability": "nonpayable",
      "type": "function"
    },
    {
      "inputs": [],
      "name": "claimTreasury",
      "outputs": [],
      "stateMutability": "nonpayable",
      "type": "function"
    },
    {
      "inputs": [],
      "name": "unpause",
      "outputs": [],
      "stateMutability": "nonpayable",
      "type": "function"
    },
    {
      "inputs": [
        {
          "internalType": "uint256",
          "name": "_bufferSeconds",
          "type": "uint256"
        },
        {
          "internalType": "uint256",
          "name": "_intervalSeconds",
          "type": "uint256"
        }
      ],
      "name": "setBufferAndIntervalSeconds",
      "outputs": [],
      "stateMutability": "nonpayable",
      "type": "function"
    },
    {
      "inputs": [
        {
          "internalType": "uint256",
          "name": "_minBetAmount",
          "type": "uint256"
        }
      ],
      "name": "setMinBetAmount",
      "outputs": [],
      "stateMutability": "nonpayable",
      "type": "function"
    },
    {
      "inputs": [
        {
          "internalType": "address",
          "name": "_operatorAddress",
          "type": "address"
        }
      ],
      "name": "setOperator",
      "outputs": [],
      "stateMutability": "nonpayable",
      "type": "function"
    },
    {
      "inputs": [
        {
          "internalType": "address",
          "name": "_oracle",
          "type": "address"
        }
      ],
      "name": "setOracle",
      "outputs": [],
      "stateMutability": "nonpayable",
      "type": "function"
    },
    {
      "inputs": [
        {
          "internalType": "uint256",
          "name": "_oracleUpdateAllowance",
          "type": "uint256"
        }
      ],
      "name": "setOracleUpdateAllowance",
      "outputs": [],
      "stateMutability": "nonpayable",
      "type": "function"
    },
    {
      "inputs": [
        {
          "internalType": "uint256",
          "name": "_treasuryFee",
          "type": "uint256"
        }
      ],
      "name": "setTreasuryFee",
      "outputs": [],
      "stateMutability": "nonpayable",
      "type": "function"
    },
    {
      "inputs": [
        {
          "internalType": "address",
          "name": "_token",
          "type": "address"
        },
        {
          "internalType": "uint256",
          "name": "_amount",
          "type": "uint256"
        }
      ],
      "name": "recoverToken",
      "outputs": [],
      "stateMutability": "nonpayable",
      "type": "function"
    },
    {
      "inputs": [
        {
          "internalType": "address",
          "name": "_adminAddress",
          "type": "address"
        }
      ],
      "name": "setAdmin",
      "outputs": [],
      "stateMutability": "nonpayable",
      "type": "function"
    },
    {
      "inputs": [
        {
          "internalType": "address",
          "name": "user",
          "type": "address"
        },
        {
          "internalType": "uint256",
          "name": "cursor",
          "type": "uint256"
        },
        {
          "internalType": "uint256",
          "name": "size",
          "type": "uint256"
        }
      ],
      "name": "getUserRounds",
      "outputs": [
        {
          "internalType": "uint256[]",
          "name": "",
          "type": "uint256[]"
        },
        {
          "components": [
            {
              "internalType": "enum PancakePredictionV2.Position",
              "name": "position",
              "type": "uint8"
            },
            {
              "internalType": "uint256",
              "name": "amount",
              "type": "uint256"
            },
            {
              "internalType": "bool",
              "name": "claimed",
              "type": "bool"
            }
          ],
          "internalType": "struct PancakePredictionV2.BetInfo[]",
          "name": "",
          "type": "tuple[]"
        },
        {
          "internalType": "uint256",
          "name": "",
          "type": "uint256"
        }
      ],
      "stateMutability": "view",
      "type": "function",
      "constant": true
    },
    {
      "inputs": [
        {
          "internalType": "address",
          "name": "user",
          "type": "address"
        }
      ],
      "name": "getUserRoundsLength",
      "outputs": [
        {
          "internalType": "uint256",
          "name": "",
          "type": "uint256"
        }
      ],
      "stateMutability": "view",
      "type": "function",
      "constant": true
    },
    {
      "inputs": [
        {
          "internalType": "uint256",
          "name": "epoch",
          "type": "uint256"
        },
        {
          "internalType": "address",
          "name": "user",
          "type": "address"
        }
      ],
      "name": "claimable",
      "outputs": [
        {
          "internalType": "bool",
          "name": "",
          "type": "bool"
        }
      ],
      "stateMutability": "view",
      "type": "function",
      "constant": true
    },
    {
      "inputs": [
        {
          "internalType": "uint256",
          "name": "epoch",
          "type": "uint256"
        },
        {
          "internalType": "address",
          "name": "user",
          "type": "address"
        }
      ],
      "name": "refundable",
      "outputs": [
        {
          "internalType": "bool",
          "name": "",
          "type": "bool"
        }
      ],
      "stateMutability": "view",
      "type": "function",
      "constant": true
    },
    {
      "inputs": [],
      "name": "_getPriceFromOracleView",
      "outputs": [
        {
          "internalType": "uint256",
          "name": "",
          "type": "uint256"
        }
      ],
      "stateMutability": "view",
      "type": "function",
      "constant": true
    }
  ],
  "bytecode": "0x60806040526002805461ffff60a01b191690553480156200001f57600080fd5b5060405162003b8e38038062003b8e83398101604081905262000042916200017e565b6200004d3362000111565b6000805460ff60a01b19169055600180556103e8811115620000b55760405162461bcd60e51b815260206004820152601560248201527f54726561737572792066656520746f6f20686967680000000000000000000000604482015260640160405180910390fd5b600280546001600160a01b03199081166001600160a01b039a8b1617909155600380548216988a1698909817909755600480549097169590971694909417909455600691909155600555600791909155600c55600855620001f9565b600080546001600160a01b038381166001600160a01b0319831681178455604051919092169283917f8be0079c531659141344cd1fd0a4f28419497f9722a3daafe3b4186f6b6457e09190a35050565b80516001600160a01b03811681146200017957600080fd5b919050565b600080600080600080600080610100898b0312156200019c57600080fd5b620001a78962000161565b9750620001b760208a0162000161565b9650620001c760408a0162000161565b9550606089015194506080890151935060a0890151925060c0890151915060e089015190509295985092959890939650565b61398580620002096000396000f3fe6080604052600436106102715760003560e01c80637d1cd04f1161014f578063cc32d176116100c1578063ec3247031161007a578063ec324703146107e7578063f2b3c809146107fd578063f2fde38b14610813578063f7fdec2814610833578063fa968eea14610854578063fc6f94681461086a57600080fd5b8063cc32d17614610766578063cf2f50391461077c578063d0e30db01461028b578063d9d55eac1461079c578063dd1f7596146107b1578063eaba2361146107d157600080fd5b80638da5cb5b116101135780638da5cb5b146106a6578063951fd600146106c4578063a0c7f71c146106f3578063aa6b873a14610713578063b29a814014610726578063b3ab15fb1461074657600080fd5b80637d1cd04f146105465780637dc0d1d01461055c5780638456cb591461057c578063890dc766146105915780638c65c81f146105b157600080fd5b806360554011116101e85780637285c58b116101ac5780637285c58b1461046057806376671808146104bb57806377e741c7146104d15780637adbf973146104f15780637b3205f5146105115780637bf412541461052657600080fd5b806360554011146103d55780636ba4c138146103eb5780636c1885931461040b578063704b6c021461042b578063715018a61461044b57600080fd5b8063368acb091161023a578063368acb091461034e5780633f4ba83a1461036457806344901ee614610379578063452fd75a1461038e57806357fb096f146103a35780635c975abb146103b657600080fd5b80623bdc74146102765780630f74174f1461028d57806312065fe0146102c3578063127effb2146102e0578063273867d414610318575b600080fd5b34801561028257600080fd5b5061028b61088a565b005b34801561029957600080fd5b506002546102ae90600160a01b900460ff1681565b60405190151581526020015b60405180910390f35b3480156102cf57600080fd5b50475b6040519081526020016102ba565b3480156102ec57600080fd5b50600454610300906001600160a01b031681565b6040516001600160a01b0390911681526020016102ba565b34801561032457600080fd5b506102d26103333660046132e2565b6001600160a01b03166000908152600f602052604090205490565b34801561035a57600080fd5b506102d260095481565b34801561037057600080fd5b5061028b61093e565b34801561038557600080fd5b506102d26109d5565b34801561039a57600080fd5b5061028b610a64565b61028b6103b13660046132fd565b610b64565b3480156103c257600080fd5b50600054600160a01b900460ff166102ae565b3480156103e157600080fd5b506102d2600c5481565b3480156103f757600080fd5b5061028b610406366004613316565b610dd0565b34801561041757600080fd5b5061028b6104263660046132fd565b6112ca565b34801561043757600080fd5b5061028b6104463660046132e2565b6113a1565b34801561045757600080fd5b5061028b611446565b34801561046c57600080fd5b506104ac61047b36600461338b565b600d60209081526000928352604080842090915290825290208054600182015460029092015460ff91821692911683565b6040516102ba939291906133ef565b3480156104c757600080fd5b506102d2600a5481565b3480156104dd57600080fd5b5061028b6104ec3660046132fd565b61147c565b3480156104fd57600080fd5b5061028b61050c3660046132e2565b611551565b34801561051d57600080fd5b5061028b61168c565b34801561053257600080fd5b506102ae61054136600461338b565b611826565b34801561055257600080fd5b506102d260065481565b34801561056857600080fd5b50600254610300906001600160a01b031681565b34801561058857600080fd5b5061028b611996565b34801561059d57600080fd5b5061028b6105ac366004613413565b611a35565b3480156105bd57600080fd5b5061063c6105cc3660046132fd565b600e60205260009081526040902080546001820154600283015460038401546004850154600586015460068701546007880154600889015460098a0154600a8b0154600b8c0154600c8d0154600d909d01549b9c9a9b999a98999798969795969495939492939192909160ff168e565b604080519e8f5260208f019d909d529b8d019a909a5260608c019890985260808b019690965260a08a019490945260c089019290925260e088015261010087015261012086015261014085015261016084015261018083015215156101a08201526101c0016102ba565b3480156106b257600080fd5b506000546001600160a01b0316610300565b3480156106d057600080fd5b506106e46106df366004613435565b611b38565b6040516102ba93929190613468565b3480156106ff57600080fd5b506102ae61070e36600461338b565b611d8f565b61028b6107213660046132fd565b611f57565b34801561073257600080fd5b5061028b61074136600461350b565b6121b8565b34801561075257600080fd5b5061028b6107613660046132e2565b61223d565b34801561077257600080fd5b506102d260085481565b34801561078857600080fd5b5061028b6107973660046132fd565b6122db565b3480156107a857600080fd5b5061028b612363565b3480156107bd57600080fd5b506102d26107cc36600461350b565b6124c2565b3480156107dd57600080fd5b506102d260055481565b3480156107f357600080fd5b506102d2600b5481565b34801561080957600080fd5b506102d26103e881565b34801561081f57600080fd5b5061028b61082e3660046132e2565b6124f3565b34801561083f57600080fd5b506002546102ae90600160a81b900460ff1681565b34801561086057600080fd5b506102d260075481565b34801561087657600080fd5b50600354610300906001600160a01b031681565b600260015414156108b65760405162461bcd60e51b81526004016108ad90613535565b60405180910390fd5b60026001556003546001600160a01b031633146108e55760405162461bcd60e51b81526004016108ad9061356c565b600980546000909155600354610904906001600160a01b03168261258e565b6040518181527fb9197c6b8e21274bd1e2d9c956a88af5cfee510f630fab3f046300f88b4223619060200160405180910390a15060018055565b600054600160a01b900460ff166109675760405162461bcd60e51b81526004016108ad9061358f565b6003546001600160a01b031633146109915760405162461bcd60e51b81526004016108ad9061356c565b6002805461ffff60a01b191690556109a7612642565b600a546040517faaa520fdd7d2c83061d632fa017b0432407e798818af63ea908589fceda39ab790600090a2565b600080600260009054906101000a90046001600160a01b03166001600160a01b031663feaf968c6040518163ffffffff1660e01b815260040160a060405180830381865afa158015610a2b573d6000803e3d6000fd5b505050506040513d601f19601f82011682018060405250810190610a4f91906135d4565b50506001600160501b03909216949350505050565b600054600160a01b900460ff1615610a8e5760405162461bcd60e51b81526004016108ad90613624565b6003546001600160a01b0316331480610ab157506004546001600160a01b031633145b610acd5760405162461bcd60e51b81526004016108ad9061364e565b600254600160a81b900460ff1615610b335760405162461bcd60e51b815260206004820152602360248201527f43616e206f6e6c792072756e2067656e657369735374617274526f756e64206f6044820152626e636560e81b60648201526084016108ad565b600a54610b41906001613690565b600a819055610b4f906126b8565b6002805460ff60a81b1916600160a81b179055565b600054600160a01b900460ff1615610b8e5760405162461bcd60e51b81526004016108ad90613624565b60026001541415610bb15760405162461bcd60e51b81526004016108ad90613535565b6002600155333b15610bd55760405162461bcd60e51b81526004016108ad906136a8565b333214610bf45760405162461bcd60e51b81526004016108ad906136d6565b600a548114610c3d5760405162461bcd60e51b815260206004820152601560248201527442657420697320746f6f206561726c792f6c61746560581b60448201526064016108ad565b610c4681612736565b610c875760405162461bcd60e51b8152602060048201526012602482015271526f756e64206e6f74206265747461626c6560701b60448201526064016108ad565b600754341015610ca95760405162461bcd60e51b81526004016108ad9061370d565b6000818152600d6020908152604080832033845290915290206001015415610d135760405162461bcd60e51b815260206004820152601b60248201527f43616e206f6e6c7920626574206f6e63652070657220726f756e64000000000060448201526064016108ad565b6000818152600e602052604090206008810154349190610d34908390613690565b60088201556009810154610d49908390613690565b60098201556000838152600d6020908152604080832033808552908352818420805460ff191681556001808201889055600f855283862080549182018155865294849020909401879055905185815286927f438122d8cff518d18388099a5181f0d17a12b4f1b55faedf6e4a6acee0060c1291015b60405180910390a35050600180555050565b60026001541415610df35760405162461bcd60e51b81526004016108ad90613535565b6002600155333b15610e175760405162461bcd60e51b81526004016108ad906136a8565b333214610e365760405162461bcd60e51b81526004016108ad906136d6565b6000805b828110156112b057600e6000858584818110610e5857610e58613759565b9050602002013581526020019081526020016000206001015460001415610eb95760405162461bcd60e51b8152602060048201526015602482015274149bdd5b99081a185cc81b9bdd081cdd185c9d1959605a1b60448201526064016108ad565b600e6000858584818110610ecf57610ecf613759565b905060200201358152602001908152602001600020600301544211610f2c5760405162461bcd60e51b8152602060048201526013602482015272149bdd5b99081a185cc81b9bdd08195b991959606a1b60448201526064016108ad565b6000600e6000868685818110610f4457610f44613759565b60209081029290920135835250810191909152604001600020600d015460ff161561112257610f8b858584818110610f7e57610f7e613759565b9050602002013533611d8f565b610fd05760405162461bcd60e51b81526020600482015260166024820152754e6f7420656c696769626c6520666f7220636c61696d60501b60448201526064016108ad565b6000600e6000878786818110610fe857610fe8613759565b905060200201358152602001908152602001600020604051806101c001604052908160008201548152602001600182015481526020016002820154815260200160038201548152602001600482015481526020016005820154815260200160068201548152602001600782015481526020016008820154815260200160098201548152602001600a8201548152602001600b8201548152602001600c8201548152602001600d820160009054906101000a900460ff1615151515815250509050806101600151816101800151600d60008989888181106110ca576110ca613759565b9050602002013581526020019081526020016000206000336001600160a01b03166001600160a01b0316815260200190815260200160002060010154611110919061376f565b61111a919061378e565b9150506111e5565b61114485858481811061113757611137613759565b9050602002013533611826565b6111905760405162461bcd60e51b815260206004820152601760248201527f4e6f7420656c696769626c6520666f7220726566756e6400000000000000000060448201526064016108ad565b600d60008686858181106111a6576111a6613759565b9050602002013581526020019081526020016000206000336001600160a01b03166001600160a01b031681526020019081526020016000206001015490505b6001600d60008787868181106111fd576111fd613759565b6020908102929092013583525081810192909252604090810160009081203382529092529020600201805460ff191691151591909117905561123f8184613690565b925084848381811061125357611253613759565b90506020020135336001600160a01b03167f34fcbac0073d7c3d388e51312faf357774904998eeb8fca628b9e6f65ee1cbf78360405161129591815260200190565b60405180910390a350806112a8816137b0565b915050610e3a565b5080156112c1576112c1338261258e565b50506001805550565b600054600160a01b900460ff166112f35760405162461bcd60e51b81526004016108ad9061358f565b6003546001600160a01b0316331461131d5760405162461bcd60e51b81526004016108ad9061356c565b806113625760405162461bcd60e51b815260206004820152601560248201527404d757374206265207375706572696f7220746f203605c1b60448201526064016108ad565b6007819055600a546040518281527f90eb87c560a0213754ceb3a7fa3012f01acab0a35602c1e1995adf69dabc9d50906020015b60405180910390a250565b6000546001600160a01b031633146113cb5760405162461bcd60e51b81526004016108ad906137cb565b6001600160a01b0381166113f15760405162461bcd60e51b81526004016108ad90613800565b600380546001600160a01b0319166001600160a01b0383169081179091556040519081527f137b621413925496477d46e5055ac0d56178bdd724ba8bf843afceef18268ba3906020015b60405180910390a150565b6000546001600160a01b031633146114705760405162461bcd60e51b81526004016108ad906137cb565b61147a60006127a1565b565b600054600160a01b900460ff166114a55760405162461bcd60e51b81526004016108ad9061358f565b6003546001600160a01b031633146114cf5760405162461bcd60e51b81526004016108ad9061356c565b6103e88111156115195760405162461bcd60e51b81526020600482015260156024820152740a8e4cac2e6eae4f240cccaca40e8dede40d0d2ced605b1b60448201526064016108ad565b6008819055600a546040518281527fb1c4ee38d35556741133da7ff9b6f7ab0fa88d0406133126ff128f635490a85790602001611396565b600054600160a01b900460ff1661157a5760405162461bcd60e51b81526004016108ad9061358f565b6003546001600160a01b031633146115a45760405162461bcd60e51b81526004016108ad9061356c565b6001600160a01b0381166115ca5760405162461bcd60e51b81526004016108ad90613800565b6000600b55600280546001600160a01b0319166001600160a01b03831690811790915560408051633fabe5a360e21b8152905163feaf968c9160048082019260a0929091908290030181865afa158015611628573d6000803e3d6000fd5b505050506040513d601f19601f8201168201806040525081019061164c91906135d4565b50506040516001600160a01b03851681527fb3eacd0e351fafdfefdec84e1cd19679b38dbcd63ea7c2c24da17fd2bc3b3c0e9350602001915061143b9050565b600054600160a01b900460ff16156116b65760405162461bcd60e51b81526004016108ad90613624565b6003546001600160a01b03163314806116d957506004546001600160a01b031633145b6116f55760405162461bcd60e51b81526004016108ad9061364e565b600254600160a81b900460ff1680156117175750600254600160a01b900460ff165b6117985760405162461bcd60e51b815260206004820152604660248201527f43616e206f6e6c792072756e2061667465722067656e6573697353746172745260448201527f6f756e6420616e642067656e657369734c6f636b526f756e642069732074726960648201526519d9d95c995960d21b608482015260a4016108ad565b6000806117a36127f1565b91509150816001600160501b0316600b819055506117cd600a54836001600160501b03168361297d565b6117ef6001600a546117df9190613830565b836001600160501b031683612b4b565b6118066001600a546118019190613830565b612d0c565b600a54611814906001613690565b600a81905561182290612e8a565b5050565b6000828152600d602090815260408083206001600160a01b0385168452909152808220815160608101909252805483929190829060ff16600181111561186e5761186e6133b7565b600181111561187f5761187f6133b7565b815260018281015460208084019190915260029384015460ff908116151560409485015260008a8152600e835284902084516101c08101865281548152938101549284019290925293810154928201929092526003820154606082015260048201546080820152600582015460a0820152600682015460c0820152600782015460e082015260088201546101008201526009820154610120820152600a820154610140820152600b820154610160820152600c820154610180820152600d909101549091161580156101a08301819052929350909161196057508160400151155b801561197c575060055481606001516119799190613690565b42115b801561198b5750602082015115155b925050505b92915050565b600054600160a01b900460ff16156119c05760405162461bcd60e51b81526004016108ad90613624565b6003546001600160a01b03163314806119e357506004546001600160a01b031633145b6119ff5760405162461bcd60e51b81526004016108ad9061364e565b611a07612fda565b600a546040517f68b095021b1f40fe513109f513c66692f0b3219aee674a69f4efc57badb8201d90600090a2565b600054600160a01b900460ff16611a5e5760405162461bcd60e51b81526004016108ad9061358f565b6003546001600160a01b03163314611a885760405162461bcd60e51b81526004016108ad9061356c565b808210611af15760405162461bcd60e51b815260206004820152603160248201527f6275666665725365636f6e6473206d75737420626520696e666572696f7220746044820152706f20696e74657276616c5365636f6e647360781b60648201526084016108ad565b6005829055600681905560408051838152602081018390527fe60149e0431fec12df63dfab5fce2a9cefe9a4d3df5f41cb626f579ae1f2b91a910160405180910390a15050565b6001600160a01b0383166000908152600f602052604081205460609182918490611b63908790613830565b811115611b91576001600160a01b0387166000908152600f6020526040902054611b8e908790613830565b90505b60008167ffffffffffffffff811115611bac57611bac613847565b604051908082528060200260200182016040528015611bd5578160200160208202803683370190505b50905060008267ffffffffffffffff811115611bf357611bf3613847565b604051908082528060200260200182016040528015611c3e57816020015b6040805160608101825260008082526020808301829052928201528252600019909201910181611c115790505b50905060005b83811015611d70576001600160a01b038a166000908152600f60205260409020611c6e828b613690565b81548110611c7e57611c7e613759565b9060005260206000200154838281518110611c9b57611c9b613759565b602002602001018181525050600d6000848381518110611cbd57611cbd613759565b602090810291909101810151825281810192909252604090810160009081206001600160a01b038e168252909252908190208151606081019092528054829060ff166001811115611d1057611d106133b7565b6001811115611d2157611d216133b7565b81526001820154602082015260029091015460ff1615156040909101528251839083908110611d5257611d52613759565b60200260200101819052508080611d68906137b0565b915050611c44565b508181611d7d858b613690565b95509550955050505093509350939050565b6000828152600d602090815260408083206001600160a01b0385168452909152808220815160608101909252805483929190829060ff166001811115611dd757611dd76133b7565b6001811115611de857611de86133b7565b815260018281015460208084019190915260029384015460ff908116151560409485015260008a8152600e835284902084516101c081018652815481529381015492840192909252938101549282019290925260038201546060820152600482015460808201819052600583015460a08301819052600684015460c0840152600784015460e084015260088401546101008401526009840154610120840152600a840154610140840152600b840154610160840152600c840154610180840152600d9093015490931615156101a08201529293501415611ecd57600092505050611990565b806101a001518015611ee25750602082015115155b8015611ef057508160400151155b801561198b575080608001518160a00151138015611f205750600082516001811115611f1e57611f1e6133b7565b145b8061198b575080608001518160a0015112801561198b5750600182516001811115611f4d57611f4d6133b7565b1495945050505050565b600054600160a01b900460ff1615611f815760405162461bcd60e51b81526004016108ad90613624565b60026001541415611fa45760405162461bcd60e51b81526004016108ad90613535565b6002600155333b15611fc85760405162461bcd60e51b81526004016108ad906136a8565b333214611fe75760405162461bcd60e51b81526004016108ad906136d6565b600a5481146120305760405162461bcd60e51b815260206004820152601560248201527442657420697320746f6f206561726c792f6c61746560581b60448201526064016108ad565b61203981612736565b61207a5760405162461bcd60e51b8152602060048201526012602482015271526f756e64206e6f74206265747461626c6560701b60448201526064016108ad565b60075434101561209c5760405162461bcd60e51b81526004016108ad9061370d565b6000818152600d60209081526040808320338452909152902060010154156121065760405162461bcd60e51b815260206004820152601b60248201527f43616e206f6e6c7920626574206f6e63652070657220726f756e64000000000060448201526064016108ad565b6000818152600e602052604090206008810154349190612127908390613690565b6008820155600a81015461213c908390613690565b600a8201556000838152600d6020908152604080832033808552908352818420805460ff191660019081178255808201889055600f855283862080549182018155865294849020909401879055905185815286927f0d8c1fe3e67ab767116a81f122b83c2557a8c2564019cb7c4f83de1aeb1f1f0d9101610dbe565b6000546001600160a01b031633146121e25760405162461bcd60e51b81526004016108ad906137cb565b6121f66001600160a01b038316338361303f565b816001600160a01b03167f14f11966a996e0629572e51064726d2057a80fbd34efc066682c06a71dbb6e988260405161223191815260200190565b60405180910390a25050565b6003546001600160a01b031633146122675760405162461bcd60e51b81526004016108ad9061356c565b6001600160a01b03811661228d5760405162461bcd60e51b81526004016108ad90613800565b600480546001600160a01b0319166001600160a01b0383169081179091556040519081527fc47d127c07bdd56c5ccba00463ce3bd3c1bca71b4670eea6e5d0c02e4aa156e29060200161143b565b600054600160a01b900460ff166123045760405162461bcd60e51b81526004016108ad9061358f565b6003546001600160a01b0316331461232e5760405162461bcd60e51b81526004016108ad9061356c565b600c8190556040518181527f93ccaceac092ffb842c46b8718667a13a80e9058dcd0bd403d0b47215b30da079060200161143b565b600054600160a01b900460ff161561238d5760405162461bcd60e51b81526004016108ad90613624565b6003546001600160a01b03163314806123b057506004546001600160a01b031633145b6123cc5760405162461bcd60e51b81526004016108ad9061364e565b600254600160a81b900460ff166123f55760405162461bcd60e51b81526004016108ad9061385d565b600254600160a01b900460ff161561245a5760405162461bcd60e51b815260206004820152602260248201527f43616e206f6e6c792072756e2067656e657369734c6f636b526f756e64206f6e604482015261636560f01b60648201526084016108ad565b6000806124656127f1565b91509150816001600160501b0316600b8190555061248f600a54836001600160501b03168361297d565b600a5461249d906001613690565b600a8190556124ab906126b8565b50506002805460ff60a01b1916600160a01b179055565b600f60205281600052604060002081815481106124de57600080fd5b90600052602060002001600091509150505481565b6000546001600160a01b0316331461251d5760405162461bcd60e51b81526004016108ad906137cb565b6001600160a01b0381166125825760405162461bcd60e51b815260206004820152602660248201527f4f776e61626c653a206e6577206f776e657220697320746865207a65726f206160448201526564647265737360d01b60648201526084016108ad565b61258b816127a1565b50565b6000826001600160a01b03168260405160006040518083038185875af1925050503d80600081146125db576040519150601f19603f3d011682016040523d82523d6000602084013e6125e0565b606091505b505090508061263d5760405162461bcd60e51b815260206004820152602360248201527f5472616e7366657248656c7065723a20424e425f5452414e534645525f46414960448201526213115160ea1b60648201526084016108ad565b505050565b600054600160a01b900460ff1661266b5760405162461bcd60e51b81526004016108ad9061358f565b6000805460ff60a01b191690557f5db9ee0a495bf2e6ff9c91a7834c1ba4fdd244a5e8aa4e537bd38aeae4b073aa335b6040516001600160a01b03909116815260200160405180910390a1565b6000818152600e6020526040902042600182018190556006546126da91613690565b6002808301919091556006546126ef9161376f565b6126f99042613690565b600382015581815560006008820181905560405183917f939f42374aa9bf1d8d8cd56d8a9110cb040cd8dfeae44080c6fcf2645e51b45291a25050565b6000818152600e60205260408120600101541580159061276657506000828152600e602052604090206002015415155b801561278257506000828152600e602052604090206001015442115b80156119905750506000908152600e6020526040902060020154421090565b600080546001600160a01b038381166001600160a01b0319831681178455604051919092169283917f8be0079c531659141344cd1fd0a4f28419497f9722a3daafe3b4186f6b6457e09190a35050565b6000806000600c54426128049190613690565b90506000806000600260009054906101000a90046001600160a01b03166001600160a01b031663feaf968c6040518163ffffffff1660e01b815260040160a060405180830381865afa15801561285e573d6000803e3d6000fd5b505050506040513d601f19601f8201168201806040525081019061288291906135d4565b5093505092509250838111156128f15760405162461bcd60e51b815260206004820152602e60248201527f4f7261636c6520757064617465206578636565646564206d61782074696d657360448201526d74616d7020616c6c6f77616e636560901b60648201526084016108ad565b600b54836001600160501b031610156129725760405162461bcd60e51b815260206004820152603d60248201527f4f7261636c652075706461746520726f756e644964206d757374206265206c6160448201527f72676572207468616e206f7261636c654c6174657374526f756e64496400000060648201526084016108ad565b509094909350915050565b6000838152600e60205260409020600101546129ef5760405162461bcd60e51b815260206004820152602b60248201527f43616e206f6e6c79206c6f636b20726f756e6420616674657220726f756e642060448201526a1a185cc81cdd185c9d195960aa1b60648201526084016108ad565b6000838152600e6020526040902060020154421015612a605760405162461bcd60e51b815260206004820152602760248201527f43616e206f6e6c79206c6f636b20726f756e64206166746572206c6f636b546960448201526606d657374616d760cc1b60648201526084016108ad565b6005546000848152600e6020526040902060020154612a7f9190613690565b421115612adf5760405162461bcd60e51b815260206004820152602860248201527f43616e206f6e6c79206c6f636b20726f756e642077697468696e206275666665604482015267725365636f6e647360c01b60648201526084016108ad565b6000838152600e60205260409020600654612afa9042613690565b60038201556004810182905560068101839055604051828152839085907f482e76a65b448a42deef26e99e58fb20c85e26f075defff8df6aa80459b39006906020015b60405180910390a350505050565b6000838152600e6020526040902060020154612bbb5760405162461bcd60e51b815260206004820152602960248201527f43616e206f6e6c7920656e6420726f756e6420616674657220726f756e642068604482015268185cc81b1bd8dad95960ba1b60648201526084016108ad565b6000838152600e6020526040902060030154421015612c2c5760405162461bcd60e51b815260206004820152602760248201527f43616e206f6e6c7920656e6420726f756e6420616674657220636c6f7365546960448201526606d657374616d760cc1b60648201526084016108ad565b6005546000848152600e6020526040902060030154612c4b9190613690565b421115612caa5760405162461bcd60e51b815260206004820152602760248201527f43616e206f6e6c7920656e6420726f756e642077697468696e206275666665726044820152665365636f6e647360c81b60648201526084016108ad565b6000838152600e6020526040908190206005810183905560078101849055600d8101805460ff191660011790559051839085907fb6ff1fe915db84788cbbbc017f0d2bef9485fad9fd0bd8ce9340fde0d8410dd890612b3d9086815260200190565b6000818152600e60205260409020600b0154158015612d3a57506000818152600e60205260409020600c0154155b612d7b5760405162461bcd60e51b815260206004820152601260248201527114995dd85c991cc818d85b18dd5b185d195960721b60448201526064016108ad565b6000818152600e6020526040812060048101546005820154919291829182911315612ddf57836009015492506127106008548560080154612dbc919061376f565b612dc6919061378e565b9150818460080154612dd89190613830565b9050612e18565b836004015484600501541215612e0b5783600a015492506127106008548560080154612dbc919061376f565b5050506008810154600090815b600b8401839055600c840181905560098054839190600090612e3b908490613690565b9091555050604080518481526020810183905290810183905285907f6dfdfcb09c8804d0058826cd2539f1acfbe3cb887c9be03d928035bce0f1a58d9060600160405180910390a25050505050565b600254600160a81b900460ff16612eb35760405162461bcd60e51b81526004016108ad9061385d565b600e6000612ec2600284613830565b81526020019081526020016000206003015460001415612f3b5760405162461bcd60e51b815260206004820152602e60248201527f43616e206f6e6c7920737461727420726f756e6420616674657220726f756e6460448201526d081b8b4c881a185cc8195b99195960921b60648201526084016108ad565b600e6000612f4a600284613830565b815260200190815260200160002060030154421015612fd15760405162461bcd60e51b815260206004820152603760248201527f43616e206f6e6c79207374617274206e657720726f756e64206166746572207260448201527f6f756e64206e2d3220636c6f736554696d657374616d7000000000000000000060648201526084016108ad565b61258b816126b8565b600054600160a01b900460ff16156130045760405162461bcd60e51b81526004016108ad90613624565b6000805460ff60a01b1916600160a01b1790557f62e78cea01bee320cd4e420270b5ea74000d11b0c9f74754ebdbfc544b05a25861269b3390565b604080516001600160a01b03848116602483015260448083018590528351808403909101815260649092018352602080830180516001600160e01b031663a9059cbb60e01b17905283518085019094528084527f5361666545524332303a206c6f772d6c6576656c2063616c6c206661696c65649084015261263d928692916000916130cf91851690849061314c565b80519091501561263d57808060200190518101906130ed91906138ae565b61263d5760405162461bcd60e51b815260206004820152602a60248201527f5361666545524332303a204552433230206f7065726174696f6e20646964206e6044820152691bdd081cdd58d8d9595960b21b60648201526084016108ad565b606061315b8484600085613165565b90505b9392505050565b6060824710156131c65760405162461bcd60e51b815260206004820152602660248201527f416464726573733a20696e73756666696369656e742062616c616e636520666f6044820152651c8818d85b1b60d21b60648201526084016108ad565b843b6132145760405162461bcd60e51b815260206004820152601d60248201527f416464726573733a2063616c6c20746f206e6f6e2d636f6e747261637400000060448201526064016108ad565b600080866001600160a01b031685876040516132309190613900565b60006040518083038185875af1925050503d806000811461326d576040519150601f19603f3d011682016040523d82523d6000602084013e613272565b606091505b509150915061328282828661328d565b979650505050505050565b6060831561329c57508161315e565b8251156132ac5782518084602001fd5b8160405162461bcd60e51b81526004016108ad919061391c565b80356001600160a01b03811681146132dd57600080fd5b919050565b6000602082840312156132f457600080fd5b61315e826132c6565b60006020828403121561330f57600080fd5b5035919050565b6000806020838503121561332957600080fd5b823567ffffffffffffffff8082111561334157600080fd5b818501915085601f83011261335557600080fd5b81358181111561336457600080fd5b8660208260051b850101111561337957600080fd5b60209290920196919550909350505050565b6000806040838503121561339e57600080fd5b823591506133ae602084016132c6565b90509250929050565b634e487b7160e01b600052602160045260246000fd5b600281106133eb57634e487b7160e01b600052602160045260246000fd5b9052565b606081016133fd82866133cd565b8360208301528215156040830152949350505050565b6000806040838503121561342657600080fd5b50508035926020909101359150565b60008060006060848603121561344a57600080fd5b613453846132c6565b95602085013595506040909401359392505050565b60608082528451828201819052600091906020906080850190828901855b828110156134a257815184529284019290840190600101613486565b5050508481038286015286518082528783019183019060005b818110156134f45783516134d08482516133cd565b808601518487015260409081015115159084015292840192918501916001016134bb565b505080945050505050826040830152949350505050565b6000806040838503121561351e57600080fd5b613527836132c6565b946020939093013593505050565b6020808252601f908201527f5265656e7472616e637947756172643a207265656e7472616e742063616c6c00604082015260600190565b6020808252600990820152682737ba1030b236b4b760b91b604082015260600190565b60208082526014908201527314185d5cd8589b194e881b9bdd081c185d5cd95960621b604082015260600190565b80516001600160501b03811681146132dd57600080fd5b600080600080600060a086880312156135ec57600080fd5b6135f5866135bd565b9450602086015193506040860151925060608601519150613618608087016135bd565b90509295509295909350565b60208082526010908201526f14185d5cd8589b194e881c185d5cd95960821b604082015260600190565b6020808252601290820152712737ba1037b832b930ba37b917b0b236b4b760711b604082015260600190565b634e487b7160e01b600052601160045260246000fd5b600082198211156136a3576136a361367a565b500190565b60208082526014908201527310dbdb9d1c9858dd081b9bdd08185b1b1bddd95960621b604082015260600190565b6020808252601a908201527f50726f787920636f6e7472616374206e6f7420616c6c6f776564000000000000604082015260600190565b6020808252602c908201527f42657420616d6f756e74206d7573742062652067726561746572207468616e2060408201526b1b5a5b90995d105b5bdd5b9d60a21b606082015260800190565b634e487b7160e01b600052603260045260246000fd5b60008160001904831182151516156137895761378961367a565b500290565b6000826137ab57634e487b7160e01b600052601260045260246000fd5b500490565b60006000198214156137c4576137c461367a565b5060010190565b6020808252818101527f4f776e61626c653a2063616c6c6572206973206e6f7420746865206f776e6572604082015260600190565b60208082526016908201527543616e6e6f74206265207a65726f206164647265737360501b604082015260600190565b6000828210156138425761384261367a565b500390565b634e487b7160e01b600052604160045260246000fd5b60208082526031908201527f43616e206f6e6c792072756e2061667465722067656e657369735374617274526040820152701bdd5b99081a5cc81d1c9a59d9d95c9959607a1b606082015260800190565b6000602082840312156138c057600080fd5b8151801515811461315e57600080fd5b60005b838110156138eb5781810151838201526020016138d3565b838111156138fa576000848401525b50505050565b600082516139128184602087016138d0565b9190910192915050565b602081526000825180602084015261393b8160408501602087016138d0565b601f01601f1916919091016040019291505056fea2646970667358221220d25b70d54a054c2306fd24f4047c416d2393d3d4ca5c46129496bcbdde312d4964736f6c634300080a0033",
  "immutableReferences": {},
  "source": "/**\r\n *Submitted for verification at BscScan.com on 2021-08-24\r\n*/\r\n\r\n// SPDX-License-Identifier: MIT\r\n\r\npragma solidity ^0.8.0;\r\n\r\n/*\r\n * @dev Provides information about the current execution context, including the\r\n * sender of the transaction and its data. While these are generally available\r\n * via msg.sender and msg.data, they should not be accessed in such a direct\r\n * manner, since when dealing with meta-transactions the account sending and\r\n * paying for execution may not be the actual sender (as far as an application\r\n * is concerned).\r\n *\r\n * This contract is only required for intermediate, library-like contracts.\r\n */\r\nabstract contract Context {\r\n    function _msgSender() internal view virtual returns (address) {\r\n        return msg.sender;\r\n    }\r\n\r\n    function _msgData() internal view virtual returns (bytes calldata) {\r\n        return msg.data;\r\n    }\r\n}\r\n\r\npragma solidity ^0.8.0;\r\n\r\n/**\r\n * @dev Contract module which provides a basic access control mechanism, where\r\n * there is an account (an owner) that can be granted exclusive access to\r\n * specific functions.\r\n *\r\n * By default, the owner account will be the one that deploys the contract. This\r\n * can later be changed with {transferOwnership}.\r\n *\r\n * This module is used through inheritance. It will make available the modifier\r\n * `onlyOwner`, which can be applied to your functions to restrict their use to\r\n * the owner.\r\n */\r\nabstract contract Ownable is Context {\r\n    address private _owner;\r\n\r\n    event OwnershipTransferred(address indexed previousOwner, address indexed newOwner);\r\n\r\n    /**\r\n     * @dev Initializes the contract setting the deployer as the initial owner.\r\n     */\r\n    constructor() {\r\n        _setOwner(_msgSender());\r\n    }\r\n\r\n    /**\r\n     * @dev Returns the address of the current owner.\r\n     */\r\n    function owner() public view virtual returns (address) {\r\n        return _owner;\r\n    }\r\n\r\n    /**\r\n     * @dev Throws if called by any account other than the owner.\r\n     */\r\n    modifier onlyOwner() {\r\n        require(owner() == _msgSender(), \"Ownable: caller is not the owner\");\r\n        _;\r\n    }\r\n\r\n    /**\r\n     * @dev Leaves the contract without owner. It will not be possible to call\r\n     * `onlyOwner` functions anymore. Can only be called by the current owner.\r\n     *\r\n     * NOTE: Renouncing ownership will leave the contract without an owner,\r\n     * thereby removing any functionality that is only available to the owner.\r\n     */\r\n    function renounceOwnership() public virtual onlyOwner {\r\n        _setOwner(address(0));\r\n    }\r\n\r\n    /**\r\n     * @dev Transfers ownership of the contract to a new account (`newOwner`).\r\n     * Can only be called by the current owner.\r\n     */\r\n    function transferOwnership(address newOwner) public virtual onlyOwner {\r\n        require(newOwner != address(0), \"Ownable: new owner is the zero address\");\r\n        _setOwner(newOwner);\r\n    }\r\n\r\n    function _setOwner(address newOwner) private {\r\n        address oldOwner = _owner;\r\n        _owner = newOwner;\r\n        emit OwnershipTransferred(oldOwner, newOwner);\r\n    }\r\n}\r\n\r\npragma solidity ^0.8.0;\r\n\r\n/**\r\n * @dev Contract module which allows children to implement an emergency stop\r\n * mechanism that can be triggered by an authorized account.\r\n *\r\n * This module is used through inheritance. It will make available the\r\n * modifiers `whenNotPaused` and `whenPaused`, which can be applied to\r\n * the functions of your contract. Note that they will not be pausable by\r\n * simply including this module, only once the modifiers are put in place.\r\n */\r\nabstract contract Pausable is Context {\r\n    /**\r\n     * @dev Emitted when the pause is triggered by `account`.\r\n     */\r\n    event Paused(address account);\r\n\r\n    /**\r\n     * @dev Emitted when the pause is lifted by `account`.\r\n     */\r\n    event Unpaused(address account);\r\n\r\n    bool private _paused;\r\n\r\n    /**\r\n     * @dev Initializes the contract in unpaused state.\r\n     */\r\n    constructor() {\r\n        _paused = false;\r\n    }\r\n\r\n    /**\r\n     * @dev Returns true if the contract is paused, and false otherwise.\r\n     */\r\n    function paused() public view virtual returns (bool) {\r\n        return _paused;\r\n    }\r\n\r\n    /**\r\n     * @dev Modifier to make a function callable only when the contract is not paused.\r\n     *\r\n     * Requirements:\r\n     *\r\n     * - The contract must not be paused.\r\n     */\r\n    modifier whenNotPaused() {\r\n        require(!paused(), \"Pausable: paused\");\r\n        _;\r\n    }\r\n\r\n    /**\r\n     * @dev Modifier to make a function callable only when the contract is paused.\r\n     *\r\n     * Requirements:\r\n     *\r\n     * - The contract must be paused.\r\n     */\r\n    modifier whenPaused() {\r\n        require(paused(), \"Pausable: not paused\");\r\n        _;\r\n    }\r\n\r\n    /**\r\n     * @dev Triggers stopped state.\r\n     *\r\n     * Requirements:\r\n     *\r\n     * - The contract must not be paused.\r\n     */\r\n    function _pause() internal virtual whenNotPaused {\r\n        _paused = true;\r\n        emit Paused(_msgSender());\r\n    }\r\n\r\n    /**\r\n     * @dev Returns to normal state.\r\n     *\r\n     * Requirements:\r\n     *\r\n     * - The contract must be paused.\r\n     */\r\n    function _unpause() internal virtual whenPaused {\r\n        _paused = false;\r\n        emit Unpaused(_msgSender());\r\n    }\r\n}\r\n\r\npragma solidity ^0.8.0;\r\n\r\n/**\r\n * @dev Contract module that helps prevent reentrant calls to a function.\r\n *\r\n * Inheriting from `ReentrancyGuard` will make the {nonReentrant} modifier\r\n * available, which can be applied to functions to make sure there are no nested\r\n * (reentrant) calls to them.\r\n *\r\n * Note that because there is a single `nonReentrant` guard, functions marked as\r\n * `nonReentrant` may not call one another. This can be worked around by making\r\n * those functions `private`, and then adding `external` `nonReentrant` entry\r\n * points to them.\r\n *\r\n * TIP: If you would like to learn more about reentrancy and alternative ways\r\n * to protect against it, check out our blog post\r\n * https://blog.openzeppelin.com/reentrancy-after-istanbul/[Reentrancy After Istanbul].\r\n */\r\nabstract contract ReentrancyGuard {\r\n    // Booleans are more expensive than uint256 or any type that takes up a full\r\n    // word because each write operation emits an extra SLOAD to first read the\r\n    // slot's contents, replace the bits taken up by the boolean, and then write\r\n    // back. This is the compiler's defense against contract upgrades and\r\n    // pointer aliasing, and it cannot be disabled.\r\n\r\n    // The values being non-zero value makes deployment a bit more expensive,\r\n    // but in exchange the refund on every call to nonReentrant will be lower in\r\n    // amount. Since refunds are capped to a percentage of the total\r\n    // transaction's gas, it is best to keep them low in cases like this one, to\r\n    // increase the likelihood of the full refund coming into effect.\r\n    uint256 private constant _NOT_ENTERED = 1;\r\n    uint256 private constant _ENTERED = 2;\r\n\r\n    uint256 private _status;\r\n\r\n    constructor() {\r\n        _status = _NOT_ENTERED;\r\n    }\r\n\r\n    /**\r\n     * @dev Prevents a contract from calling itself, directly or indirectly.\r\n     * Calling a `nonReentrant` function from another `nonReentrant`\r\n     * function is not supported. It is possible to prevent this from happening\r\n     * by making the `nonReentrant` function external, and make it call a\r\n     * `private` function that does the actual work.\r\n     */\r\n    modifier nonReentrant() {\r\n        // On the first call to nonReentrant, _notEntered will be true\r\n        require(_status != _ENTERED, \"ReentrancyGuard: reentrant call\");\r\n\r\n        // Any calls to nonReentrant after this point will fail\r\n        _status = _ENTERED;\r\n\r\n        _;\r\n\r\n        // By storing the original value once again, a refund is triggered (see\r\n        // https://eips.ethereum.org/EIPS/eip-2200)\r\n        _status = _NOT_ENTERED;\r\n    }\r\n}\r\n\r\npragma solidity ^0.8.0;\r\n\r\n/**\r\n * @dev Interface of the ERC20 standard as defined in the EIP.\r\n */\r\ninterface IERC20 {\r\n    /**\r\n     * @dev Returns the amount of tokens in existence.\r\n     */\r\n    function totalSupply() external view returns (uint256);\r\n\r\n    /**\r\n     * @dev Returns the amount of tokens owned by `account`.\r\n     */\r\n    function balanceOf(address account) external view returns (uint256);\r\n\r\n    /**\r\n     * @dev Moves `amount` tokens from the caller's account to `recipient`.\r\n     *\r\n     * Returns a boolean value indicating whether the operation succeeded.\r\n     *\r\n     * Emits a {Transfer} event.\r\n     */\r\n    function transfer(address recipient, uint256 amount) external returns (bool);\r\n\r\n    /**\r\n     * @dev Returns the remaining number of tokens that `spender` will be\r\n     * allowed to spend on behalf of `owner` through {transferFrom}. This is\r\n     * zero by default.\r\n     *\r\n     * This value changes when {approve} or {transferFrom} are called.\r\n     */\r\n    function allowance(address owner, address spender) external view returns (uint256);\r\n\r\n    /**\r\n     * @dev Sets `amount` as the allowance of `spender` over the caller's tokens.\r\n     *\r\n     * Returns a boolean value indicating whether the operation succeeded.\r\n     *\r\n     * IMPORTANT: Beware that changing an allowance with this method brings the risk\r\n     * that someone may use both the old and the new allowance by unfortunate\r\n     * transaction ordering. One possible solution to mitigate this race\r\n     * condition is to first reduce the spender's allowance to 0 and set the\r\n     * desired value afterwards:\r\n     * https://github.com/ethereum/EIPs/issues/20#issuecomment-263524729\r\n     *\r\n     * Emits an {Approval} event.\r\n     */\r\n    function approve(address spender, uint256 amount) external returns (bool);\r\n\r\n    /**\r\n     * @dev Moves `amount` tokens from `sender` to `recipient` using the\r\n     * allowance mechanism. `amount` is then deducted from the caller's\r\n     * allowance.\r\n     *\r\n     * Returns a boolean value indicating whether the operation succeeded.\r\n     *\r\n     * Emits a {Transfer} event.\r\n     */\r\n    function transferFrom(\r\n        address sender,\r\n        address recipient,\r\n        uint256 amount\r\n    ) external returns (bool);\r\n\r\n    /**\r\n     * @dev Emitted when `value` tokens are moved from one account (`from`) to\r\n     * another (`to`).\r\n     *\r\n     * Note that `value` may be zero.\r\n     */\r\n    event Transfer(address indexed from, address indexed to, uint256 value);\r\n\r\n    /**\r\n     * @dev Emitted when the allowance of a `spender` for an `owner` is set by\r\n     * a call to {approve}. `value` is the new allowance.\r\n     */\r\n    event Approval(address indexed owner, address indexed spender, uint256 value);\r\n}\r\n\r\npragma solidity ^0.8.0;\r\n\r\n/**\r\n * @dev Collection of functions related to the address type\r\n */\r\nlibrary Address {\r\n    /**\r\n     * @dev Returns true if `account` is a contract.\r\n     *\r\n     * [IMPORTANT]\r\n     * ====\r\n     * It is unsafe to assume that an address for which this function returns\r\n     * false is an externally-owned account (EOA) and not a contract.\r\n     *\r\n     * Among others, `isContract` will return false for the following\r\n     * types of addresses:\r\n     *\r\n     *  - an externally-owned account\r\n     *  - a contract in construction\r\n     *  - an address where a contract will be created\r\n     *  - an address where a contract lived, but was destroyed\r\n     * ====\r\n     */\r\n    function isContract(address account) internal view returns (bool) {\r\n        // This method relies on extcodesize, which returns 0 for contracts in\r\n        // construction, since the code is only stored at the end of the\r\n        // constructor execution.\r\n\r\n        uint256 size;\r\n        assembly {\r\n            size := extcodesize(account)\r\n        }\r\n        return size > 0;\r\n    }\r\n\r\n    /**\r\n     * @dev Replacement for Solidity's `transfer`: sends `amount` wei to\r\n     * `recipient`, forwarding all available gas and reverting on errors.\r\n     *\r\n     * https://eips.ethereum.org/EIPS/eip-1884[EIP1884] increases the gas cost\r\n     * of certain opcodes, possibly making contracts go over the 2300 gas limit\r\n     * imposed by `transfer`, making them unable to receive funds via\r\n     * `transfer`. {sendValue} removes this limitation.\r\n     *\r\n     * https://diligence.consensys.net/posts/2019/09/stop-using-soliditys-transfer-now/[Learn more].\r\n     *\r\n     * IMPORTANT: because control is transferred to `recipient`, care must be\r\n     * taken to not create reentrancy vulnerabilities. Consider using\r\n     * {ReentrancyGuard} or the\r\n     * https://solidity.readthedocs.io/en/v0.5.11/security-considerations.html#use-the-checks-effects-interactions-pattern[checks-effects-interactions pattern].\r\n     */\r\n    function sendValue(address payable recipient, uint256 amount) internal {\r\n        require(address(this).balance >= amount, \"Address: insufficient balance\");\r\n\r\n        (bool success, ) = recipient.call{value: amount}(\"\");\r\n        require(success, \"Address: unable to send value, recipient may have reverted\");\r\n    }\r\n\r\n    /**\r\n     * @dev Performs a Solidity function call using a low level `call`. A\r\n     * plain `call` is an unsafe replacement for a function call: use this\r\n     * function instead.\r\n     *\r\n     * If `target` reverts with a revert reason, it is bubbled up by this\r\n     * function (like regular Solidity function calls).\r\n     *\r\n     * Returns the raw returned data. To convert to the expected return value,\r\n     * use https://solidity.readthedocs.io/en/latest/units-and-global-variables.html?highlight=abi.decode#abi-encoding-and-decoding-functions[`abi.decode`].\r\n     *\r\n     * Requirements:\r\n     *\r\n     * - `target` must be a contract.\r\n     * - calling `target` with `data` must not revert.\r\n     *\r\n     * _Available since v3.1._\r\n     */\r\n    function functionCall(address target, bytes memory data) internal returns (bytes memory) {\r\n        return functionCall(target, data, \"Address: low-level call failed\");\r\n    }\r\n\r\n    /**\r\n     * @dev Same as {xref-Address-functionCall-address-bytes-}[`functionCall`], but with\r\n     * `errorMessage` as a fallback revert reason when `target` reverts.\r\n     *\r\n     * _Available since v3.1._\r\n     */\r\n    function functionCall(\r\n        address target,\r\n        bytes memory data,\r\n        string memory errorMessage\r\n    ) internal returns (bytes memory) {\r\n        return functionCallWithValue(target, data, 0, errorMessage);\r\n    }\r\n\r\n    /**\r\n     * @dev Same as {xref-Address-functionCall-address-bytes-}[`functionCall`],\r\n     * but also transferring `value` wei to `target`.\r\n     *\r\n     * Requirements:\r\n     *\r\n     * - the calling contract must have an ETH balance of at least `value`.\r\n     * - the called Solidity function must be `payable`.\r\n     *\r\n     * _Available since v3.1._\r\n     */\r\n    function functionCallWithValue(\r\n        address target,\r\n        bytes memory data,\r\n        uint256 value\r\n    ) internal returns (bytes memory) {\r\n        return functionCallWithValue(target, data, value, \"Address: low-level call with value failed\");\r\n    }\r\n\r\n    /**\r\n     * @dev Same as {xref-Address-functionCallWithValue-address-bytes-uint256-}[`functionCallWithValue`], but\r\n     * with `errorMessage` as a fallback revert reason when `target` reverts.\r\n     *\r\n     * _Available since v3.1._\r\n     */\r\n    function functionCallWithValue(\r\n        address target,\r\n        bytes memory data,\r\n        uint256 value,\r\n        string memory errorMessage\r\n    ) internal returns (bytes memory) {\r\n        require(address(this).balance >= value, \"Address: insufficient balance for call\");\r\n        require(isContract(target), \"Address: call to non-contract\");\r\n\r\n        (bool success, bytes memory returndata) = target.call{value: value}(data);\r\n        return _verifyCallResult(success, returndata, errorMessage);\r\n    }\r\n\r\n    /**\r\n     * @dev Same as {xref-Address-functionCall-address-bytes-}[`functionCall`],\r\n     * but performing a static call.\r\n     *\r\n     * _Available since v3.3._\r\n     */\r\n    function functionStaticCall(address target, bytes memory data) internal view returns (bytes memory) {\r\n        return functionStaticCall(target, data, \"Address: low-level static call failed\");\r\n    }\r\n\r\n    /**\r\n     * @dev Same as {xref-Address-functionCall-address-bytes-string-}[`functionCall`],\r\n     * but performing a static call.\r\n     *\r\n     * _Available since v3.3._\r\n     */\r\n    function functionStaticCall(\r\n        address target,\r\n        bytes memory data,\r\n        string memory errorMessage\r\n    ) internal view returns (bytes memory) {\r\n        require(isContract(target), \"Address: static call to non-contract\");\r\n\r\n        (bool success, bytes memory returndata) = target.staticcall(data);\r\n        return _verifyCallResult(success, returndata, errorMessage);\r\n    }\r\n\r\n    /**\r\n     * @dev Same as {xref-Address-functionCall-address-bytes-}[`functionCall`],\r\n     * but performing a delegate call.\r\n     *\r\n     * _Available since v3.4._\r\n     */\r\n    function functionDelegateCall(address target, bytes memory data) internal returns (bytes memory) {\r\n        return functionDelegateCall(target, data, \"Address: low-level delegate call failed\");\r\n    }\r\n\r\n    /**\r\n     * @dev Same as {xref-Address-functionCall-address-bytes-string-}[`functionCall`],\r\n     * but performing a delegate call.\r\n     *\r\n     * _Available since v3.4._\r\n     */\r\n    function functionDelegateCall(\r\n        address target,\r\n        bytes memory data,\r\n        string memory errorMessage\r\n    ) internal returns (bytes memory) {\r\n        require(isContract(target), \"Address: delegate call to non-contract\");\r\n\r\n        (bool success, bytes memory returndata) = target.delegatecall(data);\r\n        return _verifyCallResult(success, returndata, errorMessage);\r\n    }\r\n\r\n    function _verifyCallResult(\r\n        bool success,\r\n        bytes memory returndata,\r\n        string memory errorMessage\r\n    ) private pure returns (bytes memory) {\r\n        if (success) {\r\n            return returndata;\r\n        } else {\r\n            // Look for revert reason and bubble it up if present\r\n            if (returndata.length > 0) {\r\n                // The easiest way to bubble the revert reason is using memory via assembly\r\n\r\n                assembly {\r\n                    let returndata_size := mload(returndata)\r\n                    revert(add(32, returndata), returndata_size)\r\n                }\r\n            } else {\r\n                revert(errorMessage);\r\n            }\r\n        }\r\n    }\r\n}\r\n\r\npragma solidity ^0.8.0;\r\n\r\n\r\n/**\r\n * @title SafeERC20\r\n * @dev Wrappers around ERC20 operations that throw on failure (when the token\r\n * contract returns false). Tokens that return no value (and instead revert or\r\n * throw on failure) are also supported, non-reverting calls are assumed to be\r\n * successful.\r\n * To use this library you can add a `using SafeERC20 for IERC20;` statement to your contract,\r\n * which allows you to call the safe operations as `token.safeTransfer(...)`, etc.\r\n */\r\nlibrary SafeERC20 {\r\n    using Address for address;\r\n\r\n    function safeTransfer(\r\n        IERC20 token,\r\n        address to,\r\n        uint256 value\r\n    ) internal {\r\n        _callOptionalReturn(token, abi.encodeWithSelector(token.transfer.selector, to, value));\r\n    }\r\n\r\n    function safeTransferFrom(\r\n        IERC20 token,\r\n        address from,\r\n        address to,\r\n        uint256 value\r\n    ) internal {\r\n        _callOptionalReturn(token, abi.encodeWithSelector(token.transferFrom.selector, from, to, value));\r\n    }\r\n\r\n    /**\r\n     * @dev Deprecated. This function has issues similar to the ones found in\r\n     * {IERC20-approve}, and its usage is discouraged.\r\n     *\r\n     * Whenever possible, use {safeIncreaseAllowance} and\r\n     * {safeDecreaseAllowance} instead.\r\n     */\r\n    function safeApprove(\r\n        IERC20 token,\r\n        address spender,\r\n        uint256 value\r\n    ) internal {\r\n        // safeApprove should only be called when setting an initial allowance,\r\n        // or when resetting it to zero. To increase and decrease it, use\r\n        // 'safeIncreaseAllowance' and 'safeDecreaseAllowance'\r\n        require(\r\n            (value == 0) || (token.allowance(address(this), spender) == 0),\r\n            \"SafeERC20: approve from non-zero to non-zero allowance\"\r\n        );\r\n        _callOptionalReturn(token, abi.encodeWithSelector(token.approve.selector, spender, value));\r\n    }\r\n\r\n    function safeIncreaseAllowance(\r\n        IERC20 token,\r\n        address spender,\r\n        uint256 value\r\n    ) internal {\r\n        uint256 newAllowance = token.allowance(address(this), spender) + value;\r\n        _callOptionalReturn(token, abi.encodeWithSelector(token.approve.selector, spender, newAllowance));\r\n    }\r\n\r\n    function safeDecreaseAllowance(\r\n        IERC20 token,\r\n        address spender,\r\n        uint256 value\r\n    ) internal {\r\n        unchecked {\r\n            uint256 oldAllowance = token.allowance(address(this), spender);\r\n            require(oldAllowance >= value, \"SafeERC20: decreased allowance below zero\");\r\n            uint256 newAllowance = oldAllowance - value;\r\n            _callOptionalReturn(token, abi.encodeWithSelector(token.approve.selector, spender, newAllowance));\r\n        }\r\n    }\r\n\r\n    /**\r\n     * @dev Imitates a Solidity high-level call (i.e. a regular function call to a contract), relaxing the requirement\r\n     * on the return value: the return value is optional (but if data is returned, it must not be false).\r\n     * @param token The token targeted by the call.\r\n     * @param data The call data (encoded using abi.encode or one of its variants).\r\n     */\r\n    function _callOptionalReturn(IERC20 token, bytes memory data) private {\r\n        // We need to perform a low level call here, to bypass Solidity's return data size checking mechanism, since\r\n        // we're implementing it ourselves. We use {Address.functionCall} to perform this call, which verifies that\r\n        // the target address contains contract code and also asserts for success in the low-level call.\r\n\r\n        bytes memory returndata = address(token).functionCall(data, \"SafeERC20: low-level call failed\");\r\n        if (returndata.length > 0) {\r\n            // Return data is optional\r\n            require(abi.decode(returndata, (bool)), \"SafeERC20: ERC20 operation did not succeed\");\r\n        }\r\n    }\r\n}\r\n\r\npragma solidity ^0.8.0;\r\n\r\ninterface AggregatorV3Interface {\r\n\r\n  function decimals()\r\n    external\r\n    view\r\n    returns (\r\n      uint8\r\n    );\r\n\r\n  function description()\r\n    external\r\n    view\r\n    returns (\r\n      string memory\r\n    );\r\n\r\n  function version()\r\n    external\r\n    view\r\n    returns (\r\n      uint256\r\n    );\r\n\r\n  // getRoundData and latestRoundData should both raise \"No data present\"\r\n  // if they do not have data to report, instead of returning unset values\r\n  // which could be misinterpreted as actual reported values.\r\n  function getRoundData(\r\n    uint80 _roundId\r\n  )\r\n    external\r\n    view\r\n    returns (\r\n      uint80 roundId,\r\n      int256 answer,\r\n      uint256 startedAt,\r\n      uint256 updatedAt,\r\n      uint80 answeredInRound\r\n    );\r\n\r\n  function latestRoundData()\r\n    external\r\n    view\r\n    returns (\r\n      uint80 roundId,\r\n      int256 answer,\r\n      uint256 startedAt,\r\n      uint256 updatedAt,\r\n      uint80 answeredInRound\r\n    );\r\n\r\n}\r\n\r\npragma solidity ^0.8.0;\r\npragma abicoder v2;\r\n\r\n/**\r\n * @title PancakePredictionV2\r\n */\r\ncontract PancakePredictionV2 is Ownable, Pausable, ReentrancyGuard {\r\n    using SafeERC20 for IERC20;\r\n\r\n    AggregatorV3Interface public oracle;\r\n\r\n    bool public genesisLockOnce = false;\r\n    bool public genesisStartOnce = false;\r\n\r\n    address public adminAddress; // address of the admin\r\n    address public operatorAddress; // address of the operator\r\n\r\n    uint256 public bufferSeconds; // number of seconds for valid execution of a prediction round\r\n    uint256 public intervalSeconds; // interval in seconds between two prediction rounds\r\n\r\n    uint256 public minBetAmount; // minimum betting amount (denominated in wei)\r\n    uint256 public treasuryFee; // treasury rate (e.g. 200 = 2%, 150 = 1.50%)\r\n    uint256 public treasuryAmount; // treasury amount that was not claimed\r\n\r\n    uint256 public currentEpoch; // current epoch for prediction round\r\n\r\n    uint256 public oracleLatestRoundId; // converted from uint80 (Chainlink)\r\n    uint256 public oracleUpdateAllowance; // seconds\r\n\r\n    uint256 public constant MAX_TREASURY_FEE = 1000; // 10%\r\n    \r\n    mapping(uint256 => mapping(address => BetInfo)) public ledger;\r\n    mapping(uint256 => Round) public rounds;\r\n    mapping(address => uint256[]) public userRounds;\r\n\r\n    enum Position {\r\n        Bull,\r\n        Bear\r\n    }\r\n\r\n    struct Round {\r\n        uint256 epoch;\r\n        uint256 startTimestamp;\r\n        uint256 lockTimestamp;\r\n        uint256 closeTimestamp;\r\n        int256 lockPrice;\r\n        int256 closePrice;\r\n        uint256 lockOracleId;\r\n        uint256 closeOracleId;\r\n        uint256 totalAmount;\r\n        uint256 bullAmount;\r\n        uint256 bearAmount;\r\n        uint256 rewardBaseCalAmount;\r\n        uint256 rewardAmount;\r\n        bool oracleCalled;\r\n    }\r\n\r\n    struct BetInfo {\r\n        Position position;\r\n        uint256 amount;\r\n        bool claimed; // default false\r\n    }\r\n\r\n    event BetBear(address indexed sender, uint256 indexed epoch, uint256 amount);\r\n    event BetBull(address indexed sender, uint256 indexed epoch, uint256 amount);\r\n    event Claim(address indexed sender, uint256 indexed epoch, uint256 amount);\r\n    event EndRound(uint256 indexed epoch, uint256 indexed roundId, int256 price);\r\n    event LockRound(uint256 indexed epoch, uint256 indexed roundId, int256 price);\r\n\r\n    event NewAdminAddress(address admin);\r\n    event NewBufferAndIntervalSeconds(uint256 bufferSeconds, uint256 intervalSeconds);\r\n    event NewMinBetAmount(uint256 indexed epoch, uint256 minBetAmount);\r\n    event NewTreasuryFee(uint256 indexed epoch, uint256 treasuryFee);\r\n    event NewOperatorAddress(address operator);\r\n    event NewOracle(address oracle);\r\n    event NewOracleUpdateAllowance(uint256 oracleUpdateAllowance);\r\n\r\n    event Pause(uint256 indexed epoch);\r\n    event RewardsCalculated(\r\n        uint256 indexed epoch,\r\n        uint256 rewardBaseCalAmount,\r\n        uint256 rewardAmount,\r\n        uint256 treasuryAmount\r\n    );\r\n\r\n    event StartRound(uint256 indexed epoch);\r\n    event TokenRecovery(address indexed token, uint256 amount);\r\n    event TreasuryClaim(uint256 amount);\r\n    event Unpause(uint256 indexed epoch);\r\n\r\n    modifier onlyAdmin() {\r\n        require(msg.sender == adminAddress, \"Not admin\");\r\n        _;\r\n    }\r\n\r\n    modifier onlyAdminOrOperator() {\r\n        require(msg.sender == adminAddress || msg.sender == operatorAddress, \"Not operator/admin\");\r\n        _;\r\n    }\r\n\r\n    modifier onlyOperator() {\r\n        require(msg.sender == operatorAddress, \"Not operator\");\r\n        _;\r\n    }\r\n\r\n    modifier notContract() {\r\n        require(!_isContract(msg.sender), \"Contract not allowed\");\r\n        require(msg.sender == tx.origin, \"Proxy contract not allowed\");\r\n        _;\r\n    }\r\n\r\n    /**\r\n     * @notice Constructor\r\n     * @param _oracleAddress: oracle address\r\n     * @param _adminAddress: admin address\r\n     * @param _operatorAddress: operator address\r\n     * @param _intervalSeconds: number of time within an interval\r\n     * @param _bufferSeconds: buffer of time for resolution of price\r\n     * @param _minBetAmount: minimum bet amounts (in wei)\r\n     * @param _oracleUpdateAllowance: oracle update allowance\r\n     * @param _treasuryFee: treasury fee (1000 = 10%)\r\n     */\r\n    constructor(\r\n        address _oracleAddress,\r\n        address _adminAddress,\r\n        address _operatorAddress,\r\n        uint256 _intervalSeconds,\r\n        uint256 _bufferSeconds,\r\n        uint256 _minBetAmount,\r\n        uint256 _oracleUpdateAllowance,\r\n        uint256 _treasuryFee\r\n    ) {\r\n        require(_treasuryFee <= MAX_TREASURY_FEE, \"Treasury fee too high\");\r\n\r\n        oracle = AggregatorV3Interface(_oracleAddress);\r\n        adminAddress = _adminAddress;\r\n        operatorAddress = _operatorAddress;\r\n        intervalSeconds = _intervalSeconds;\r\n        bufferSeconds = _bufferSeconds;\r\n        minBetAmount = _minBetAmount;\r\n        oracleUpdateAllowance = _oracleUpdateAllowance;\r\n        treasuryFee = _treasuryFee;\r\n    }\r\n\r\n    /**\r\n     * @notice Bet bear position\r\n     * @param epoch: epoch\r\n     */\r\n    function betBear(uint256 epoch) external payable whenNotPaused nonReentrant notContract {\r\n        require(epoch == currentEpoch, \"Bet is too early/late\");\r\n        require(_bettable(epoch), \"Round not bettable\");\r\n        require(msg.value >= minBetAmount, \"Bet amount must be greater than minBetAmount\");\r\n        require(ledger[epoch][msg.sender].amount == 0, \"Can only bet once per round\");\r\n\r\n        // Update round data\r\n        uint256 amount = msg.value;\r\n        Round storage round = rounds[epoch];\r\n        round.totalAmount = round.totalAmount + amount;\r\n        round.bearAmount = round.bearAmount + amount;\r\n\r\n        // Update user data\r\n        BetInfo storage betInfo = ledger[epoch][msg.sender];\r\n        betInfo.position = Position.Bear;\r\n        betInfo.amount = amount;\r\n        userRounds[msg.sender].push(epoch);\r\n\r\n        emit BetBear(msg.sender, epoch, amount);\r\n    }\r\n\r\n    /**\r\n     * @notice Bet bull position\r\n     * @param epoch: epoch\r\n     */\r\n    function betBull(uint256 epoch) external payable whenNotPaused nonReentrant notContract {\r\n        require(epoch == currentEpoch, \"Bet is too early/late\");\r\n        require(_bettable(epoch), \"Round not bettable\");\r\n        require(msg.value >= minBetAmount, \"Bet amount must be greater than minBetAmount\");\r\n        require(ledger[epoch][msg.sender].amount == 0, \"Can only bet once per round\");\r\n\r\n        // Update round data\r\n        uint256 amount = msg.value;\r\n        Round storage round = rounds[epoch];\r\n        round.totalAmount = round.totalAmount + amount;\r\n        round.bullAmount = round.bullAmount + amount;\r\n\r\n        // Update user data\r\n        BetInfo storage betInfo = ledger[epoch][msg.sender];\r\n        betInfo.position = Position.Bull;\r\n        betInfo.amount = amount;\r\n        userRounds[msg.sender].push(epoch);\r\n\r\n        emit BetBull(msg.sender, epoch, amount);\r\n    }\r\n\r\n    function getBalance() public view returns (uint256) {\r\n        return address(this).balance;\r\n    }\r\n\r\n    function deposit() public payable {\r\n        \r\n    }    \r\n\r\n    function claim(uint256[] calldata epochs) external nonReentrant notContract {\r\n        uint256 reward; // Initializes reward\r\n\r\n        for (uint256 i = 0; i < epochs.length; i++) {\r\n            require(rounds[epochs[i]].startTimestamp != 0, \"Round has not started\");\r\n            require(block.timestamp > rounds[epochs[i]].closeTimestamp, \"Round has not ended\");\r\n\r\n            uint256 addedReward = 0;\r\n\r\n            // Round valid, claim rewards\r\n            if (rounds[epochs[i]].oracleCalled) {\r\n                require(claimable(epochs[i], msg.sender), \"Not eligible for claim\");\r\n                Round memory round = rounds[epochs[i]];\r\n                addedReward = (ledger[epochs[i]][msg.sender].amount * round.rewardAmount) / round.rewardBaseCalAmount;\r\n            }\r\n            // Round invalid, refund bet amount\r\n            else {\r\n                require(refundable(epochs[i], msg.sender), \"Not eligible for refund\");\r\n                addedReward = ledger[epochs[i]][msg.sender].amount;\r\n            }\r\n\r\n            ledger[epochs[i]][msg.sender].claimed = true;\r\n            reward += addedReward;\r\n\r\n            emit Claim(msg.sender, epochs[i], addedReward);\r\n        }\r\n\r\n        if (reward > 0) {\r\n            _safeTransferBNB(address(msg.sender), reward);\r\n        }\r\n    }\r\n\r\n    /**\r\n     * @notice Start the next round n, lock price for round n-1, end round n-2\r\n     * @dev Callable by operator\r\n     */\r\n    function executeRound() external whenNotPaused onlyAdminOrOperator {\r\n        require(\r\n            genesisStartOnce && genesisLockOnce,\r\n            \"Can only run after genesisStartRound and genesisLockRound is triggered\"\r\n        );\r\n\r\n        (uint80 currentRoundId, int256 currentPrice) = _getPriceFromOracle();\r\n\r\n        oracleLatestRoundId = uint256(currentRoundId);\r\n\r\n        // CurrentEpoch refers to previous round (n-1)\r\n        _safeLockRound(currentEpoch, currentRoundId, currentPrice);\r\n        _safeEndRound(currentEpoch - 1, currentRoundId, currentPrice);\r\n        _calculateRewards(currentEpoch - 1);\r\n\r\n        // Increment currentEpoch to current round (n)\r\n        currentEpoch = currentEpoch + 1;\r\n        _safeStartRound(currentEpoch);\r\n    }\r\n\r\n    /**\r\n     * @notice Lock genesis round\r\n     * @dev Callable by operator\r\n     */\r\n    function genesisLockRound() external whenNotPaused onlyAdminOrOperator {\r\n        require(genesisStartOnce, \"Can only run after genesisStartRound is triggered\");\r\n        require(!genesisLockOnce, \"Can only run genesisLockRound once\");\r\n\r\n        (uint80 currentRoundId, int256 currentPrice) = _getPriceFromOracle();\r\n\r\n        oracleLatestRoundId = uint256(currentRoundId);\r\n\r\n        _safeLockRound(currentEpoch, currentRoundId, currentPrice);\r\n\r\n        currentEpoch = currentEpoch + 1;\r\n        _startRound(currentEpoch);\r\n        genesisLockOnce = true;\r\n    }\r\n\r\n    /**\r\n     * @notice Start genesis round\r\n     * @dev Callable by admin or operator\r\n     */\r\n    function genesisStartRound() external whenNotPaused onlyAdminOrOperator {\r\n        require(!genesisStartOnce, \"Can only run genesisStartRound once\");\r\n\r\n        currentEpoch = currentEpoch + 1;\r\n        _startRound(currentEpoch);\r\n        genesisStartOnce = true;\r\n    }\r\n    /**\r\n     * @notice called by the admin to pause, triggers stopped state\r\n     * @dev Callable by admin or operator\r\n     */\r\n    function pause() external whenNotPaused onlyAdminOrOperator {\r\n        _pause();\r\n\r\n        emit Pause(currentEpoch);\r\n    }\r\n\r\n    /**\r\n     * @notice Claim all rewards in treasury\r\n     * @dev Callable by admin\r\n     */\r\n    function claimTreasury() external nonReentrant onlyAdmin {\r\n        uint256 currentTreasuryAmount = treasuryAmount;\r\n        treasuryAmount = 0;\r\n        _safeTransferBNB(adminAddress, currentTreasuryAmount);\r\n\r\n        emit TreasuryClaim(currentTreasuryAmount);\r\n    }\r\n\r\n    /**\r\n     * @notice called by the admin to unpause, returns to normal state\r\n     * Reset genesis state. Once paused, the rounds would need to be kickstarted by genesis\r\n     */\r\n    function unpause() external whenPaused onlyAdmin {\r\n        genesisStartOnce = false;\r\n        genesisLockOnce = false;\r\n        _unpause();\r\n\r\n        emit Unpause(currentEpoch);\r\n    }\r\n\r\n    /**\r\n     * @notice Set buffer and interval (in seconds)\r\n     * @dev Callable by admin\r\n     */\r\n    function setBufferAndIntervalSeconds(uint256 _bufferSeconds, uint256 _intervalSeconds)\r\n        external\r\n        whenPaused\r\n        onlyAdmin\r\n    {\r\n        require(_bufferSeconds < _intervalSeconds, \"bufferSeconds must be inferior to intervalSeconds\");\r\n        bufferSeconds = _bufferSeconds;\r\n        intervalSeconds = _intervalSeconds;\r\n\r\n        emit NewBufferAndIntervalSeconds(_bufferSeconds, _intervalSeconds);\r\n    }\r\n\r\n    /**\r\n     * @notice Set minBetAmount\r\n     * @dev Callable by admin\r\n     */\r\n    function setMinBetAmount(uint256 _minBetAmount) external whenPaused onlyAdmin {\r\n        require(_minBetAmount != 0, \"Must be superior to 0\");\r\n        minBetAmount = _minBetAmount;\r\n\r\n        emit NewMinBetAmount(currentEpoch, minBetAmount);\r\n    }\r\n\r\n    /**\r\n     * @notice Set operator address\r\n     * @dev Callable by admin\r\n     */\r\n    function setOperator(address _operatorAddress) external onlyAdmin {\r\n        require(_operatorAddress != address(0), \"Cannot be zero address\");\r\n        operatorAddress = _operatorAddress;\r\n\r\n        emit NewOperatorAddress(_operatorAddress);\r\n    }\r\n\r\n    /**\r\n     * @notice Set Oracle address\r\n     * @dev Callable by admin\r\n     */\r\n    function setOracle(address _oracle) external whenPaused onlyAdmin {\r\n        require(_oracle != address(0), \"Cannot be zero address\");\r\n        oracleLatestRoundId = 0;\r\n        oracle = AggregatorV3Interface(_oracle);\r\n\r\n        // Dummy check to make sure the interface implements this function properly\r\n        oracle.latestRoundData();\r\n\r\n        emit NewOracle(_oracle);\r\n    }\r\n\r\n    /**\r\n     * @notice Set oracle update allowance\r\n     * @dev Callable by admin\r\n     */\r\n    function setOracleUpdateAllowance(uint256 _oracleUpdateAllowance) external whenPaused onlyAdmin {\r\n        oracleUpdateAllowance = _oracleUpdateAllowance;\r\n\r\n        emit NewOracleUpdateAllowance(_oracleUpdateAllowance);\r\n    }\r\n\r\n    /**\r\n     * @notice Set treasury fee\r\n     * @dev Callable by admin\r\n     */\r\n    function setTreasuryFee(uint256 _treasuryFee) external whenPaused onlyAdmin {\r\n        require(_treasuryFee <= MAX_TREASURY_FEE, \"Treasury fee too high\");\r\n        treasuryFee = _treasuryFee;\r\n\r\n        emit NewTreasuryFee(currentEpoch, treasuryFee);\r\n    }\r\n\r\n    /**\r\n     * @notice It allows the owner to recover tokens sent to the contract by mistake\r\n     * @param _token: token address\r\n     * @param _amount: token amount\r\n     * @dev Callable by owner\r\n     */\r\n    function recoverToken(address _token, uint256 _amount) external onlyOwner {\r\n        IERC20(_token).safeTransfer(address(msg.sender), _amount);\r\n\r\n        emit TokenRecovery(_token, _amount);\r\n    }\r\n\r\n    /**\r\n     * @notice Set admin address\r\n     * @dev Callable by owner\r\n     */\r\n    function setAdmin(address _adminAddress) external onlyOwner {\r\n        require(_adminAddress != address(0), \"Cannot be zero address\");\r\n        adminAddress = _adminAddress;\r\n\r\n        emit NewAdminAddress(_adminAddress);\r\n    }\r\n\r\n    /**\r\n     * @notice Returns round epochs and bet information for a user that has participated\r\n     * @param user: user address\r\n     * @param cursor: cursor\r\n     * @param size: size\r\n     */\r\n    function getUserRounds(\r\n        address user,\r\n        uint256 cursor,\r\n        uint256 size\r\n    )\r\n        external\r\n        view\r\n        returns (\r\n            uint256[] memory,\r\n            BetInfo[] memory,\r\n            uint256\r\n        )\r\n    {\r\n        uint256 length = size;\r\n\r\n        if (length > userRounds[user].length - cursor) {\r\n            length = userRounds[user].length - cursor;\r\n        }\r\n\r\n        uint256[] memory values = new uint256[](length);\r\n        BetInfo[] memory betInfo = new BetInfo[](length);\r\n\r\n        for (uint256 i = 0; i < length; i++) {\r\n            values[i] = userRounds[user][cursor + i];\r\n            betInfo[i] = ledger[values[i]][user];\r\n        }\r\n\r\n        return (values, betInfo, cursor + length);\r\n    }\r\n\r\n    /**\r\n     * @notice Returns round epochs length\r\n     * @param user: user address\r\n     */\r\n    function getUserRoundsLength(address user) external view returns (uint256) {\r\n        return userRounds[user].length;\r\n    }\r\n\r\n    /**\r\n     * @notice Get the claimable stats of specific epoch and user account\r\n     * @param epoch: epoch\r\n     * @param user: user address\r\n     */\r\n    function claimable(uint256 epoch, address user) public view returns (bool) {\r\n        BetInfo memory betInfo = ledger[epoch][user];\r\n        Round memory round = rounds[epoch];\r\n        if (round.lockPrice == round.closePrice) {\r\n            return false;\r\n        }\r\n        return\r\n            round.oracleCalled &&\r\n            betInfo.amount != 0 &&\r\n            !betInfo.claimed &&\r\n            ((round.closePrice > round.lockPrice && betInfo.position == Position.Bull) ||\r\n                (round.closePrice < round.lockPrice && betInfo.position == Position.Bear));\r\n    }\r\n\r\n    /**\r\n     * @notice Get the refundable stats of specific epoch and user account\r\n     * @param epoch: epoch\r\n     * @param user: user address\r\n     */\r\n    function refundable(uint256 epoch, address user) public view returns (bool) {\r\n        BetInfo memory betInfo = ledger[epoch][user];\r\n        Round memory round = rounds[epoch];\r\n        return\r\n            !round.oracleCalled &&\r\n            !betInfo.claimed &&\r\n            block.timestamp > round.closeTimestamp + bufferSeconds &&\r\n            betInfo.amount != 0;\r\n    }\r\n\r\n    /**\r\n     * @notice Calculate rewards for round\r\n     * @param epoch: epoch\r\n     */\r\n    function _calculateRewards(uint256 epoch) internal {\r\n        require(rounds[epoch].rewardBaseCalAmount == 0 && rounds[epoch].rewardAmount == 0, \"Rewards calculated\");\r\n        Round storage round = rounds[epoch];\r\n        uint256 rewardBaseCalAmount;\r\n        uint256 treasuryAmt;\r\n        uint256 rewardAmount;\r\n\r\n        // Bull wins\r\n        if (round.closePrice > round.lockPrice) {\r\n            rewardBaseCalAmount = round.bullAmount;\r\n            treasuryAmt = (round.totalAmount * treasuryFee) / 10000;\r\n            rewardAmount = round.totalAmount - treasuryAmt;\r\n        }\r\n        // Bear wins\r\n        else if (round.closePrice < round.lockPrice) {\r\n            rewardBaseCalAmount = round.bearAmount;\r\n            treasuryAmt = (round.totalAmount * treasuryFee) / 10000;\r\n            rewardAmount = round.totalAmount - treasuryAmt;\r\n        }\r\n        // House wins\r\n        else {\r\n            rewardBaseCalAmount = 0;\r\n            rewardAmount = 0;\r\n            treasuryAmt = round.totalAmount;\r\n        }\r\n        round.rewardBaseCalAmount = rewardBaseCalAmount;\r\n        round.rewardAmount = rewardAmount;\r\n\r\n        // Add to treasury\r\n        treasuryAmount += treasuryAmt;\r\n\r\n        emit RewardsCalculated(epoch, rewardBaseCalAmount, rewardAmount, treasuryAmt);\r\n    }\r\n\r\n    /**\r\n     * @notice End round\r\n     * @param epoch: epoch\r\n     * @param roundId: roundId\r\n     * @param price: price of the round\r\n     */\r\n    function _safeEndRound(\r\n        uint256 epoch,\r\n        uint256 roundId,\r\n        int256 price\r\n    ) internal {\r\n        require(rounds[epoch].lockTimestamp != 0, \"Can only end round after round has locked\");\r\n        require(block.timestamp >= rounds[epoch].closeTimestamp, \"Can only end round after closeTimestamp\");\r\n        require(\r\n            block.timestamp <= rounds[epoch].closeTimestamp + bufferSeconds,\r\n            \"Can only end round within bufferSeconds\"\r\n        );\r\n        Round storage round = rounds[epoch];\r\n        round.closePrice = price;\r\n        round.closeOracleId = roundId;\r\n        round.oracleCalled = true;\r\n\r\n        emit EndRound(epoch, roundId, round.closePrice);\r\n    }\r\n\r\n    /**\r\n     * @notice Lock round\r\n     * @param epoch: epoch\r\n     * @param roundId: roundId\r\n     * @param price: price of the round\r\n     */\r\n    function _safeLockRound(\r\n        uint256 epoch,\r\n        uint256 roundId,\r\n        int256 price\r\n    ) internal {\r\n        require(rounds[epoch].startTimestamp != 0, \"Can only lock round after round has started\");\r\n        require(block.timestamp >= rounds[epoch].lockTimestamp, \"Can only lock round after lockTimestamp\");\r\n        require(\r\n            block.timestamp <= rounds[epoch].lockTimestamp + bufferSeconds,\r\n            \"Can only lock round within bufferSeconds\"\r\n        );\r\n        Round storage round = rounds[epoch];\r\n        round.closeTimestamp = block.timestamp + intervalSeconds;\r\n        round.lockPrice = price;\r\n        round.lockOracleId = roundId;\r\n\r\n        emit LockRound(epoch, roundId, round.lockPrice);\r\n    }\r\n\r\n    /**\r\n     * @notice Start round\r\n     * Previous round n-2 must end\r\n     * @param epoch: epoch\r\n     */\r\n    function _safeStartRound(uint256 epoch) internal {\r\n        require(genesisStartOnce, \"Can only run after genesisStartRound is triggered\");\r\n        require(rounds[epoch - 2].closeTimestamp != 0, \"Can only start round after round n-2 has ended\");\r\n        require(\r\n            block.timestamp >= rounds[epoch - 2].closeTimestamp,\r\n            \"Can only start new round after round n-2 closeTimestamp\"\r\n        );\r\n        _startRound(epoch);\r\n    }\r\n\r\n    /**\r\n     * @notice Transfer BNB in a safe way\r\n     * @param to: address to transfer BNB to\r\n     * @param value: BNB amount to transfer (in wei)\r\n     */\r\n    function _safeTransferBNB(address to, uint256 value) internal {\r\n        (bool success, ) = to.call{value: value}(\"\");\r\n        require(success, \"TransferHelper: BNB_TRANSFER_FAILED\");\r\n    }\r\n\r\n    /**\r\n     * @notice Start round\r\n     * Previous round n-2 must end\r\n     * @param epoch: epoch\r\n     */\r\n    function _startRound(uint256 epoch) internal {\r\n        Round storage round = rounds[epoch];\r\n        round.startTimestamp = block.timestamp;\r\n        round.lockTimestamp = block.timestamp + intervalSeconds;\r\n        round.closeTimestamp = block.timestamp + (2 * intervalSeconds);\r\n        round.epoch = epoch;\r\n        round.totalAmount = 0;\r\n\r\n        emit StartRound(epoch);\r\n    }\r\n\r\n    /**\r\n     * @notice Determine if a round is valid for receiving bets\r\n     * Round must have started and locked\r\n     * Current timestamp must be within startTimestamp and closeTimestamp\r\n     */\r\n    function _bettable(uint256 epoch) internal view returns (bool) {\r\n        return\r\n            rounds[epoch].startTimestamp != 0 &&\r\n            rounds[epoch].lockTimestamp != 0 &&\r\n            block.timestamp > rounds[epoch].startTimestamp &&\r\n            block.timestamp < rounds[epoch].lockTimestamp;\r\n    }\r\n\r\n    /**\r\n     * @notice Get latest recorded price from oracle\r\n     * If it falls below allowed buffer or has not updated, it would be invalid.\r\n     */\r\n    function _getPriceFromOracleView() external view returns (uint256) {\r\n\r\n        (uint80 roundId, , , , ) = oracle.latestRoundData();\r\n        return (roundId);\r\n    }\r\n         \r\n    function _getPriceFromOracle() internal view returns (uint80, int256) {\r\n        uint256 leastAllowedTimestamp = block.timestamp + oracleUpdateAllowance;\r\n        (uint80 roundId, int256 price, , uint256 timestamp, ) = oracle.latestRoundData();\r\n        require(timestamp <= leastAllowedTimestamp, \"Oracle update exceeded max timestamp allowance\");\r\n        require(\r\n            uint256(roundId) >= oracleLatestRoundId,\r\n            \"Oracle update roundId must be larger than oracleLatestRoundId\"\r\n        );\r\n        return (roundId, price);\r\n    }\r\n\r\n    /**\r\n     * @notice Returns true if `account` is a contract.\r\n     * @param account: account address\r\n     */\r\n    function _isContract(address account) internal view returns (bool) {\r\n        uint256 size;\r\n        assembly {\r\n            size := extcodesize(account)\r\n        }\r\n        return size > 0;\r\n    }\r\n}",
  "sourcePath": "G:\\Node Projects\\Betting-Project\\betting-prediction-fork\\backend\\contracts\\PancakePredictionV2.sol",
  "compiler": {
    "name": "solc",
    "version": "0.8.10+commit.fc410830.Emscripten.clang"
  },
  "schemaVersion": "3.4.4",
  "updatedAt": "2022-03-01T16:40:01.980Z",
  "networkType": "ethereum",
  "devdoc": {
    "kind": "dev",
    "methods": {
      "betBear(uint256)": {
        "params": {
          "epoch": ": epoch"
        }
      },
      "betBull(uint256)": {
        "params": {
          "epoch": ": epoch"
        }
      },
      "claimTreasury()": {
        "details": "Callable by admin"
      },
      "claimable(uint256,address)": {
        "params": {
          "epoch": ": epoch",
          "user": ": user address"
        }
      },
      "constructor": {
        "params": {
          "_adminAddress": ": admin address",
          "_bufferSeconds": ": buffer of time for resolution of price",
          "_intervalSeconds": ": number of time within an interval",
          "_minBetAmount": ": minimum bet amounts (in wei)",
          "_operatorAddress": ": operator address",
          "_oracleAddress": ": oracle address",
          "_oracleUpdateAllowance": ": oracle update allowance",
          "_treasuryFee": ": treasury fee (1000 = 10%)"
        }
      },
      "executeRound()": {
        "details": "Callable by operator"
      },
      "genesisLockRound()": {
        "details": "Callable by operator"
      },
      "genesisStartRound()": {
        "details": "Callable by admin or operator"
      },
      "getUserRounds(address,uint256,uint256)": {
        "params": {
          "cursor": ": cursor",
          "size": ": size",
          "user": ": user address"
        }
      },
      "getUserRoundsLength(address)": {
        "params": {
          "user": ": user address"
        }
      },
      "owner()": {
        "details": "Returns the address of the current owner."
      },
      "pause()": {
        "details": "Callable by admin or operator"
      },
      "paused()": {
        "details": "Returns true if the contract is paused, and false otherwise."
      },
      "recoverToken(address,uint256)": {
        "details": "Callable by owner",
        "params": {
          "_amount": ": token amount",
          "_token": ": token address"
        }
      },
      "refundable(uint256,address)": {
        "params": {
          "epoch": ": epoch",
          "user": ": user address"
        }
      },
      "renounceOwnership()": {
        "details": "Leaves the contract without owner. It will not be possible to call `onlyOwner` functions anymore. Can only be called by the current owner. NOTE: Renouncing ownership will leave the contract without an owner, thereby removing any functionality that is only available to the owner."
      },
      "setAdmin(address)": {
        "details": "Callable by owner"
      },
      "setBufferAndIntervalSeconds(uint256,uint256)": {
        "details": "Callable by admin"
      },
      "setMinBetAmount(uint256)": {
        "details": "Callable by admin"
      },
      "setOperator(address)": {
        "details": "Callable by admin"
      },
      "setOracle(address)": {
        "details": "Callable by admin"
      },
      "setOracleUpdateAllowance(uint256)": {
        "details": "Callable by admin"
      },
      "setTreasuryFee(uint256)": {
        "details": "Callable by admin"
      },
      "transferOwnership(address)": {
        "details": "Transfers ownership of the contract to a new account (`newOwner`). Can only be called by the current owner."
      }
    },
    "title": "PancakePredictionV2",
    "version": 1
  },
  "userdoc": {
    "kind": "user",
    "methods": {
      "_getPriceFromOracleView()": {
        "notice": "Get latest recorded price from oracle If it falls below allowed buffer or has not updated, it would be invalid."
      },
      "betBear(uint256)": {
        "notice": "Bet bear position"
      },
      "betBull(uint256)": {
        "notice": "Bet bull position"
      },
      "claimTreasury()": {
        "notice": "Claim all rewards in treasury"
      },
      "claimable(uint256,address)": {
        "notice": "Get the claimable stats of specific epoch and user account"
      },
      "constructor": {
        "notice": "Constructor"
      },
      "executeRound()": {
        "notice": "Start the next round n, lock price for round n-1, end round n-2"
      },
      "genesisLockRound()": {
        "notice": "Lock genesis round"
      },
      "genesisStartRound()": {
        "notice": "Start genesis round"
      },
      "getUserRounds(address,uint256,uint256)": {
        "notice": "Returns round epochs and bet information for a user that has participated"
      },
      "getUserRoundsLength(address)": {
        "notice": "Returns round epochs length"
      },
      "pause()": {
        "notice": "called by the admin to pause, triggers stopped state"
      },
      "recoverToken(address,uint256)": {
        "notice": "It allows the owner to recover tokens sent to the contract by mistake"
      },
      "refundable(uint256,address)": {
        "notice": "Get the refundable stats of specific epoch and user account"
      },
      "setAdmin(address)": {
        "notice": "Set admin address"
      },
      "setBufferAndIntervalSeconds(uint256,uint256)": {
        "notice": "Set buffer and interval (in seconds)"
      },
      "setMinBetAmount(uint256)": {
        "notice": "Set minBetAmount"
      },
      "setOperator(address)": {
        "notice": "Set operator address"
      },
      "setOracle(address)": {
        "notice": "Set Oracle address"
      },
      "setOracleUpdateAllowance(uint256)": {
        "notice": "Set oracle update allowance"
      },
      "setTreasuryFee(uint256)": {
        "notice": "Set treasury fee"
      },
      "unpause()": {
        "notice": "called by the admin to unpause, returns to normal state Reset genesis state. Once paused, the rounds would need to be kickstarted by genesis"
      }
    },
    "version": 1
  }
}