{
  "contractName": "CoinFlipPrediction",
  "abi": [
    {
      "anonymous": false,
      "inputs": [
        {
          "indexed": true,
          "internalType": "address",
          "name": "sender",
          "type": "address"
        },
        {
          "indexed": false,
          "internalType": "bool",
          "name": "",
          "type": "bool"
        },
        {
          "indexed": false,
          "internalType": "uint256",
          "name": "amount",
          "type": "uint256"
        }
      ],
      "name": "BetPlaced",
      "type": "event"
    },
    {
      "anonymous": false,
      "inputs": [
        {
          "indexed": false,
          "internalType": "string",
          "name": "mesg",
          "type": "string"
        }
      ],
      "name": "GameMessage",
      "type": "event"
    },
    {
      "inputs": [],
      "name": "betAmount",
      "outputs": [
        {
          "internalType": "uint256",
          "name": "",
          "type": "uint256"
        }
      ],
      "stateMutability": "view",
      "type": "function",
      "constant": true
    },
    {
      "inputs": [],
      "name": "expiration",
      "outputs": [
        {
          "internalType": "uint256",
          "name": "",
          "type": "uint256"
        }
      ],
      "stateMutability": "view",
      "type": "function",
      "constant": true
    },
    {
      "inputs": [],
      "name": "player1",
      "outputs": [
        {
          "internalType": "address",
          "name": "",
          "type": "address"
        }
      ],
      "stateMutability": "view",
      "type": "function",
      "constant": true
    },
    {
      "inputs": [],
      "name": "player1Commitment",
      "outputs": [
        {
          "internalType": "bytes32",
          "name": "",
          "type": "bytes32"
        }
      ],
      "stateMutability": "view",
      "type": "function",
      "constant": true
    },
    {
      "inputs": [],
      "name": "player2",
      "outputs": [
        {
          "internalType": "address",
          "name": "",
          "type": "address"
        }
      ],
      "stateMutability": "view",
      "type": "function",
      "constant": true
    },
    {
      "inputs": [],
      "name": "player2Choice",
      "outputs": [
        {
          "internalType": "bool",
          "name": "",
          "type": "bool"
        }
      ],
      "stateMutability": "view",
      "type": "function",
      "constant": true
    },
    {
      "inputs": [
        {
          "internalType": "bytes32",
          "name": "commitment",
          "type": "bytes32"
        }
      ],
      "name": "CoinFlip",
      "outputs": [],
      "stateMutability": "nonpayable",
      "type": "function"
    },
    {
      "inputs": [],
      "name": "cancel",
      "outputs": [],
      "stateMutability": "nonpayable",
      "type": "function"
    },
    {
      "inputs": [
        {
          "internalType": "bool",
          "name": "choice",
          "type": "bool"
        }
      ],
      "name": "takeBet",
      "outputs": [],
      "stateMutability": "payable",
      "type": "function",
      "payable": true
    },
    {
      "inputs": [
        {
          "internalType": "bool",
          "name": "choice",
          "type": "bool"
        },
        {
          "internalType": "uint256",
          "name": "nonce",
          "type": "uint256"
        }
      ],
      "name": "reveal",
      "outputs": [],
      "stateMutability": "nonpayable",
      "type": "function"
    },
    {
      "inputs": [],
      "name": "result007",
      "outputs": [
        {
          "internalType": "uint256",
          "name": "",
          "type": "uint256"
        }
      ],
      "stateMutability": "view",
      "type": "function",
      "constant": true
    },
    {
      "inputs": [],
      "name": "claimTimeout",
      "outputs": [],
      "stateMutability": "nonpayable",
      "type": "function"
    }
  ],
  "bytecode": "0x608060405260001960055534801561001657600080fd5b5061052e806100266000396000f3fe6080604052600436106100a75760003560e01c80634665096d116100645780634665096d1461017c57806359a5f12d14610192578063d24257c0146101ca578063d30895e4146101e0578063ea8a1af014610200578063eb13175d1461021557600080fd5b80630ce6e680146100ac5780630e1da6c3146100e25780631c05ad8b146100f957806327da49ae1461011757806338a3fde71461014957806339f3027d1461015c575b600080fd5b3480156100b857600080fd5b506003546100cd90600160a01b900460ff1681565b60405190151581526020015b60405180910390f35b3480156100ee57600080fd5b506100f761022b565b005b34801561010557600080fd5b5060015b6040519081526020016100d9565b34801561012357600080fd5b506100f7610132366004610458565b600080546001600160a01b03191633179055600155565b6100f7610157366004610486565b610276565b34801561016857600080fd5b506100f76101773660046104a8565b6102ec565b34801561018857600080fd5b5061010960055481565b34801561019e57600080fd5b506003546101b2906001600160a01b031681565b6040516001600160a01b0390911681526020016100d9565b3480156101d657600080fd5b5061010960025481565b3480156101ec57600080fd5b506000546101b2906001600160a01b031681565b34801561020c57600080fd5b506100f761043a565b34801561022157600080fd5b5061010960015481565b60055442101561023a57600080fd5b6003546040516001600160a01b03909116904780156108fc02916000818181858888f19350505050158015610273573d6000803e3d6000fd5b50565b600380546001600160a81b0319163360ff60a01b191617600160a01b83151502179055346004556102aa42620151806104d2565b60055560408051821515815234602082015233917fe57fa5a543ebcdebf2a7d7102ac913e14454cec006468e43a6916e95bdfcea9e910160405180910390a250565b60015460405183151560f81b602082015260218101839052604101604051602081830303815290604052805190602001201461032757600080fd5b60035460ff600160a01b90910416151582151514156103e5576003546040516001600160a01b03909116904780156108fc02916000818181858888f19350505050158015610379573d6000803e3d6000fd5b507f7318db679f5dd14fe36cae37978c7ad5494738887476a5d744de29f5f0f4cc376040516103d9906020808252601a908201527f596f752077696e2e20636865636b20796f75722077616c6c6574000000000000604082015260600190565b60405180910390a15050565b7f7318db679f5dd14fe36cae37978c7ad5494738887476a5d744de29f5f0f4cc376040516103d9906020808252601390820152722cb7ba903637b9ba17103a393c9030b3b0b4b760691b604082015260600190565b6000546001600160a01b0316331461045157600080fd5b6000600255565b60006020828403121561046a57600080fd5b5035919050565b8035801515811461048157600080fd5b919050565b60006020828403121561049857600080fd5b6104a182610471565b9392505050565b600080604083850312156104bb57600080fd5b6104c483610471565b946020939093013593505050565b600082198211156104f357634e487b7160e01b600052601160045260246000fd5b50019056fea26469706673582212203b7ed842e6bcc259a47d1aed24ae699419a9b5ae2660a8869fb6c0d5155a1a1764736f6c634300080a0033",
  "immutableReferences": {},
  "source": "\r\n// SPDX-License-Identifier: MIT\r\n\r\npragma solidity ^0.8.0;\r\npragma abicoder v2;\r\n\r\n/**\r\n * @title CoinFlipPrediction\r\n */\r\ncontract CoinFlipPrediction {\r\n    address public player1;\r\n    bytes32 public player1Commitment;\r\n\r\n    uint256 public betAmount;\r\n\r\n    address public player2;\r\n    bool public player2Choice;\r\n    uint256 player2Betamount;\r\n\r\n    uint256 public expiration = 2**256-1;\r\n\r\n    event BetPlaced(address indexed sender, bool, uint256 amount);\r\n    event GameMessage(string mesg);\r\n\r\n    function CoinFlip(bytes32 commitment) public  {\r\n        player1 = msg.sender;\r\n        player1Commitment = commitment;\r\n    }\r\n\r\n    function cancel() public {\r\n        require(msg.sender == player1);\r\n        //require(player2 == null);\r\n\r\n        betAmount = 0;\r\n        //msg.sender.transfer(address(this).balance);\r\n    }\r\n\r\n    function takeBet(bool choice) external payable {\r\n        //require(player2 == 0);\r\n        // require(msg.value >= minBetAmount, \"Bet amount must be greater than minBetAmount\");\r\n        player2 = msg.sender;\r\n        player2Choice = choice;\r\n        player2Betamount= msg.value;\r\n        expiration = block.timestamp + 24 hours;\r\n        emit BetPlaced(msg.sender, choice, msg.value);\r\n    }\r\n\r\n    function reveal(bool choice, uint256 nonce) external {\r\n       // require(player2 != 0);\r\n        //require(block.timestamp < expiration);\r\n      require(keccak256(abi.encodePacked(choice, nonce))== player1Commitment);        \r\n        \r\n        if (player2Choice == choice) {\r\n            payable(player2).transfer(address(this).balance);\r\n            emit GameMessage(\"You win. check your wallet\");\r\n        } else {\r\n            emit GameMessage(\"You lost. try again\");\r\n        }\r\n    }\r\n\r\n\r\n    function result007() external view returns (uint256){\r\n        // require(player2 != 0);\r\n        //require(block.timestamp < expiration);\r\n       \r\n        return 1;\r\n        // require(keccak256(abi.encodePacked(choice, nonce))== player1Commitment);        \r\n        \r\n        // if (player2Choice == choice) {\r\n        //     //payable(player2).transfer(address(this).balance);\r\n        //     return \"player 2 Wins\";\r\n            \r\n        // } else {\r\n        //     //payable(player1).transfer(address(this).balance);\r\n        //     return \"player 1 Wins\";\r\n        // }\r\n    }\r\n\r\n    function claimTimeout() public {\r\n        require(block.timestamp >= expiration);\r\n        payable(player2).transfer(address(this).balance);\r\n    }\r\n}",
  "sourcePath": "G:\\Node Projects\\Betting-Project\\betting-prediction-fork\\Coinflip\\backend\\contracts\\CoinFlipPrediction.sol",
  "compiler": {
    "name": "solc",
    "version": "0.8.10+commit.fc410830.Emscripten.clang"
  },
  "schemaVersion": "3.4.4",
  "updatedAt": "2022-03-05T06:20:11.204Z",
  "networkType": "ethereum",
  "devdoc": {
    "kind": "dev",
    "methods": {},
    "title": "CoinFlipPrediction",
    "version": 1
  },
  "userdoc": {
    "kind": "user",
    "methods": {},
    "version": 1
  }
}